:020000040000FA
:10000000905400109D010000A5010000A701000010
:10001000A9010000AB010000AD01000000000000DC
:10002000000000000000000000000000AF01000020
:10003000B101000000000000B3010000B5010000A4
:10004000B7010000B7010000AD170000B7010000C4
:10005000B7010000B7010000B7010000B7010000C0
:10006000B7010000B7010000B7010000B7010000B0
:10007000B7010000B7010000B7010000B7010000A0
:10008000B7010000B7010000B7010000B701000090
:10009000B7010000F9110000B7010000B70100002E
:1000A000B7010000B7010000B7010000B701000070
:1000B00091130000B7010000B7010000B701000074
:1000C000B7010000B7010000B701000000F002F81E
:1000D00000F054F80AA090E8000C82448344AAF18E
:1000E0000107DA4501D100F049F8AFF2090EBAE88C
:1000F0000F0013F0010F18BFFB1A43F0010318475C
:100100001084050050840500103A24BF78C878C1D7
:10011000FAD8520724BF30C830C144BF04680C600D
:10012000704700000023002400250026103A28BF55
:1001300078C1FBD8520728BF30C148BF0B60704759
:100140006E2900F0B380702900F01681642900F058
:10015000D780632900F0D584732900F0DA84002069
:1001600070471FB501F016F804000020002108F0C8
:1001700047FF401C60601FBD10B510BD00F0E5FFDB
:100180001146FFF7EEFF06F04FFA01F007F803B44F
:10019000FFF7F2FF03BC01F0DDFB000009488047D8
:1001A00009480047FEE7FEE7FEE7FEE7FEE7FEE759
:1001B000FEE7FEE7FEE7FEE704480549054A064B71
:1001C000704700006D160000CD000000904A00103E
:1001D00090540010904C0010904C0010704700009C
:1001E0000FB41CB5084B06AA7B44694600900598DD
:1001F00000F065FC04460020694600F073FC2046D0
:100200001CBC5DF814FB0000F908000070B5044642
:1002100085690068C10601D5302600E02026C007A8
:1002200007D070BDD4E9012130469047206A401CB8
:1002300020626D1EF6D570BD70B5044685690078E4
:10024000C00707D170BDD4E9012120209047206A62
:10025000401C20626D1EF6D570BD70B50C4605467B
:10026000012A05D02878800600D5EA69002302E03B
:10027000012305E05B1C934202D2E05C0028F9D127
:10028000A869E618C01AA861286A18442862284696
:10029000FFF7BCFF04E0D5E9012114F8010B9047FA
:1002A000B442F8D32846FFF7C7FF70BD1168026853
:1002B000006A530501D508700AE0D30501D508800E
:1002C00006E0130603D5C217C1E9000200E008608A
:1002D0000120704770B5064600F00CF8046805462A
:1002E00030460A22002100F05DFC2C6070BD704792
:1002F00070477047004870472C4A0010FFFFFFFF0F
:100300002DE9F0410646002410687529314616A5EE
:1003100010D0AFF30080002802DA404213A507E0B6
:1003200031688A0701D512A502E0490704D511A555
:10033000012401E0AFF3008000210A2206F1240726
:1003400009E0B0FBF2FCB0FBF2F302FB1C00303022
:1003500078541846491C0028F3D123462A463046D3
:10036000BDE8F04100F04CBB000000002D00000093
:100370002B00000020000000F0B41368026808247D
:10038000C4610C4642F020020260110502D50E4AFB
:100390007A4402E00C4A7A440E32002100F124052E
:1003A00005E003F00F061B09965D6E54491C002BF7
:1003B000F7D105782D0703D5702C01D10123103218
:1003C000F0BC00F01DBB0000218105002DE9F05FAD
:1003D000894604464FF0000ADFF874B1FB44C0F8C8
:1003E00020A02046E1688847002874D0252806D040
:1003F000D4E901219047206A401C2062F1E70026E1
:100400005F462046E16888472028054607DB312DF6
:1004100005D2781910F8200C08B10643F1E7B007AF
:1004200001D526F00406C4F81CA00027C4F818A0C3
:100430002A2D09D0284601F07BFA38B304EB87084F
:10044000303DC8F8185019E059F8041B204604EB59
:1004500087029161E1688847012F054618D1E0695C
:10046000002820DA26F020061DE0D8F8180000EB5E
:10047000800005EB40003038C8F818002046E168DD
:100480008847054601F054FA0028EED1012F0AD022
:100490002E2D08D12046E16888477F1C0546022F93
:1004A00046F02006C4DBA069002803DA404246F08B
:1004B0000106A061F00701D026F010066C2D0BD0CC
:1004C000682D09D04C2D39D06A2D35D0742D35D0FA
:1004D0007A2D33D016E038E0E1682F462046884771
:1004E000B842054609D16C2F26D04FF48060E168F0
:1004F000064320468847054604E06C2F1AD04FF487
:10050000807006430DB3A5F14100192802D82035AB
:1005100046F400664A462946204626604E46FFF7C6
:100520000FFE80B101280BD0F61D26F0070000F168
:10053000080956E74020E4E78020D8E70020D6E706
:1005400006F104094DE7284652E7206ABDE8F09F0E
:10055000FD8005000FB400B58DB010A90990009181
:100560000B904FF0FF300A9000200C900648784422
:100570000690064878446A4607900F9909A800F04B
:10058000E1FA0DB05DF814FBF30500000B06000066
:100590002DE9FF5F1D464FF0FF3B91464FF00008ED
:1005A0005F46D5E90146A96901987F1C8847296AF9
:1005B000824688470028F6D1BAF1FF3F0CD0002EC2
:1005C00024F4C06419DD600614D5BAF12B0F09D0EC
:1005D000BAF12D0F0ED103E0584604B0BDE8F09FEC
:1005E00044F48064A96901987F1C8847761E82467E
:1005F000002E02DDBAF1300F03D0B9F1000F26D082
:1006000032E0A969761E01987F1C44F40074884783
:10061000002E824605DDBAF1780F06D0BAF1580FE8
:1006200003D0B9F1000F10D01EE0B9F1000F02D0D5
:10063000B9F1100F18D1A969761E01987F1C24F416
:10064000007488478246102002E0082000E00A205B
:10065000814609E0A96908FB0908761E01987F1CFC
:1006600044F4007488478246002E05DD4946504612
:1006700000F053FA0028EDDAE96901988847A005EF
:1006800002D46FF00100A8E7E00725D1600613D57A
:10069000600502D5C8F1000000E0404629680A1D47
:1006A0002A600968220501D5087015E0220701D5E6
:1006B000088011E008600FE02868011D29600068CB
:1006C000210502D580F8008006E0210702D5A0F8B8
:1006D000008001E0C0F8008038467EE72DE9F04751
:1006E00004464FF000094FF0FF37C568D4E904868F
:1006F000A80707D0204600F0C1FA304601F01FF9E4
:10070000002802DA3846BDE8F087280502D54046C1
:1007100000F042F94C21204600F0D7F8206D20F07F
:10072000010020654846EEE72DE9F0410546904678
:100730000E460020044600E0641C44450BD2285DB0
:1007400000F051F90746305D00F04DF9381A02D13A
:10075000295D0029F0D1BDE8F08110B5431C02E00D
:1007600010F8011B71B18107FAD14FF0013202C8B4
:100770008C1A8C4314EAC211F9D0C01A0A0603D0AD
:10078000C01E10BDC01A10BD0A0401D0801E10BDCD
:100790000902FCD0401E10BD032A40F2308010F048
:1007A000030C00F0158011F8013BBCF1020F62440C
:1007B00098BF11F801CB00F8013B38BF11F8013B9D
:1007C000A2F1040298BF00F801CB38BF00F8013B4A
:1007D00011F0030300F02580083AC0F0088051F8BA
:1007E000043B083A51F804CBA0E80810F5E7121DC5
:1007F0005CBF51F8043B40F8043BAFF30080D207E4
:1008000024BF11F8013B11F801CB48BF11F8012BAF
:1008100024BF00F8013B00F801CB48BF00F8012BD2
:10082000704710B5203AC0F00B80B1E81850203A5C
:10083000A0E81850B1E81850A0E81850BFF4F5AF80
:100840005FEA027C24BFB1E81850A0E8185044BF0A
:1008500018C918C0BDE810405FEA827C24BF51F877
:10086000043B40F8043B08BF7047D20728BF31F86B
:10087000023B48BF11F8012B28BF20F8023B48BFBC
:1008800000F8012B70474FF000020429C0F01280DD
:1008900010F0030C00F01B80CCF1040CBCF1020F33
:1008A00018BF00F8012BA8BF20F8022BA1EB0C0108
:1008B00000F00DB85FEAC17C24BF00F8012B00F8FE
:1008C000012B48BF00F8012B70474FF0000200B524
:1008D000134694469646203922BFA0E80C50A0E863
:1008E0000C50B1F12001BFF4F7AF090728BFA0E811
:1008F0000C5048BF0CC05DF804EB890028BF40F8DD
:10090000042B08BF704748BF20F8022B11F0804F1E
:1009100018BF00F8012B70474FF0013C50F8042B32
:1009200051F8043B9A4221D1A2EB0C03934313EA02
:10093000CC1317D150F8042B51F8043B9A4215D12F
:10094000A2EB0C03934313EACC130BD150F8042B06
:1009500051F8043B9A4209D1A2EB0C03934313EAEA
:10096000CC13DBD04FF00000704700BFD01A01BAA3
:10097000B1FA81F101F0180122FA01F0CB40C1F186
:100980002001DBB2C0B2C01A2CFA01F3D11A914394
:1009900011EAC311E6D1704770B50446051F00F097
:1009A000BDF90068002C14BF446870BD002C18BF4E
:1009B000AC423CBF20466468F8D301680A18AA42DA
:1009C00018BF456003D12A680546114401602868B4
:1009D0004119A1421CBF6C6070BD616869602168EB
:1009E0000844286070BD10B5044600F08FF9006817
:1009F000005DC00602D504F1200010BD204610BDE8
:100A00002DE9F0470D4699469246044600F1240828
:100A10000168880604D5E06921F01001216000E03A
:100A20000120A84201DD471B00E00027A1697A19D7
:100A300002EB0900081AA0612078C00602D4204603
:100A4000FFF7E4FB002608E0D4E901211AF80600CC
:100A50009047206A401C761C20624E45F4DB2078CB
:100A6000C0060AD52046FFF7D1FB06E0D4E90121F4
:100A700030209047206A401C2062381EA7F10107F1
:100A8000F4DC07E0D4E9012118F805009047206A5A
:100A9000401C2062281EA5F10105F3DC2046FFF76B
:100AA000CBFB2078000602D50220BDE8F0870120AC
:100AB000FBE7000001694A1C02610878704700B535
:100AC0008FB0CDE901310021059105497944CDE987
:100AD000031011466846FFF779FC0FB000BD000017
:100AE000E5FFFFFF0A6802F8010B0A60704710B5C6
:100AF000436913B1AFF3008001E0FFF7AEFB0120C3
:100B000010BD127800F124010A7000224A700122FF
:100B1000EDE711684FF0FF32E9E73A2800D23038AC
:100B200020F02002412A01D3A2F13700884201D3EC
:100B30004FF0FF30704700000268114413780160E5
:100B400018467047D1600549794451610449794498
:100B5000116200211161114600F0EEB8EDFFFFFFB8
:100B6000D3010000426842B1016811F8013B23B192
:100B7000521EC0E90012184670470121C160881E4C
:100B8000704742685AB1C368016843B983688B42B1
:100B900005D0491E521CC0E90012002070474FF0DA
:100BA000FF3070472DE9F04791460F4680460446D6
:100BB000002614F8015B2DB100F0A8F80068405D34
:100BC000C007F6D12B2D02D02D2D18D0641E4A4619
:100BD0003946204600F06AFA27B13968A14201D1AE
:100BE000C7F800804FF0020471050BD54042002881
:100BF00003DDFFF77FFB0460A007BDE8F08746F444
:100C00008066E4E70028F8DAFFF774FB04606FF011
:100C10000040F2E7C16821F4001141F08001C16099
:100C200000218160016070472DE9F047814614463C
:100C30000E464FF0FF383248D5685769054209D053
:100C40003846A16900F088FE002811DB2C48C0431B
:100C50000540E5602B4632464946384600F08AFE9C
:100C6000A16920F00042B21A11440028A16103D00A
:100C70002046FFF7CFFF4046BDE8F08770B5044639
:100C80000569C06A6168884200D80846E16821F4B5
:100C90002011E160C90312D5A84208D02246411BA9
:100CA0002846FFF7C1FF10B14FF0FF3070BD0020A4
:100CB000E562C4E90150E06820F48030E060002083
:100CC00070BD10B50446C06820F02000E060A16A45
:100CD000A06988420DD02046FFF7D0FFE06820F4DD
:100CE000405040F01000E060A06AA0612069E0621E
:100CF000606044F24001E0688843E06010BD00009D
:100D000010000200004870472C4A001010B500F097
:100D100041FA001D10BD00BFE98200000048704785
:100D2000344A001010B50446FFF7F0FF0068005D7C
:100D300000F0010010BD00002DE9F34F4FF0000A54
:100D40000C4656468DB001200C9001F10C000B9022
:100D500062690B9801219047051E2DD0252D2CD0BE
:100D6000216A8847C0B162690B9801219047216AC6
:100D700088470028F7D16269411E0B98904700E030
:100D8000761CA1690D988847216A88470028F7D109
:100D9000E1690D988847DBE7A1690D988847A8426B
:100DA000074601D1761CD3E7E1690D9888477F1C7F
:100DB00002D1BAF1000F6FD06BE162690B98002786
:100DC0003D46394690472A2804D162690B98012193
:100DD00090470125DFF8D08262690B980121904786
:100DE000A0F130010A290AD24745E5DC07EB87016B
:100DF00000EB4107303FDFD445F01005ECE7E90692
:100E000001D46FF000476C280AD04C2814D0682811
:100E100015D06A280DD074281CD07A281AD01DE06D
:100E200062690B98012190476C2802D045F00405B7
:100E300014E045F002050DE045F020050AE0626986
:100E40000B9801219047682802D045F0080505E07D
:100E500045F4006562690B9801219047C4E9015788
:100E600065283DD019DC58287AD00CDC452837D0CD
:100E700004DC252826D041289ED131E046282FD0F9
:100E8000472899D12CE05B2877D0612828D06328A7
:100E90007CD0642823D15AE0F6E06F2848D008DCE3
:100EA00066281DD067281BD0692821D06E2816D14E
:100EB00027E0702845D0732868D0752847D0782857
:100EC0000DD14DE0A1690D988847252805463FF4CE
:100ED00069AFE1690D9888476D1C3FF46AAFD8E0AF
:100EE0000D9923466A466FF00100AFF30080C5E01C
:100EF00045F0400023464FF000026060A80736D45A
:100F00003EE0E8077FF447AF2068011D21600068DC
:100F1000290501D506701BE7290701D5068017E7CB
:100F2000A90703D5F117C0E9006111E706600FE7D3
:100F300045F0400023464FF008026060A80716D431
:100F40001EE040F60E0125EA0100606016E045F063
:100F5000400023464FF00A026060A80707D40FE064
:100F600045F040006060A80708D5234610220D997F
:100F70006FF00100AFF3008080E007E0102223460D
:100F80000D996FF00100FFF703FB77E04FF00009C8
:100F900063284F46C8464B46CB4602D05B2806D056
:100FA00038E0E80601D40120A060012732E0626940
:100FB000D4F80CB00B98012190475E2807D14FF070
:100FC000010949466269D4F80CB00B989047216931
:100FD00039B900210A4603AB43F82120491C0829EE
:100FE000FADBD8B3216949B308F1010862690B98AB
:100FF000012190475D28F4D1B9F1000F09D00020FC
:1010000003A951F82020D24341F82020401C082891
:10101000F7DB03AB2069002820794FEA40701ED02F
:101020005B462246CDF80080CDE901970D99002856
:101030006FF0010020DAAFF300801FE0C11703AAB0
:1010400000EBD1614B1121F01F0102EB8302411A29
:1010500013680120884003431360C7E719E00D9926
:10106000224600286FF00100009702DAAFF30080FB
:1010700004E0AFF3008001E0AFF3008000280ADA5B
:10108000401C06D10C9820B14FF0FF300FB0BDE8E6
:10109000F08F5046FAE7E90701D10AF1010A064448
:1010A00000200C9054E60000CCCCCC0C2DE9F05F75
:1010B000824615468B4600270AF10104B94600789E
:1010C000302801D09DB113E014F8010B01277828D6
:1010D00003D0582801D045B10AE00DB1102D07D139
:1010E000002714F8010B102502E0082500E00A256E
:1010F0000026B0460EE005FB080005FB06F10127BF
:101100001FFA80F801EB1046B6F5803F00D3B946D0
:1011100014F8010B2946FFF700FD0028EBDABBF1BC
:10112000000F05D00FB1641E00E05446CBF800401C
:10113000B9F1000F06D0FFF7DDF802210160C81EEB
:10114000BDE8F09F48EA0640FAE77546FFF7DAFD8A
:10115000AE4605006946534620F00700854618B0A4
:1011600020B5FFF729F8BDE820404FF000064FF00A
:1011700000074FF000084FF0000B21F00701AC46CC
:10118000ACE8C009ACE8C009ACE8C009ACE8C009EB
:101190008D467047004870474C4A001010B5044611
:1011A000AFF300802046BDE81040FEF7F0BF00001E
:1011B000024609481044401EB0FBF2F101B9022179
:1011C00001F0010000B1491CFE2900D9FE210348AD
:1011D0000161012070470000A086010000800840E6
:1011E00000200449496F01F0007109B940F0010085
:1011F0007047000000C0092010B54B48006800F09F
:101200000100002823D04848001D006800F08060DD
:10121000B0F1806F42D14FF0806043490C310860DB
:101220004248007842490978884211D10320414957
:10123000087000203D4908703FA006F0D7FA4FF42F
:10124000FA6001F0ECFC4FF000703E49886169E003
:101250003648007836490978884201DA012000E0F2
:10126000002034490978032901D0012100E0002140
:101270000840002856D034A006F0B8FA2B48007871
:10128000401C2A49087002202A49087041F288301F
:1012900001F0C5FC31A006F0A9FA43E02248001D88
:1012A000006800F40030B0F5003F3BD121480078E1
:1012B000032837D12DA006F099FA4FF4FA6001F017
:1012C000AEFC26A006F092FA4FF4003016490C311D
:1012D00008601C484069C0F38340254908700846EF
:1012E000007878B902F05CFD01201249087021A055
:1012F00006F07CFA41F2883001F091FC17A006F06C
:1013000075FA0FE01A4802781DA12048FEF768FF21
:101310001E4806F06BFA41F2883001F080FC0FA005
:1013200006F064FA10BD0000808002400800001042
:101330000A0000100900001063616C6C2073746176
:101340007274730000C009202020202020206361D7
:101350006C6C2020202020200000000043656E746B
:1013600072616C2052656164790000003A290000C6
:101370000B00001043616C6C20656E6465640000B6
:10138000436F64653A202564000000006616001073
:101390002DE9F04741E02748C0F8008008F0080038
:1013A000002839D02448046831E0244850F83470CB
:1013B00007F0804000B923E0C7F30A00C51E40F2E1
:1013C000EA50854202D81E48384000B118E045F086
:1013D000004000F00BFB06468EB106F1040A1948E6
:1013E00050F83490E81C850804E059F8040B4AF8DA
:1013F000040B6D1E002DF8D1304605F0D7FF00BF5D
:10140000601C0446042800D100240B4804600A48EC
:10141000001F0068A042C8D100BF06480838006815
:101420000449091F096800EA0108B8F1000FB2D1A8
:10143000BDE8F087E80F00501801005028C00720D1
:101440000000901B08C007202848006840F40010E6
:101450002649C439C1F8C4002548006A40F4001088
:10146000234908620846406B40F400104863214855
:10147000C0682049C8601E48006E40F080601C496A
:1014800008660846406F20F0806048671948C068C9
:1014900020F440701749C8600846C06840F44070A6
:1014A000C8600846C06820F47030C8600846C0684C
:1014B00040F47030C8600D48C438D0F8AC0120F456
:1014C00040600A49C439C1F8AC010846D0F8AC0103
:1014D00040F480600549E8310860FA200649086157
:1014E000072008600220486001207047C4C00F40F8
:1014F00000C0092000C00240008008403FB50146FE
:101500000B4D3CCD8DE83C0000200DE001228240D7
:101510000A4022B15DF82020064B9A6303E05DF893
:101520002020044BDA63401C0428EFD33FBD0000A9
:101530007C90000000C0092000F01F0201219140B2
:101540004209920002F1E022C2F800117047000047
:1015500010B502460B4600210DE0FF20084CA060AC
:1015600000BF0748C06800F004000028F9D0044814
:1015700080685054491C9942EFD3012010BD0000EF
:10158000008008400F48006848F2100108430D49E8
:10159000C439C1F8C4000C48006940F002000A498F
:1015A00008610846006940F0080008618320074987
:1015B0000873092008702120886200200871032028
:1015C00008737047C4C00F4000C0024000000140D3
:1015D00000BF0449097D01F020010029F9D0014A2A
:1015E000107070470000014001460648816000BF4E
:1015F0000448C06800F010000028F9D10148806854
:10160000C0B270470080084010B502460B4600216A
:101610000CE0505C0C4CA06000BF0B48C06800F0B0
:1016200002000028F9D008488068491C9942F0D38C
:1016300001E0054880680448C06800F014000028F4
:10164000F7D1012010BD000000800840014621B103
:101650004FF40010044A906303E04FF40010024A74
:10166000D06301207047000000C0092020204B49B2
:1016700008604B48D0F8A00100F0200030B100BF56
:101680004648006800F040000028F9D00320434994
:101690009C39086000204249C1F8A8013F490C313B
:1016A000086001203D49943908603E483C49843136
:1016B0000860AA203A498C31086055200860012052
:1016C000374980310860AA2035498C31086055209F
:1016D0003349C1F88C0000BF31488830006800F001
:1016E00080600028F8D003202D4980310860AA20AE
:1016F0002B49C1F88C00552029498C31086000BF66
:1017000027488830006800F04070B0F1407FF7D182
:1017100023202349A4310860AA202149C1F8AC0044
:1017200055201F49AC31086001201D49A0310860D7
:10173000AA201B49AC31086055201949C1F8AC00FA
:1017400000BF1748A830006800F480600028F8D077
:1017500003201349A0310860AA201149C1F8AC0048
:1017600055200F49AC31086000BF0D48A830006813
:1017700000F44070B0F5407FF7D10B480849C43100
:10178000086000200649C1F8C8010846006820F436
:10179000704040F48040086070470000A0C10F40D6
:1017A00000C00F4063000500DE87280401200449C3
:1017B000086004480068401C024908607047000047
:1017C00000800040600000101648006A20F40010FD
:1017D000144908621448C0681349C8600846C068C4
:1017E00020F44070C8600846406820F03C00486023
:1017F0000E48006820F440600D49C1F8AC010D4866
:10180000006920F0FF000B490861084600686FF38B
:101810000F0008600846406820F00F004860012073
:101820007047000000C0092000C00240ACC10F405A
:1018300000C00F400080084070B504461148AFF367
:101840000080114904EBC40001EB80040025A0884E
:101850006E1E8107002906D00ADA8006204604D5CC
:1018600001F028FF04E0344604E001F0A8FD30B1A7
:10187000A58000240348AFF30080204670BDA580FA
:10188000F1E70000000000009400001070B504466D
:101890000D460F48AFF300800E4904EBC40001EB86
:1018A00080004FF0FF3481888A070BD089062946D3
:1018B00003D502F0A7F820B104E001F07EFD012875
:1018C00000D100240248AFF30080204670BD000024
:1018D00000000000940000102DE9F0410746164674
:1018E0000D461148AFF300804FF0FF34B5B10F49FA
:1018F00007EBC70001EB800081888A070ED001F05A
:101900000F02012A0AD089063246294602D502F082
:10191000D4F801E001F055FD00B100240248AFF316
:1019200000802046BDE8F081000000009400001017
:1019300030380A2801D2012070470020704710B5C6
:101940000446B4F5004F01DD002010BD2046FFF72E
:1019500073FFFAE700BFFEE770B504460D46B4F525
:10196000004F02DD4FF0FF3070BD29462046FFF7E3
:101970008DFFF9E72DE9F04104460D4616461F4656
:1019800048F2020084420AD104E015F8010B05F088
:1019900093FE761E002EF8D10020BDE8F081B4F54C
:1019A000004F02DD4FF0FF30F7E732462946204670
:1019B000FFF792FFF1E7000003498A68117801B947
:1019C00002A206A1FEF70CBCD87C05004B65696C31
:1019D0002D455745422F322E310000005365727657
:1019E00065723A2025730D0A000000002DE9F041D0
:1019F0002A4D0646E87B18B1B00F32D103202EE005
:101A000026F040400F3020F00307002E03DB04F0E7
:101A10004DFB0120E873B00F4FF000080BD0286891
:101A200069683844884206D9E87BD0B185F80F80D0
:101A300004F048FB15E01A48046820686268011B3E
:101A4000891AB94210D2044600680028F5D1E87B13
:101A500018B185F80F8004F035FBB00F01D105F007
:101A60001DFF0020BDE8F081A2B1101921680160BE
:101A7000206000F108044760286838442860E87B4B
:101A800018B185F80F8004F01DFB2680A4F80280B1
:101A90002046E7E767600834EEE70000D049001011
:101AA000947C05002DE9F0418846074600F0D0F906
:101AB00000284CD0274D00262C680BE0207838B148
:101AC0000422394604F10A0004F02AFE012833D02A
:101AD0000E34761C2879B042F0DC1F49384604F0F9
:101AE000B9FCB0B91C48001D05F0F8FA00282ED04A
:101AF00000262C680AE0207830B106224146201DDD
:101B000004F00EFE01281CD00E34761C2879B04259
:101B1000F1DC012000F022F8002818D0C0EBC00052
:101B20006FF00D0202EB4000296804220C183946C0
:101B300004F10A0004F000FE06224146201D04F0D4
:101B4000FBFD6879E070A879A07003202070BDE8E3
:101B5000F0810000A47C0500E0490010F0B52049A8
:101B60000446012005460A6803E013784BB10E32A3
:101B7000401C0B798342F8DA00204E7901220B6871
:101B80000CE015705470F0BD5F78012F04D1DF7840
:101B9000B74201D83E4610460E33521C0F79974289
:101BA000F2DA90B94E7901220B6809E05F78022FD2
:101BB00004D1DF78B74201D83E4610460E33521C9E
:101BC0000F799742F2DA0028DDD00968C0EBC00235
:101BD0006FF00D0303EB420211440D704C70F0BD29
:101BE000A47C05002DE9F041224C884606460027DA
:101BF00025680BE0287838B10422314605F10A0047
:101C000004F08EFD012832D00E357F1C2079B842B9
:101C1000F0DC304600F01CF9002828D01649304688
:101C200004F018FC002822D00120FFF797FF0500E0
:101C30001DD0114A3146002000F072FAC5EBC501F3
:101C40006FF00D0202EB4101206804224518314675
:101C500005F10A0004F070FD06224146281D04F03B
:101C60006BFDE079E870A079A87003202870BDE8CA
:101C7000F0810000A47C0500E04900102DE9F04748
:101C800088468146274904F0E5FB48B9254C201DCC
:101C900005F024FA00283AD004F104094FF00008B6
:101CA000214D002702262C680BE0207838B1042251
:101CB000494604F10A0004F033FD012829D00E340E
:101CC0007F1C2879B842F0DC4046FFF747FF04004C
:101CD0001CD0144A4946002000F022FAC4EBC4018B
:101CE0006FF00D0202EB41012868042244184946B6
:101CF00004F10A0004F020FD06220C49201D04F026
:101D00001BFDA879A070E879E07026700020BDE87E
:101D1000F08720780328F9D36078012800D1667015
:101D20002046F4E7E0490010A47C0500047E05008D
:101D30002DE9F041374D3849287810B90A7B9207D0
:101D400066D50122401C8A7328700027334E5AE062
:101D5000C0EBC0006FF00D02316802EB40000C18C0
:101D60002078D8B3E07820B1401E10F0FF00E0707A
:101D700046D1607878B10422294904F10A0004F0C0
:101D8000CFFC012806D0607801280FD018B10228B6
:101D900001D035E067702078032823D0A07870B395
:101DA000401E10F0FF00A07029D01DE0207803280D
:101DB00025D0A07818B3401E10F0FF00A0701ED0F0
:101DC00002202070F079E07004F10A00054605F069
:101DD00085F9134A121F10B129460BE010E00021CB
:101DE000201D08E0042020700D4AF079E070121FD9
:101DF00004F10A010020BDE8F04100F091B927701C
:101E00002878401C28703179C0B28142A0D22F704E
:101E1000BDE8F0818C0000101C4A0010A47C050075
:101E2000E449001030B5084B00210A460124186827
:101E300003E0027044700E30491C1D798D42F8DCBD
:101E40000248426030BD0000A47C05008C000010F8
:101E500001787F2912D00E22B2EB111F0ED000683C
:101E600060B1411C0AD006490A68896842400A42AA
:101E700002D10143491C01D0012070470020704766
:101E8000E04900100649002048600648007A002812
:101E900004D0054A0020114600F042B97047000006
:101EA0008C000010A47C0500E049001003490022CA
:101EB00048600146104600F033B900008C00001065
:101EC0002DE9F0471F4E0546002700F1080A00F1F2
:101ED0000E094FF0090834681DE02078012818D950
:101EE000E98898FA88F0B1EB104F0AD10622211D3B
:101EF000504604F015FC60B10422494604F10A0082
:101F000011E0042204F10A01484604F009FC01280A
:101F100006D00E347F1C3079B842DEDCBDE8F08795
:101F200006225146201D04F007FC6078022801D1EA
:101F3000012060707079E070B079A070032020708B
:101F4000ECE70000A47C05002DE9F04101882A2976
:101F500052D3418A012212BAB1EB124F4CD1818A7D
:101F60004FF4006212BAB1EB124F45D1817D0629C0
:101F700042D1C17D04293FD1018B00F1240709BA68
:101F80000A0C3D1FBE1D00F1120400F11A080A2AB6
:101F900032D2DFE802F031054A313131313139686E
:101FA00004223349304604F0BBFB28B141462846A1
:101FB000FFF778FD022133E004222946304604F081
:101FC000AFFB002818D02B4E0027346818E020788B
:101FD000032813D306224146201D04F0A1FB68B15B
:101FE0000422294604F10A0004F0A6FB7079E0708F
:101FF000B079A07003202070BDE8F0810E347F1C02
:102000003079B842E3DCF7E706221B49384604F092
:1020100087FB0028F0D041462846FFF743FD092101
:102020002046BDE8F04100F02BB8304605F056F8E8
:1020300058B104220E49304604F072FB0028DBD070
:102040002046BDE8F041FFF73BBF0C4C616800291A
:10205000D2D00422284604F063FB0028CCD061686B
:1020600000200870C8E7062203493846E4E700006C
:10207000E0490010A47C0500550000108C00001001
:102080002DE9F04105460E462A20FFF7AFFC044635
:1020900005F1080106220F46001D04F04DFB062243
:1020A0001D4904F10A0004F047FB40F6060000BA9F
:1020B000000C2082012000BA000C60824FF4006006
:1020C00000BA000CA0820620A0750420E07530BA8A
:1020D000000C20830622394604F1240004F02CFB76
:1020E000042205F10E0104F12A0004F025FB06226A
:1020F000094904F11A0004F01FFB0422074904F106
:10210000200004F019FB204605F0B2FA2046BDE895
:10211000F04102F055B8000055000010E0490010F1
:102120002DE9F041054616460F462A20FFF75EFCD2
:1021300004460DB1294600E024490622201D04F082
:10214000FBFA0622224904F10A0004F0F5FA40F6EF
:10215000060000BA000C2082012001BA090C61823D
:10216000C10209BA090CA1820621A1750421E175F9
:1021700005B1082000BA000C20830622144904F19E
:102180001A0004F0D9FA05B9124D0622294604F1C5
:10219000240004F0D1FA0EB1314600E00D490422CA
:1021A00004F1200004F0C8FA0FB1394600E00949F3
:1021B000042204F12A0004F0BFFA204605F058FA80
:1021C0002046BDE8F04101F0FBBF0000047E0500A1
:1021D00055000010B8820500054901EB80000A682F
:1021E0004068824201D20120704700207047000001
:1021F000D0490010F0B500231D461C4600268A5D1C
:10220000A2F14107192F01D83A4618E0A2F161075F
:10221000192F01D8473A12E0A2F13007092F01D84F
:10222000121D0CE02B2A04D02F2A04D03D2A04D002
:1022300013E03E2203E03F2201E000226D1C761CE9
:1022400042EA8313042EDAD31A0C02701A0A42707F
:102250008370E41CC01C091D15B1641B15B103E09B
:10226000392CCBD3002101702046F0BD10B50446B7
:10227000816905F045F9002809D0E06D00F5FF708F
:1022800002F075FBA0F52A41553901D0002010BDA0
:10229000E06D417BA1770B3002F069FBE085E06DDA
:1022A0000E3002F064FB6084E06D017C61771130D8
:1022B00002F05DFBA085E06D133002F058FB606218
:1022C000E06D163002F053FB2084616AE9B9B8B9B9
:1022D000E06D283002F04BFBE087E06D2C3002F01F
:1022E0004BFB2064E06D303002F041FBA4F8440069
:1022F000E06D323002F03BFBA4F84600606A20B982
:10230000E06D203002F038FB6062208C20B9E06D77
:10231000243002F031FB2084012010BD70B504464A
:10232000806C0D46A8423ED094F85010012928D167
:1023300066697EB1217889060CD5617F022906D0B5
:10234000002201463046E36C02F0D6F814E0218CFE
:102350004218F6E76268E16CD368012298470028CA
:1023600020D0607F022809D16268218CA06CD368DC
:102370000844E16C01229847002813D0002084F81B
:10238000500085B194F85100218C6268484328447C
:102390009368E16C01229847012806D04FF0FF3086
:1023A000A064002070BD012070BDA564FBE700B5EE
:1023B000002200F029FBC04380B200BA000C00BD2F
:1023C0002DE9F04704460D4691469A4600272078AD
:1023D000682819D06C2804D0722833D079283BD1D2
:1023E0001CE0A078303801218140CEB21C48007832
:1023F000304008B11BA000E01CA00246211D284669
:10240000FDF7EEFE074627E002F078F880464246E8
:1024100017A12846FDF7E4FE07461DE002F02CF95F
:102420006178303901228A40104008B111A000E0E3
:1024300012A080466278434612A12846FDF7D0FEDE
:10244000074609E002F032F9804642461AA12846C2
:10245000FDF7C6FE074600BF00BFB8B2BDE8F08773
:1024600044000010636865636B6564000000000051
:1024700025730000747275650000000066616C735E
:10248000650000003C636865636B626F783E3C6981
:10249000643E627574746F6E25633C2F69643E3CC4
:1024A0006F6E3E25733C2F6F6E3E3C2F63686563F5
:1024B0006B626F783E0000003C72696E673E3C6F55
:1024C0006E3E25733C2F6F6E3E3C2F72696E673EE9
:1024D000000000002DE9F04186B006460D46174683
:1024E00006B902E006B0BDE8F08100BF0020414916
:1024F000087001204049086027B93E480078FEF77F
:10250000FDFFEFE74FF000082820FFF76FFA0446C1
:1025100000BF28222146284602F0B4FC0546207858
:10252000002848D035A1204605F09EF9012805D1A4
:1025300001F036FC34A005F059F93CE034A1204606
:1025400005F092F9012806D12A48007840F00100F0
:10255000284908702FE030A1204605F085F90128B0
:1025600006D12448007840F002002249087022E099
:102570002BA1204605F078F9012806D11D480078E6
:1025800040F004001B49087015E027A1204605F023
:102590006BF9012806D11748007840F0080015496A
:1025A000087008E022A1204605F05EF9012802D15A
:1025B000002011490860002DABD1204601F000FE3B
:1025C0000C480078FEF79AFFB8F1030F0FD103A86B
:1025D000FEF7C3F887B23A46694603A804F0A0F8AC
:1025E000012804D11649486903A905F01CF900BF68
:1025F00078E70000440000100C00001063616E6377
:102600006C6562746E000000627574746F6E000019
:102610006C6564303D6F6E006C6564313D6F6E00BB
:102620006C6564323D6F6E006C6564333D6F6E00A7
:102630006374726C3D42726F7773657200000000C4
:10264000D87C050030B587B005462820FFF7CEF9C5
:10265000044600BF28222146284602F013FC054606
:102660002078002818D050A1204605F0FDF8012858
:1026700013D106A805A904AB03AACDE900104BA10C
:10268000E01CFDF767FF4C490398087004984870F8
:10269000059888700698C8707EE048A1204605F02D
:1026A000E3F8012819D106A805A904AB03AACDE9CE
:1026B00000103EA1201DFDF74DFF3F490398087211
:1026C0000498C1B23C4841720598C1B23A4881723F
:1026D0000698C1B23848C1725EE03AA1204605F0C2
:1026E000C3F8012819D106A805A904AB03AACDE9AE
:1026F00000102EA1E01CFDF72DFF2F490398087153
:102700000498C1B22C4841710598C1B22A48817120
:102710000698C1B22848C1713EE02BA1204605F0C1
:10272000A3F8012819D106A805A904AB03AACDE98D
:1027300000101EA1601DFDF70DFF1F4903980873CF
:102740000498C1B21C4841730598C1B21A488173FC
:102750000698C1B21848C1731EE01DA1204605F0BD
:1027600083F8012818D106A805A904AB03AACDE96E
:1027700000100EA1601DFDF7EDFE0F4903980874CF
:102780000498C1B20C4841740598C1B20A488174DA
:102790000698C1B20848C174002D7FF45BAF204693
:1027A00001F00EFD07B030BD69703D0025642E2597
:1027B000642E25642E256400E04900106D736B3D86
:1027C0000000000067773D0070646E733D000000FC
:1027D00073646E733D000000002070470021A0F17B
:1027E0002002012A16D9D21E062A13D92D2823D059
:1027F0002E2821D00D3A092A0CD940281CD0113A94
:10280000192A07D91D3A1D2A04D97D2814D07E28FB
:1028100012D000E001212B280BD02C2809D03B2816
:1028200007D03D2805D05B2803D05D2801D07F2844
:1028300000D90221084670470121FBE72DE9F04746
:1028400005464079072802D30846BDE8F0870C000A
:102850007BD0DFF844814FF0000950A1204600F002
:102860000DF9012806D051A1204600F007F90128F2
:102870006DD075E00E3452A1204604F0F5FF01281A
:102880000AD058A1204604F0EFFF012808D0D8F85C
:10289000047026467F1E3FE0687940F001005EE04C
:1028A0002746464604E054A104F0DEFF012806D086
:1028B0003846716802F01CF80700F4D150E034206B
:1028C000FFF794F8342207F10901A86203F08CF8AD
:1028D000AA6A801E02F80090E880687940F0010042
:1028E0006871688840F480602DE030783B2808D01B
:1028F0000D2835D00A2833D02F2806D02B2804D015
:1029000009E0707820282BD005E03EA1701C04F06F
:10291000ABFF012803D0761CBE42E6D320E0402066
:10292000FFF764F840222146A86203F05DF8AA6A26
:10293000801E02F80090E880687940F0010068711C
:10294000688840F4805068800AE023E0FFE7103494
:102950002046FDF7BFFCE860687940F0020068712E
:102960002046D8F8041001F0AFFF08B1044674E720
:1029700020780D280ED160780A280BD1687940F0B4
:1029800004006871072805D1D8F80410A01C814202
:102990003FF65BAF002058E780000010436F6E7475
:1029A000656E742D547970653A200000436F6E7423
:1029B000656E742D4C656E6774683A2000000000E7
:1029C0006170706C69636174696F6E2F782D7777B1
:1029D000772D666F726D2D75726C656E636F6465B1
:1029E000640000006D756C7469706172742F666F9D
:1029F000726D2D6461746100626F756E64617279CD
:102A00003D000000786D6C0005E000BF30F8023B2F
:102A1000891E5BBA1A440129F8DC11B1007802EB77
:102A2000002290B200EB124000EB104080B27047E1
:102A3000084400EB104080B27047838B02681A4450
:102A4000037941B1032B01D0C38B1A448079891ECD
:102A500001FB00207047032BF8D01046704708E0B8
:102A60000378534013F0DF0F01D000207047401C63
:102A7000491C0A78002AF3D10120704710B5DF22E3
:102A80000BE004785C40144201D0002010BDFF220E
:102A90002D2B00D1DF22401C491C0B78002BF0D1DC
:102AA000012010BD00B503464FF080601849C8638F
:102AB0004000C8631809400588634FF000708863C0
:102AC0004FF4967000F070FC4FF000701049C8632E
:102AD0004CF2503000F068FC180940050C49C863FE
:102AE0001807C00988634FF0007088634FF4967030
:102AF00000F05AFC4FF000700549C8634CF25030AA
:102B000000F052FC1807C0090149C86300BD00006D
:102B100000C009202DE9F0410446007F002501286E
:102B200006D0022838D0032857D00020BDE8F08115
:102B300002262CE03146204601F00BFE804601467D
:102B40002046FFF7EBFB002867D006EB4600C0F3FA
:102B50004800B0F5FF7F04D8E16C084401F007FF9E
:102B60000CE0E06C08F1010190F8FF712046FFF7DE
:102B7000D5FB88B3E06C007847EA0020F10701D06C
:102B8000000901E0C0F30B0000B96D1C761C206B3E
:102B9000801CB042CED840E00221204601F0D9FD91
:102BA000074601462046FFF7B9FBA8B102260FE011
:102BB00016F0FF0F05D17F1C39462046FFF7AEFB0C
:102BC00050B1E06CF1B230F8110000B96D1C761C08
:102BD000206B801CB042EBD81FE00221204601F0A0
:102BE000B8FD074601462046FFF798FBA8B102262C
:102BF0000FE0700605D17F1C39462046FFF78EFB9B
:102C000058B1E06C06F07F0150F8210000B96D1C4E
:102C1000761C206B801CB042EBD8284686E7014624
:102C2000002006E0002000E0401C41F28832904283
:102C3000FAD30A1EA1F10101F4D1704770470000D8
:102C40001CB52F48006810B12E48006800B91CBDA3
:102C5000042200212C4803F08FFDE8B929480068C0
:102C600000F00040C0B900202649086027A12B4889
:102C7000FDF7B6FA2448C07823498978CDE90010D9
:102C800021484378027826A124481130FDF7A8FA9C
:102C9000012027490860DAE71A480068401E1949F0
:102CA000086068B900F052F822A11C481130FDF705
:102CB00097FA01201E490860234812490860C6E7B8
:102CC00010480068B0F1004F17D100200D4908608E
:102CD0000EA11248FDF784FA0B48C0780A4989789A
:102CE000CDE900100848437802780DA10B48113057
:102CF000FDF776FA01200E49086000BFA7E7000043
:102D00001400001018000010E04900102049502065
:102D1000616464726573733A000000001C00001067
:102D20002025642E25642E25642E256400000000D5
:102D3000100000102044484350206661696C6564AF
:102D400020202020000000001E00008070B50C4CE8
:102D50002078002812D0607805F0D2FD607805F068
:102D6000C9FE00256570042204F10801054803F03E
:102D7000E3FC2570BDE87040FFF784B870BD00002B
:102D80002C490010E049001070B5104A03210020C2
:102D900005F0DCFD0E4C00256070A0B1442105F06B
:102DA00003FE04220B4904F1080003F0C5FC0422D1
:102DB0000021084803F0DBFC0320207001F0B2FD85
:102DC000A061658070BD257070BD0000D92D000028
:102DD0002C490010E04900102DE9F05F794F88463A
:102DE0000A9E79781C46814274D13878062871D0C1
:102DF000432A6FD1EC2E6DD3207802286AD16078F7
:102E0000012867D1A07806287ED1201D04F066F93C
:102E1000B969884278D106226B4904F11C0003F09D
:102E20007FFC002871D004F1EC0004F057F96749E9
:102E3000884269D139780025891E04F1100B07F109
:102E4000080A4FF00609082943D2DFE801F086B9E5
:102E50000444B986860404220021381D03F087FC4F
:102E6000F0210FE0605C342806D0352806D16018C8
:102E70008078022848D101E060188578204604F067
:102E800067FA0146B142EDD3E80706D06C2120462F
:102E900004F05EFA0146EC28F9D3A80706D52C21E8
:102EA000204604F055FA01466C28F9D3381D04F089
:102EB00015F9002829D005203870042259465046BB
:102EC00003F03AFC032000F067F90420B8830820DF
:102ED000F88375E018E041460422B846381D03F037
:102EE0001FFC30B104225946504603F019FC00285B
:102EF0000BD0F0271AE0E05D342810D0352810D12F
:102F0000E0198078052802D00020BDE8F09F88F8FD
:102F10000090042251462E4803F00EFC01E0E01917
:102F200085783946204604F0A3F90746B742E2D334
:102F3000E80706D06C21204604F09AF90146EC28F7
:102F4000F9D3A80706D52C21204604F091F90146B3
:102F50006C28F9D3FEF796FF32E0F0211CE0605CAC
:102F6000342813D0352813D160188078062802D071
:102F7000052808D00CE003203870042200211448F2
:102F800003F0F5FBC0E787F8009001E06018857852
:102F9000204604F039F90146B142E0D3E80706D0F3
:102FA0006C21204604F030F90146EC28F9D3A8073B
:102FB00006D52C21204604F027F901466C28F9D3C8
:102FC0000120A2E72C4900105500001063538263D2
:102FD000E04900102DE9F0476C4F3A78002A44D0C0
:102FE00004250826012A24D069480024032A007BEE
:102FF0002FD0800739D578883B46401C7880988B45
:103000004FF6FF7C401E81B2D88B921E0CEA40081E
:10301000D3F814C003254FF0050A4FF00A09ACF1AC
:10302000010C082A21D2DFE802F0222029778089CA
:10303000A03C02203870BD83FE83564804F04EF851
:1030400028B1524804225349083003F075FB03208D
:103050001DE0C00709D03D707C8001F063FCB861C1
:10306000012000F099F8BD83FE83BDE8F087B983A5
:103070000029FAD1202854D93D70F6E7B9830029F8
:10308000F3D1202807D8B883A7F81E800120BDE817
:10309000F04700F081B83C735820B883092038709D
:1030A000E3E7B98339B97820B88301F03BFCB86114
:1030B000012000F071F8354E387B0C3660B1F88B8A
:1030C0000028D2D0401E0004000CF88315D03046F2
:1030D000BDE8F047FEF7EABEFD8301F023FC010CDA
:1030E000A9203873FE207873080AB873F97301D0E9
:1030F000FF28ECD1801CB873E9E70422314625484B
:1031000003F01AFB2348FF21017241728472C472DA
:10311000BDE8F047FEF7B6BEB9830029A5D1202847
:10312000AAD2B883A7F81E8091E7C7F814C03869FF
:10313000401E386199D10720387007E0C7F814C0E5
:10314000BCF1000F08D0B98300298ED1032000F014
:1031500023F8A7F81C9088E73E70032000F01CF8C5
:10316000A7F81CA0A7F81E907FE7B983002984D197
:10317000401E0004A7F81CA0000CF883D4D13D70B9
:10318000BDE8F0470422034803F0F1BA2C490010CF
:103190001C4A0010E04900102DE9F84FDFF8EC81DF
:1031A0000746012698F80000062801D0072800D11C
:1031B000002677484FF496750068007808B14FF400
:1031C000AA75284605F0B2FB04462A46002103F002
:1031D000CEFA4FF0010A84F800A084F801A006207E
:1031E000A0700020E0704546201DD8F8181003F0AC
:1031F00084FF698804F1080003F07BFF16B14FF4E7
:10320000004100E0002104F10A0003F072FF287879
:10321000A846062803D0072801D0082805D1042293
:103220005C4904F10C0003F087FA06225A4904F1C4
:103230001C0003F081FA594904F1EC0003F05DFF32
:10324000352004F8F00F3D2184F801A0A770E1704B
:103250000721217184F805A0F03C06224E4904F1B3
:10326000F60003F069FAFC25012F31D0032F01D0BD
:10327000042F74D198F800004FF0040907280FD0EC
:1032800008280DD0322084F8FC00404984F8FD90D5
:1032900004F1FE000422083103F04EFA4FF4817568
:1032A00098F80000012811D002280FD007280DD06F
:1032B00008280BD0362060556019042280F8019050
:1032C000801C08F1040103F037FAAD1D042F46D02D
:1032D00033484FF00C0B04F805B06719C168B81CEF
:1032E00004F0A1FAC1B27970294FAD1C0D443868C1
:1032F000007868B13C20605504EB050909F1020033
:10330000396804F090FAC1B2AD1C89F801100D447F
:10331000372060556019032180F802A0C170062192
:10332000017180F805B0332181713A21C1713B21CF
:1033300001723A790721D20706D005F1070121442D
:1033400043228A704FF008013A79920704D56B182E
:103350002A222344491C9A700D444170AD1CFF2061
:1033600060556D1C4FF49670854200D20546A8B298
:1033700000900EB10B4901E008F1040198F801003A
:103380002346432205F0CEFBBDE8F88F2C49001000
:10339000B07C0500E04900105500001063538263C3
:1033A000947C0500007D0500002100E0491C81425D
:1033B000FCDD7047002070477047002070470020F8
:1033C000704700207047002070470120704701209F
:1033D0007047FF207047012070470120704770B58B
:1033E0000D460446016805F11800FFF726FB6168E9
:1033F000012200EB1111284605F0E9FD08B100207B
:1034000070BD072070BDA9B18A69521C026808D03E
:103410004B6A9A420ED14068898D88420AD10220B7
:1034200070478B6A9A4205D14068C98D884201D1A4
:10343000012070470020704738B51546044611B981
:103440006068401C6060287F03281BD02068C8B9D2
:103450006068B0F5007F19D1022038BD081A60609D
:10346000206800906946284604F032F930B1287F80
:10347000009902F0D5FF18B1012038BD032038BDF6
:1034800000982060A88F61688142E7D2002038BD93
:1034900070B50E4604460168154602F11800FFF7A4
:1034A000CCFA616800EB1111284604F029F840B10C
:1034B0002179E86D01F00F0100EB41103060002030
:1034C00070BD012070BD017861B1E5290CD0C07AD2
:1034D00000F03F010F2909D0C0F3C100012807D037
:1034E0000420704700207047012070470320704778
:1034F0000220704706220249001D03F011B90000A6
:103500005500001010B502F0D1FD02F051FC074843
:1035100000210170417002F0D5FDFEF783FC062109
:10352000034803F014F90349486010BD4C490010EA
:10353000550000101C4A001070B5AFF30080FEF774
:10354000F7FB2E490A784878824255D02C4B01224D
:103550009A7301EB8002401C546800F01F00487011
:10356000208A00BA000CB0F5006F07D0A0F500600B
:1035700006383CD12046FEF7E7FC38E00021204623
:1035800002F0ACFD38B3201D054606221D4903F0AC
:10359000C7F868B9284603F0A1FD1B49B1EB102F0D
:1035A00006D004F10A0104F11E00FEF71BFB05E042
:1035B00004F10A0104F11E00FEF774FAE07E01280E
:1035C00006D0022808D006280ED011280FD107E017
:1035D000204602F075FA0AE0204602F051FB06E0B0
:1035E000204605F02BFA02E0204604F0C7FC2046F6
:1035F000BDE8704000F0E4BD70BD00004C49001013
:103600001C4A0010047E05005E00010070B50446EF
:1036100000F12205234E04222349284603F080F8B6
:1036200050BB04F11E0003F059FD002838D02A7861
:103630000E2300200121B3EB121F0CD12171607108
:103640005E20A071687800F07F00E071A878207299
:10365000E878607215E015482968026880684A4079
:10366000024202D10843401C06D001212846FEF741
:1036700005FB002814D0061D06223146201D03F04C
:103680005BF806220A4904F10A0003F055F84FF4EA
:10369000006000BA000C2082204603F0E9FF012000
:1036A00070BD0000047E0500007D0500E0490010AB
:1036B000550000103EB504460079C00664D4256864
:1036C0001421284600F0F6FD50B1D4E902018142F0
:1036D00045D9491E204600F095F9002854D104E050
:1036E000A08840F01000A0804EE0287F00F0B2FFDC
:1036F00002462846A16905F0F6FBE8B3E0690190AF
:10370000208C02902A46694601A8FFF7C1FE98BBAB
:103710006069010C0098143004F02BF8A08A81B283
:1037200000981A3004F025F80098E1681C3004F085
:1037300024F801F005F901460098163004F019F854
:1037400000F0F0FF01460098183004F012F80098DD
:10375000018B4182294601A8FFF741FE60B9287F0D
:10376000032803D1284600F095FE28B10021284601
:1037700005F062FB00B100E006E000212846FEF7FC
:10378000CDFD08B100203EBD01203EBD30B5034651
:10379000094C0CE0585CA0F16105192D01D820F00E
:1037A000200080EA126054F8200080EA0222491EBC
:1037B000F0D2104630BD0000B87E0500F0B589B0EB
:1037C0000C46050016461AD0CCB1C6B12878C8B14F
:1037D0000421104600F06EFD40B3304600F098FD25
:1037E000FFF7F7FD30673046039503F0BBFF01900C
:1037F000314601A803F0B0FC050005D055E00320D8
:1038000009B0F0BD0520FBE79DF811004FF000075F
:10381000000718D501980590B4F80401069005A892
:10382000324601210546FFF707FE08B10120E7E710
:1038300002AB224608A928460897009600F038FCFB
:103840000500DDD108E09DF8102020460399FCF723
:10385000A3FF9DF81000275402981C3001F08CF84B
:1038600004F580742060A08808990844A08002981C
:10387000C07AA071029E06F1160001F078F8C10A24
:103880002172C0F34511C0066172800EA07206F16C
:10389000180001F06CF800F01F01E172C0F3431151
:1038A000400A217300F2BC70E0812846A8E72DE9A8
:1038B000F0474FF0FF3600F148048664806860608E
:1038C00000252572657200F5007100F58060E660E4
:1038D000C4E9051025776577483C204600F018FDBF
:1038E000FFF773FD0227302104F11800E766FCF7AB
:1038F000ECFF0021204603F003FE18B3E06D00F555
:10390000FF7001F034F8A0F52A4155391AD1E06D65
:103910000178E92914D0EB2902D1817890290FD0C0
:1039200000F5E37001F028F8A0614FF0010920468E
:10393000FEF79CFC48B1E18DB1F5007F46D106E071
:10394000A561F2E70220BDE8F0870320FBE7A27F34
:10395000102A0FD008DC012A0CD0022A0AD0042A2F
:1039600008D0082A32D105E0202A03D0402A01D00D
:10397000802A2BD1B4F822C0BCF1000F26D0657F7D
:10398000012D01D0022D21D1238C606A83421DD8E4
:10399000B4F82C8005FB03C306EB481606F5007649
:1039A00096FBF1F15D18401BA062B0FBF2F02063C2
:1039B000A386E1865102A163C1F34F11A18740F6AE
:1039C000F571884204D284F81C9015E00420BAE70F
:1039D0004FF6F571884201D227770DE0032020775A
:1039E000204600F017FD38B92046FFF793F8A0668F
:1039F000204600F04FFD08B10020A4E70520A2E713
:103A0000012070472DE9F0470D46040010D0A08832
:103A1000C10650D480074ED026680421304600F0FD
:103A200049FC38B12169A94209D10020BDE8F087DD
:103A30000320FBE7A08840F01000A0803BE0E06896
:103A4000A84200D20546680AB27FA942B0FBF2F351
:103A500002FB130084F822000FD2B06BA769B1FB00
:103A6000F0F200FB1212691A5318834218D3821A1B
:103A7000891AB1FBF0F0401C04E0B06B6769B5FB3C
:103A8000F0F0A7615FEA00080AD004F1180949467E
:103A90003046A76903F01CFE68B1B8F10108F6D101
:103AA000307FA16902F0BCFC18B1B07F84F822001D
:103AB000A7612561B9E70120B8E72DE9F74F044672
:103AC000007984B09046C00603D5002007B0BDE859
:103AD000F08F27681421384600F0ECFB68B1A1880C
:103AE0004FF4007A0AEA8110029004F1180061692B
:103AF0004FF0000B009029B10EE0A08840F01000BC
:103B0000A080E2E784F822B03846009900F06EFE0B
:103B10000028DBD0A0696061208A0025C0F3080678
:103B200052E094F82200B97F88421AD12069E168F6
:103B30002844884204D23846009903F0C9FD0CE0BD
:103B4000D4F818903846009900F050FE0028BDD0F7
:103B500049463846A26905F0C6F90028B6D084F86F
:103B600022B007F11800A169FEF767FF94F8221050
:103B7000A8EB05090844019009EB0600504501D95E
:103B8000C6F5007916B90299894505D238460199DA
:103B900003F0B6FC002899D005984A464119F86D03
:103BA0003044FCF7F9FD3846019905F045F9002845
:103BB0008CD006EB0900C605F60D04D194F822005E
:103BC000401C84F822004D444545AAD3206928446E
:103BD0002061E168884200D9E060012076E70000BA
:103BE0002DE9F05F04460D466A48AFF300800020DF
:103BF00000F0A4FB070057D00146204600F0C2FBAE
:103C00008246386800284FD000205146024604E022
:103C1000401C5C2B00D10246491C0B78002BF7D1CD
:103C20000AEB020083465CA1FCF776FE00B32A2172
:103C3000584600F0E3FB04465846FCF78EFD064666
:103C4000601C1AD04FF001090BEB040053A1FCF7E4
:103C500063FEA8B1A6EB0406A6F10106387980063A
:103C600010D5294650463A68FFF7A8FDE0B90EE0A6
:103C700000244FF001092646F0E74FF00009EDE778
:103C80000026EBE739462846FFF794FB60B1002099
:103C900085F8FF00B9F1000F08D054EA060021D0E2
:103CA000B4B35A46002149E001242BE02B465A4682
:103CB00012E05B1C12F8011BA0F1610CBCF1190FA2
:103CC00001D820F02000A1F1610CBCF1190F01D83E
:103CD00021F020018842C1D118780028E9D111785B
:103CE0000029E6D1387980060BD405F580750020CF
:103CF000A871F882A888B8823846FFF75DFBB868DB
:103D0000286000242348AFF300802046BDE8F09FE0
:103D100016E000BF12F8010B6B5CA0F1610CBCF166
:103D2000190F01D820F02000A3F1610CBCF1190F8C
:103D300001D823F02003984290D1491CA142E9DB2D
:103D4000002ECFD02846FCF708FD0246A11991426B
:103D500084DC0BEB04035B1CA2EB060C16E000BF3B
:103D600013F8010B15F80C10A0F16108B8F1190F48
:103D700001D820F02000A1F16108B8F1190F01D895
:103D800021F020018842A6D10CF1010C9445E7DB1B
:103D9000A8E70000000000002A2E2A002E2A0000BA
:103DA0004FF000700149C8617047000000C0092051
:103DB000F0B5044689B01A48AFF3008000F042FA2B
:103DC000BCB10020ADF8040000906946204600F028
:103DD000D9FA009808B3BDF8040000F0200100985B
:103DE00001F07CFF04460E48AFF3008009B0204686
:103DF000F0BD00240B4D26460B4F0AE0E87900F099
:103E00000401286801F06AFFA04200DD0446761C28
:103E1000083538888642F1DBE5E70324E3E7000054
:103E200000000000549000002E9000002DE9F04F9B
:103E300099B0054600684FF0000ACDE9030A4FF03B
:103E4000FF3BCDF838A0CDF818A0CDE907AB8946E7
:103E5000CDF840A0CDF83CA0096F0220FFF7B3FADF
:103E60000446002703A82146FFF7CDFA38B10228FF
:103E700003D1A06A0390E08D04900126D3E056465A
:103E80004A4605A903A8FFF703FB00287ED1059841
:103E9000FFF719FB00287AD0032802D00428EDD1BF
:103EA00063E0DDF814E09EF8000041060FD520F035
:103EB000400106919EF80D10109100210E910121F4
:103EC000CDF820B00F91DDE903120A9201919EF81E
:103ED0000D2010998A4245D100F01F00401E00EBD2
:103EE000800101EBC000297BC0B2091AC9B20D29BB
:103EF00000D90D21AB68724603EB000800200AE0F0
:103F0000544B18F800C01B5CD35C83EA0C0333F0FD
:103F100020030DD1401C8842F2D30D2904D24D4913
:103F2000085C1EF8000018B90798401CC0B2079042
:103F3000D9F87000FF2876D0DFF818C1DDF820200E
:103F4000704600210DF154081CF80130C35C23B108
:103F500008F80130491C0D29F6D34046FFF716FC3E
:103F6000089060E0002007905DE00F98A0B100206D
:103F70000F90DDE9060188420ED1059803F044FC5C
:103F80001099884208D101200E9001E05DE05EE0CA
:103F90000A990198C5E90401002007900698401C81
:103FA000C0B22876012807D1DDE90301C5E9040183
:103FB0000020CDF820B00E9011A8059903F0E5FB84
:103FC0002A7B904206D111A8A968FCF7ADFB08B97D
:103FD00001200E900520D9F87010FFF7F4F90400C5
:103FE00017D00898A061E169059803F0F2FBE06141
:103FF000287E2062019860620A98A0850398A062DA
:104000000498E08500212046D9F87020FFF7E3F9F5
:1040100001270E9828B105986860002019B0BDE806
:10402000F08F002006903E4305D00320D9F8701091
:10403000FFF7C9F904464A46002103A8FFF7FCF937
:1040400000283FF40EAF012801D00120E6E70C2044
:10405000E4E70000A87E05003EB50446086F0D4663
:10406000FF2808D0217BA06802F047FF02A92A6F31
:10407000FFF7B3F908B10C203EBD029890F820106C
:104080002176012910D0416A2161818D6161816AA7
:104090000091C08D01902A46211D6846FFF7F8F96E
:1040A0000028E9D001203EBD816A2161C18DEDE784
:1040B0002DE9FF4F4FF0000B83B00F4682465C4660
:1040C0005D465E46D94602A95046109AFFF7E0F9D0
:1040D000002871D13868401C38600298FFF7F3F966
:1040E00020B1032806D004285FD135E00C2007B0AA
:1040F000BDE8F08F02990878420608D54E7BDAE9D0
:10410000002320F040044FF00109CDE900234A7B51
:10411000B2421FD16D1C00F01F00401E00EB800258
:1041200002EBC000059AC0B20244DFF890C0EDB2C5
:104130009646002088461CF80030CB5C1354401C87
:104140000D28F7D398F8000040062ED500218EF8F0
:104150000D102AE0002528E0B9F1000F11D04FF032
:104160000009AC420DD1029803F04EFBB04208D1D9
:10417000DDE90001CAE90001601C4FF0010B8AF87B
:104180000800641CE4B2012C07D0BBF1000F0CD076
:104190000698029901600020A9E70299059803F0AA
:1041A000F4FA01208AF80800F2E700215046109A3C
:1041B000FFF742F9002886D0012098E7A87E050085
:1041C0002DE9F041002837D01C4DA0F10807E87B0D
:1041D00008B1032025E0DFF868800026D8F8004009
:1041E00001F064FF0120E87300200AE026462468FD
:1041F0002178890704D0E87301F064FF022010E001
:104200005CB1BC42F2D129686268891A2960D8F889
:104210000010A14209D1606009E0E87301F052FF8B
:104220000120BDE8F04103F039BB21683160E8733B
:10423000BDE8F04101F046BFBDE8F081D049001073
:10424000947C050070B5164C2078002827D100F02A
:1042500049F8FFF7BCF80022124811464025124BDE
:104260000BE0C67976070668316004D40679522ED1
:1042700001D106683560521C08301E88B242F0D366
:1042800000200A4A0A4B05E000EBC00502EB850559
:10429000401CA9801D88A842F6D30120207070BD63
:1042A00064000010549000002E9000009400001054
:1042B0002C90000010B504460068814301D0002016
:1042C00010BD000706D46068002142690846904787
:1042D000C00701D0012010BD206820F0060020603A
:1042E000EDE700000748082100F17402C160A0F565
:1042F000A0518160044941600449916000214161FD
:1043000001827047B41500103C9000005C900000E2
:1043100010B5024607480021074B06E004689442A6
:1043200001D1001D10BD491C08301C88A142F5D3E5
:10433000002010BD549000002E90000070B506467D
:1043400000240A4D0A4804E02979890706D024355B
:10435000641C01888C42F7DB002070BD24212846B4
:10436000FCF7B3FA06B13460284670BD9400001023
:104370002C900000004870470101DB074FF44020FB
:1043800070470000F0B51B4A1B4CE8B10378DBB165
:1043900023F0200643783A2B03D085783A2D03D0BA
:1043A00012E03023801C01E073B1C01C002507E03F
:1043B0001779B74202D157799F420AD06D1C083253
:1043C0002788BD42F4DBF0BD00230EE0D579ED0770
:1043D00009D013680B60D2795207F4D58A8842F06D
:1043E00020028A80F0BD5B1C08322588AB42EDDBE1
:1043F000F0BD0000549000002E9000000246002006
:1044000003E08B4205D0521C401C1378002BF8D1DE
:10441000581E704710B504468069B4F84410014432
:10442000204603F06DF8002829D0E06D00F5FE70FD
:1044300000F0A2FA1449884220D1E06D00F09CFA05
:10444000124988421AD1E06D00F5F27000F094FA3A
:104450000F49884212D1E06D00F5F47000F08CFA3B
:10446000216B81420AD3A066E06D00F5F67000F082
:1044700083FA022802D3216B814201D2002010BDB1
:10448000E066012010BD0000000055AA52526141B3
:104490007272416110B50446C06D4FF40071FCF7B3
:1044A000F2F91349E06D03F068F9E06D114900F588
:1044B000F27003F062F9E06DA16E00F5F47003F0A4
:1044C0005CF9E06DE16E00F5F67003F056F9E06D11
:1044D0004AF6552100F5FF7003F04BF9B4F844108B
:1044E000A06901442046BDE8104004F0A5BC0000CE
:1044F00052526141727241610020704710B5ADF5B2
:10450000447D0020ADF81001FFF752FC04461CB9B1
:104510001AA147A8FBF764FE012C04D11DA147A8EE
:10452000FBF75EFE23E047AA27A147A8FBF758FE4A
:104530000AE0BDF81001439903AB47AACDE900108A
:104540002CA147A8FBF74CFE03A936A0FFF748FBB8
:104550000028EED047AA35A147A8FBF741FEBDF8D9
:10456000100120B933A23AA147A8FBF739FE28462B
:10457000FCF7B4F847A80DF5447D10BD3C703E72C1
:1045800053442F4D4D4320496E6974206F6B3C2F6F
:10459000703E00003C703E53442F4D4D4320496E09
:1045A0006974204661696C65640A0D496E736572B1
:1045B00074204D656D6F72792063617264202E2EB8
:1045C0002E3C2F703E00000025733C703E20466953
:1045D0006C6573206578697374696E67206F6E20EF
:1045E0006D6963726F2053443C2F703E3C756C3E86
:1045F000000000002573203C6C693E203C623E2593
:104600002D3332733C2F623E20253564206279744D
:1046100065732C2049443A20253034643C2F6C6962
:104620003E0000004D3A2A2E2A00000025733C2F40
:10463000756C3E003C703E3C62723E4E6F20666977
:104640006C65732E2E2E3C2F623E3C2F703E000078
:1046500025730000012805D0022806D0032807D0C2
:104660000020704740F6FF7070474FF6FF707047AC
:104670006FF070407047000000210B48406D00F45F
:10468000806008B941F001010748406D00F4006006
:1046900008B941F002010448406D00F4805008B9A7
:1046A00041F00401C8B2704700C0092008480078F2
:1046B000012804D0022804D0032806D103E005A075
:1046C000704706A0FCE707A0FAE709A0F8E700009A
:1046D000090000104E4F2043414C4C0072696E6738
:1046E000696E670063616C6C20737461727473002F
:1046F0006E6F2073746174757300000010B5084C00
:1047000000224FEA006308464FEA4101584000D5B5
:1047100061405B00521C082AF5D3084610BD00001A
:10472000B71DC10410B5FFF725FE10F01F0100D121
:104730000121C0F303220C2A00D802B9012241EA68
:104740004211442202EB104000F07F0041EA402079
:1047500010BD027F012A04D0022A06D0032A0AD102
:1047600005E001EB4101890A02E0090A00E0C909FC
:10477000028C8A4201D8002070478269408C104424
:104780000844704770B5017809B1002405E00020A5
:1047900070BD401C2E2900D10446017831F0200262
:1047A000F7D19CB10E4E002505EB450006EB40010C
:1047B0002046FEF754F901280AD06D1C172DF3D3BB
:1047C00008A1201FFEF74BF9012807D00B2070BD70
:1047D00005EB450006EB4000407970BD132070BD2D
:1047E000727D05002E6A732E677A00002DE9F04174
:1047F0000E460546C46E5DE021462846FFF7A9FF38
:10480000804601462846FDF789FD002838D0287FDC
:10481000012804D0022823D0032830D127E004EB5C
:104820004400C0F34800B0F5FF7F04D8E96C0844A9
:1048300000F09DF80DE0E86C08F1010190F8FF71BF
:104840002846FDF76BFD00281AD0E86C007847EA8F
:104850000020E10701D000090FE0C0F30B000CE0DD
:10486000E96C200601EBD05000F081F805E0E96C1E
:10487000600601EBD05000F07FF818B119E000207D
:10488000BDE8F0810E480021222302880D4809E08E
:10489000878833EA070703D1D0F818C0A44508D0A9
:1048A0002430491C9142F3D33460641C0120EC662F
:1048B000E6E7641C286B801CA0429DD8EC66DEE70E
:1048C0002C900000940000100246491E06E0037878
:1048D0000D2B02D143780A2B02D0401C8842F6D31C
:1048E000904201D0884201D100207047801C70475F
:1048F0000246491E07E003783B2B0CD00D2B08D055
:104900000A2B06D0401C8842F5D3904201D0884241
:1049100005D1002070474378202BF6D0F2E7801CA9
:10492000704700000449054A4868504343F2390281
:1049300010444860704700001C4A00106D4EC6418C
:1049400010B5FFF71BFDC0F344011D2900D900215C
:10495000C0F305223B2A00D90022C0F3044041EAFB
:104960004211172800D9172041EAC02010BD417814
:10497000007840EA01207047C1788278090641EA50
:1049800002414278007841EA022108437047000062
:1049900010B50020084948604FF0007007490860D2
:1049A000C86107480749086006498C39C1F890007A
:1049B0001520FCF7C1FD10BD00C0024000C0092059
:1049C000000002048C800240392803D920F0200026
:1049D000373800E03038C0B270470120704700001F
:1049E0002DE9F041064600790D46172831D2DFE85F
:1049F00000F00C0C0E1018181A1C1E202230142463
:104A0000260C282A2A10122C2E003AA422E03CA4BC
:104A100020E03EA41EE044A41CE0FDF7DDFE0400FF
:104A200018D148A416E04AA414E04CA412E04EA405
:104A300010E050A40EE052A40CE055A40AE05CA4DF
:104A400008E061A406E063A404E066A402E06DA4AB
:104A500000E073A479A1284602F0E5FE0746E819B4
:104A6000FCF7AAFF0744E819224679A1FBF7B8FB37
:104A70000744E81910F8040C0D2800D1BF1E79A1D5
:104A8000204602F0F1FE01280AD100F029F90200C7
:104A900006D0E819801E75A1FBF7A2FB0744BF1ED4
:104AA0003079012806D00C2804D0122808D0132809
:104AB00006D00AE0E81971A102F0B5FE074410E043
:104AC000E81975A102F0AFFE0744306A48B1E81951
:104AD00078A102F0A8FEC4192919306A04F0B0F8D0
:104AE0000719E81977A102F09EFE384480B2BDE8AC
:104AF000F0810000746578742F68746D6C0000009C
:104B0000746578742F637373000000006170706CBB
:104B100069636174696F6E2F782D6A617661736362
:104B200072697074000000006170706C6963617478
:104B3000696F6E2F6A6176612D617263686976654F
:104B400000000000746578742F786D6C0000000020
:104B5000696D6167652F676966000000696D61674F
:104B6000652F6A7065670000696D6167652F626D0A
:104B700070000000696D6167652F706E670000004E
:104B8000696D6167652F782D69636F6E00000000A5
:104B90006170706C69636174696F6E2F782D7369D1
:104BA0006C7665726C696768742D617070000000C6
:104BB0006170706C69636174696F6E2F78616D6C80
:104BC0002B786D6C00000000746578742F706C6138
:104BD000696E0000696D6167652F7376672B786D6C
:104BE0006C0000006170706C69636174696F6E2F96
:104BF000782D7A69702D636F6D707265737365645B
:104C0000000000006170706C69636174696F6E2FE1
:104C1000782D6D73646F776E6C6F616400000000B7
:104C20006170706C69636174696F6E2F6F63746516
:104C3000742D73747265616D000000004854545007
:104C40002F312E3120323030204F4B0D0A00000022
:104C5000436F6E74656E742D547970653A202573B8
:104C60000D0A000074657874000000003B20636842
:104C700061727365743D25730D0A000043616368BA
:104C8000652D436F6E74726F6C3A206E6F2D636189
:104C90006368650D0A000000436F6E74656E742DC5
:104CA000456E636F64696E673A20677A69700D0AB2
:104CB000000000004C6173742D4D6F646966696576
:104CC000643A2000436F6E6E656374696F6E3A20BC
:104CD000636C6F73650D0A0D0A00000000207047B9
:104CE0000020704770B50E00054618D0012E18D070
:104CF000022E18D0032E18D023A229A1FBF770FA98
:104D000004462819FCF758FE0444002E16D0281932
:104D100026A102F088FD0444012E08D00EE02AA24C
:104D2000EBE72EA2E9E732A2E7E735A2E5E738484C
:104D300038A1C2682819FBF753FA044428193FA187
:104D400002F071FD0444B6B12819424902F06BFD2E
:104D50000444012E11D0022E11D0032E11D03E4951
:104D6000281902F060FD044428193C4902F05BFD5B
:104D7000204480B270BDA0B270BD3949F0E7394916
:104D8000EEE73949ECE70000353031204E6F7420F2
:104D9000496D706C656D656E7465640D0A00000088
:104DA000485454502F312E3120257300436F6E74B8
:104DB000656E742D747970653A20746578742F6807
:104DC000746D6C0D0A000000333034204E6F742077
:104DD0004D6F6469666965640D0A000034303120E6
:104DE000556E617574686F72697A65640D0A0000AA
:104DF00034303320466F7262696464656E0D0A0058
:104E0000343034204E6F7420466F756E640D0A0086
:104E1000D87C05005757572D41757468656E7469C5
:104E2000636174653A204261736963207265616CE5
:104E30006D3D20222573220D0A000000436F6E6E27
:104E4000656374696F6E3A20636C6F73650D0A0D4C
:104E50000A000000FE830500B38305002D840500D1
:104E6000BE8205001483050065830500704700209D
:104E700070470120704700207047002070470020D5
:104E8000704700002DE9F041012690460D4604468A
:104E900000271BE015494968A14201D82F7020E086
:104EA000252803D02B280DD120200BE014F8010F6A
:104EB000FFF78AFD0001287014F8010FFFF784FD49
:104EC00029780843641C05F8010B761C20782628F5
:104ED00003D0202801D94645DCD32F70207826281E
:104EE00002D00020BDE8F081601CFBE780000010CC
:104EF0002DE9F041104E01270025346817E02561A7
:104F0000656125836580656200220C4B1146052092
:104F1000A56202F05BFD60700121217028B1F1886B
:104F200002F098FD012800D1257034347F1C3079BF
:104F3000B842E4DABDE8F081D87C0500A14F00005A
:104F400070B50025044605708078000602D5206BF8
:104F5000FFF78CFF6088C00502D5E06AFFF786FF87
:104F60006088800504D5002211460320FDF7B2FABF
:104F70006088C00404D5002211460420FDF7AAFA77
:104F8000606A10B1FFF71CF96562A06A10B1FFF703
:104F900017F9A562256165612583658070BD0000F4
:104FA0002DE9F0479C46034600201546074601269A
:104FB0007C4A21E000EB800808EBC008146806EB8F
:104FC000880800F1010014F808409C4214D110F048
:104FD000FF0043D000EB8003126803EBC0036FF0C7
:104FE000330404EB8303D4186F4A062936D2DFE872
:104FF00001F0071814141A2014798442DADC2DE029
:10500000107061462846FFF7E8FC002827D020787A
:10501000002801D102202070BAE02046FFF790FF5F
:10502000B6E00320F7E7218B6069084460612783BD
:10503000AEE0BCF1060F02D2217809290ED1107022
:1050400005EB0C00506020784FF004094FF0090880
:10505000032806D008287AD0092877D00020BDE898
:10506000F08752A1284602F0FFFB01280DD051A184
:10507000284602F0F9FB012820D050A1284602F072
:10508000F3FB012833D00A20C5E76088AD1D40F44A
:1050900000606080284602F075F92846FFF772FB31
:1050A00020712946204600F01DF9207807286FD08E
:1050B0002946204600F086F8266155E06D1D2846F9
:1050C00002F060F906462846FFF75CFB207129468E
:1050D000204600F007F92078072859D016B130464D
:1050E000FDF7B0FA2946204600F06CF830E0AD1D1F
:1050F000AA46284602F046F95046FFF743FB2071C6
:105100005146204600F0EEF82078072840D067711D
:1051100051462046FDF792FB05004FF0080607D0E8
:105120006088400505D42946204600F043FA00B9BE
:1051300026705146204600F045F82078082827D0F0
:105140006088400504D584F800807DB11AE00EE047
:10515000A078C00708D07820FCF748FC60622046A1
:1051600002F07EF9052056E784F8009010E0294609
:105170002046FDF763FB05000AD06088400509D58D
:1051800084F800802946204600F056F90028DFD137
:10519000012064E72946204600F00CFA0028D7D108
:1051A0005DE70000D87C05008000001048454144C0
:1051B000202F0000474554202F000000504F53542B
:1051C000202F00002DE9F041044608780F46002604
:1051D00008B93CA701263E4D217A31B1A078C0071D
:1051E00003D13846FFF745FE38B13846FFF745FE94
:1051F00040B36188CA0704D008E0608840F0080026
:1052000058E02279012A18D00C2A16D041F08001EA
:10521000618020634FF000402061C8070BD1384601
:10522000FFF729FE30B1216A814203D1618841F044
:10523000200161802062BDE8F08140F2011211433B
:10524000618030E0384602F0F7FA0146002002E0C3
:105250008A4205D0401C55F83020002AF8D124E0BD
:105260001AB36188CA0704D12279012A15D00C2A01
:1052700013D005EBC00042682263C2684068101A70
:105280002061C807D7D11348226A03689A4202D125
:1052900041F0200161800068CCE741F0010105EB9D
:1052A000C00061804068E062C5E7012E04D06088DC
:1052B00040F004006080BEE7012007A720710026AF
:1052C0008AE70000696E6465782E68746D000000DE
:1052D000007C05008C900000696E6465782E636721
:1052E000690000002DE9F0470646408807250005C3
:1052F00000D50125DFF8F89099F8050008B925F0E8
:1053000001050027376237720C464FF0070865E049
:10531000E80705D037A12046FDF7B0FB012810D0E3
:10532000A80705D539A12046FDF7A8FB012836D0EE
:1053300068074DD53AA12046FDF7A0FB012840D0D3
:1053400046E01534214625F001050846FCF752FFDA
:105350003A21204602F07DFAB0F1000A1CDB04F885
:105360000A70D9F81010097869B12046D9F81010E0
:10537000FBF7D2FA38B904EB0A00401CD9F8141034
:10538000FBF7CAFA20B304EB0A01491C2046FFF7D9
:10539000A5FC08B130721BE086F8008018E01134DB
:1053A00025F0020500203118225C8A76215C2C2928
:1053B00004D00D2902D0401C0528F4DB3044877648
:1053C00006E0133425F00405204600F01DFB306292
:1053D000184841682046FFF777FA04460CB1002DC3
:1053E00096D1E80701D086F80080BDE8F08700007C
:1053F000D87C0500417574686F72697A6174696F51
:105400006E3A204261736963200000004163636566
:1054100070742D4C616E67756167653A20000000FD
:1054200049662D4D6F6469666965642D53696E63C5
:10543000653A2000800000102DE9F041534F0446EA
:105440000D46B888A0EB050080B278806179C90666
:105450005CD4E188884270D9421A2946A06A02F0D9
:10546000E1F800286AD0E188001D0D1865D04FF0E2
:10547000000847A12846FDF701FB01280FD115358B
:105480002E460AE048A1304602F0EEF901280DD080
:1054900030467968FFF72CFA0646002EF2D12846EE
:1054A0007968FFF711FA18B30546E2E706F10A0139
:1054B00022220E460A2306E09842F0D00D28EED0B4
:1054C0000028ECD0761C30789042F5D1002EE6D042
:1054D000701A82B286F800800120FCF7FBFF60881A
:1054E00040F400706080607940F020006071D6E781
:1054F00028780D2847D168780A2844D16079AD1CF6
:1055000040F0100060717868A8423CD96179C1F31D
:105510000110032837D17888E2684906A2EB00021F
:10552000E26021D4E188884209D9421A2946A06A5A
:1055300002F078F818B1801E0CE024E021E07868D1
:10554000E16859B1E28802F10803994206D2511A82
:10555000401A0838617941F040016171401B82B204
:1055600029460220FCF7B6FFE06804280BD200228F
:1055700011460320FCF7AEFF608820F400706080C5
:105580000120BDE8F0810020FBE700008000001052
:10559000436F6E74656E742D446973706F736974B4
:1055A000696F6E3A2000000066696C656E616D651A
:1055B0003D2200002DE9F0413A4D04460F46A888EF
:1055C0004FF00006A0EB070082B26A806088C10439
:1055D00060791CD5010706D4E16891420ED940F0EC
:1055E000080060716661606910446061E16888422A
:1055F00004D239460520FCF76DFF41E0394604200E
:10560000FCF768FF608820F48050608047E0000766
:1056100020D4E068904204D839460020FCF75AFFB5
:105620003EE0214980B2E0804A68B0EB920F02D997
:10563000C2F38F00E08080B2FCF7D8F9A0626A88DC
:10564000394601F079F868886061607940F00800B7
:10565000607115E0E088616981420AD2401A824295
:1056600000D21046A26A531802463946184601F085
:1056700063F86988606908446061E168884202D221
:105680000020BDE8F081E288A16A881868600020E7
:10569000FCF720FF6E60A06AFEF792FDA6626661CD
:1056A0000120EEE780000010947C05002DE9F84F02
:1056B0000025DFF828934FF00108AA46DFF820B351
:1056C00085E1C8480178491CC9B20170327991421C
:1056D00001D980F80080C3483168007800EB80026F
:1056E00002EBC0006FF0330202EB80000C18207850
:1056F0000B2810D2DFE800F0060F060F108EF7F629
:105700000F0FF600607802F087F90228F1D2F188D5
:10571000607802F09FF959E1A07810F02C0F0FD0BB
:105720000120FCF759FD0028F5D06088410701D51C
:10573000032539E1000701D5022535E1002533E1D4
:10574000208B0028E7D1D4E90401814213D360887B
:10575000C1070CD0010605D520F080006080206BC9
:10576000FFF784FB204601F07BFE0520E2E0607835
:1057700002F0CEF85FE00120FCF72EFD0028CAD031
:10578000607802F0E9F9064640F4004002F00EF9B4
:1057900000900028BFD06088002581070AD440F01F
:1057A0000200608020460099FFF71AF905466088DC
:1057B00000057BD40098A6EB050600EB0503A07856
:1057C000000613D5B2B21946206BFFF758FB074607
:1057D000B04217D2206BFFF749FB608820F08001B0
:1057E0006180C4F830A0C4F810800BE0D4E9041044
:1057F0000A1AB24200D93246216B0144184600F021
:105800009BFF87B22783781982B26078009902F0F3
:1058100075FEBDE0606A0078632810D004DC2328A0
:105820007ED02E2804D1A2E769287AD0742806D029
:10583000607802F045F82046FFF782FBA8E00120DF
:10584000FCF7CAFC00286DD0607802F085F90646A6
:1058500040F4004002F0AAF8070063D060880025F9
:10586000810717D440F00200608039462046FFF7D8
:10587000B7F805460EE0701B616A82B2891C781980
:1058800000F0B2F8054405F17800B04247D8204650
:1058900001F0E6FD606A00787428ECD063283AD104
:1058A00004F10C00DFF83CB1009000E086E0A07845
:1058B000C00601D4C4F80CA04A489BF80010001D93
:1058C0000170701B82B2606A7919801C009BFCF722
:1058D00077FDC0F30D010D440104618804D541F04A
:1058E000100103E058E044E021F010016180400421
:1058F00015D405F1F000B04211D8A078C006E0D46C
:10590000204601F0ADFD606A00786328CDD0606A62
:1059100000787428AFD0608840F04000608002E0DA
:1059200023E009E052E0AAB222836078394602F00F
:10593000E5FD062020702BE06088C0050CD5606A6C
:10594000801C04E0202905D00D2903D0401C0178DB
:105950000029F7D180F800A0616A2046891CFFF772
:1059600031FC0420C4F814A0E4E7204601F078FDDF
:1059700050E7208B50BB05202070A07810F0500F0E
:1059800002D1204601F06CFD608820F0400060806C
:1059900089F80E80BDE8F88F0120FCF71DFCA8B146
:1059A0002078072810D00425607802F0D5F801F09F
:1059B000FDFF29460090FFF795F905462A466078D5
:1059C000009902F09BFDD2E60125EDE76D1C9BF8E6
:1059D00004005E46A8423FF674AEDBE71C4A0010A6
:1059E000D87C05007C00001010B5002307E00C787F
:1059F0003CB15B1C04700A2C03D0401C491C934230
:105A0000F5D398B210BD00002DE9F04704460C30E4
:105A1000FAF760FCA0F2B275872D29D840F26D101C
:105A20006843691CDFF8848000EB9107002604F1CD
:105A3000080900BF08EB8601484601F015FF012860
:105A400002D0761C0C2EF5D30C2E11D017484C30FA
:105A5000012E30F81600074404D9A80710F10040C1
:105A600000D17F1C601DFAF735FC401E1E2802D9AC
:105A70000020BDE8F0873D1804F11100FAF72AFC78
:105A800005EB450100EBC10504F11400FAF722FC17
:105A9000C5EB051100EB810504F11700FAF71AFCBC
:105AA000C5EB051100EB8100E3E700000E7D05006A
:105AB0000248002101704180704700001C4900101D
:105AC000F8B5044630F8261BFCF771FC002858D1C5
:105AD00094F82600002704F11E0648B3082850D188
