:020000040000FA
:10000000B03E0010950100009D0100009F0100001E
:10001000A1010000A3010000A501000000000000F4
:10002000000000000000000000000000A701000028
:10003000A901000000000000AB010000AD010000BC
:10004000AF010000F511000025120000AF01000013
:10005000AF010000AF010000AF010000AF010000E0
:10006000AF010000AF010000AF010000AF010000D0
:10007000AF010000AF010000AF010000AF010000C0
:10008000AF010000AF010000AF010000AF010000B0
:10009000AF0100004D0E0000AF010000AF010000F5
:1000A000AF010000AF010000AF010000AF01000090
:1000B000990F0000AF010000AF010000AF01000088
:1000C000AF010000AF010000AF01000000F002F836
:1000D00000F051F80AA090E8000C82448344AAF191
:1000E0000107DA4501D100F046F8AFF2090EBAE88F
:1000F0000F0013F0010F18BFFB1A43F0010318475C
:10010000A0560500E0560500103A24BF78C878C113
:10011000FAD8520724BF30C830C144BF04680C600D
:10012000704700000023002400250026103A28BF55
:1001300078C1FBD8520728BF30C148BF0B60704759
:100140006E2900F0AF80702900F01681642900F05C
:10015000D780732900F0AB83002070471FB500F0F3
:1001600067FE04000020002106F086FA401C606053
:100170001FBD10B510BD00F036FE1146FFF7EEFFB3
:1001800004F032FB00F058FE03B4FFF7F2FF03BCAB
:1001900001F05DF80948804709480047FEE7FEE79F
:1001A000FEE7FEE7FEE7FEE7FEE7FEE7FEE7FEE727
:1001B00004480549054A064B70470000B510000089
:1001C000CD000000B0340010B03E0010B03600107A
:1001D000B0360010704700000FB41CB5084B06AADB
:1001E0007B4469460090059800F037FB04460020E8
:1001F000694600F045FB20461CBC5DF814FB00007E
:100200009D06000070B5044685690068C10601D5E9
:10021000302600E02026C00707D070BDD4E90121B8
:1002200030469047206A401C20626D1EF6D570BD96
:1002300070B5044685690078C00707D170BDD4E960
:10024000012120209047206A401C20626D1EF6D5B7
:1002500070BD70B50C460546012A05D02878800689
:1002600000D5EA69002302E0012305E05B1C93420C
:1002700002D2E05C0028F9D1A869E618C01AA8618A
:10028000286A184428622846FFF7BCFF04E0D5E935
:10029000012114F8010B9047B442F8D32846FFF728
:1002A000C7FF70BD11680268006A530501D5087068
:1002B0000AE0D30501D5088006E0130603D5C2176E
:1002C000C1E9000200E008600120704770B50646F1
:1002D00000F00CF80468054630460A22002100F0C0
:1002E0002FFB2C6070BD7047704770470048704707
:1002F000503400100048704750340010FFFFFFFFDB
:100300002DE9F0410646002410687529314616A5EE
:1003100010D0AFF30080002802DA404213A507E0B6
:1003200031688A0701D512A502E0490704D511A555
:10033000012401E0AFF3008000210A2206F1240726
:1003400009E0B0FBF2FCB0FBF2F302FB1C00303022
:1003500078541846491C0028F3D123462A463046D3
:10036000BDE8F04100F01ABA000000002D000000C6
:100370002B00000020000000F0B41368026808247D
:10038000C4610C4642F020020260110502D50E4AFB
:100390007A4402E00C4A7A440E32002100F124052E
:1003A00005E003F00F061B09965D6E54491C002BF7
:1003B000F7D105782D0703D5702C01D10123103218
:1003C000F0BC00F0EBB90000B35305002DE9F05F7D
:1003D000894604464FF0000ADFF874B1FB44C0F8C8
:1003E00020A02046E1688847002874D0252806D040
:1003F000D4E901219047206A401C2062F1E70026E1
:100400005F462046E16888472028054607DB312DF6
:1004100005D2781910F8200C08B10643F1E7B007AF
:1004200001D526F00406C4F81CA00027C4F818A0C3
:100430002A2D09D0284600F003FF38B304EB8708C3
:10044000303DC8F8185019E059F8041B204604EB59
:1004500087029161E1688847012F054618D1E0695C
:10046000002820DA26F020061DE0D8F8180000EB5E
:10047000800005EB40003038C8F818002046E168DD
:100480008847054600F0DCFE0028EED1012F0AD097
:100490002E2D08D12046E16888477F1C0546022F93
:1004A00046F02006C4DBA069002803DA404246F08B
:1004B0000106A061F00701D026F010066C2D0BD0CC
:1004C000682D09D04C2D39D06A2D35D0742D35D0FA
:1004D0007A2D33D016E038E0E1682F462046884771
:1004E000B842054609D16C2F26D04FF48060E168F0
:1004F000064320468847054604E06C2F1AD04FF487
:10050000807006430DB3A5F14100192802D82035AB
:1005100046F400664A462946204626604E46FFF7C6
:100520000FFE80B101280BD0F61D26F0070000F168
:10053000080956E74020E4E78020D8E70020D6E706
:1005400006F104094DE7284652E7206ABDE8F09F0E
:100550008F5305000FB400B58DB010A9099000911C
:100560000B904FF0FF300A9000200C900648784422
:100570000690064878446A4607900F9909A800F04B
:10058000AFF90DB05DF814FB8F030000A703000066
:100590002DE9FF5F1D464FF0FF3B91464FF00008ED
:1005A0005F46D5E90146A96901987F1C8847296AF9
:1005B000824688470028F6D1BAF1FF3F0CD0002EC2
:1005C00024F4C06419DD600614D5BAF12B0F09D0EC
:1005D000BAF12D0F0ED103E0584604B0BDE8F09FEC
:1005E00044F48064A96901987F1C8847761E82467E
:1005F000002E02DDBAF1300F03D0B9F1000F26D082
:1006000032E0A969761E01987F1C44F40074884783
:10061000002E824605DDBAF1780F06D0BAF1580FE8
:1006200003D0B9F1000F10D01EE0B9F1000F02D0D5
:10063000B9F1100F18D1A969761E01987F1C24F416
:10064000007488478246102002E0082000E00A205B
:10065000814609E0A96908FB0908761E01987F1CFC
:1006600044F4007488478246002E05DD4946504612
:1006700000F021F90028EDDAE96901988847A00522
:1006800002D46FF00100A8E7E00725D1600613D57A
:10069000600502D5C8F1000000E0404629680A1D47
:1006A0002A600968220501D5087015E0220701D5E6
:1006B000088011E008600FE02868011D29600068CB
:1006C000210502D580F8008006E0210702D5A0F8B8
:1006D000008001E0C0F8008038467EE710B5431C7A
:1006E00002E010F8011B71B18107FAD14FF001321D
:1006F00002C88C1A8C4314EAC211F9D0C01A0A0637
:1007000003D0C01E10BDC01A10BD0A0401D0801E47
:1007100010BD0902FCD0401E10BD00004FF0013C8E
:1007200050F8042B51F8043B9A4221D1A2EB0C0360
:10073000934313EACC1317D150F8042B51F8043B20
:100740009A4215D1A2EB0C03934313EACC130BD1BD
:1007500050F8042B51F8043B9A4209D1A2EB0C0348
:10076000934313EACC13DBD04FF00000704700BF77
:10077000D01A01BAB1FA81F101F0180122FA01F0A0
:10078000CB40C1F12001DBB2C0B2C01A2CFA01F398
:10079000D11A914311EAC311E6D170472DE9F04710
:1007A0000D4699469246044600F1240801688806E1
:1007B00004D5E06921F01001216000E00120A84289
:1007C00001DD471B00E00027A1697A1902EB09004F
:1007D000081AA0612078C00602D42046FFF712FD57
:1007E000002608E0D4E901211AF806009047206AA3
:1007F000401C761C20624E45F4DB2078C0060AD5EA
:100800002046FFF7FFFC06E0D4E9012130209047A5
:10081000206A401C2062381EA7F10107F4DC07E0C3
:10082000D4E9012118F805009047206A401C206295
:10083000281EA5F10105F3DC2046FFF7F9FC20781E
:10084000000602D50220BDE8F0870120FBE700008A
:1008500001694A1C02610878704700B58FB0CDE984
:1008600001310021059105497944CDE90310114674
:100870006846FFF7ABFD0FB000BD0000E5FFFFFFCE
:100880000A6802F8010B0A60704710B5436913B19A
:10089000AFF3008001E0FFF7DCFC012010BD12780F
:1008A00000F124010A7000224A700122EDE711686C
:1008B0004FF0FF32E9E73A2800D2303820F020022A
:1008C000412A01D3A2F13700884201D34FF0FF3013
:1008D00070470000026811441378016018467047A1
:1008E000D16005497944516104497944116200217C
:1008F0001161114600F06EB8EDFFFFFFD30000005C
:10090000426842B1016811F8013B23B1521EC0E9AF
:100910000012184670470121C160881E7047426866
:100920005AB1C368016843B983688B4205D0491E38
:10093000521CC0E90012002070474FF0FF30704792
:100940002DE9F04791460F4680460446002614F8EC
:10095000015B2DB100F02CF80068405DC007F6D1B6
:100960002B2D02D02D2D18D0641E4A463946204624
:1009700000F0EAF927B13968A14201D1C7F8008037
:100980004FF0020471050BD54042002803DDFFF74C
:10099000ADFC0460A007BDE8F08746F48066E4E79C
:1009A0000028F8DAFFF7A2FC04606FF00040F2E7DD
:1009B00010B500F03DFA001D10BD00BFBD5C000089
:1009C00010B50446FFF7F4FF0068005D00F0010079
:1009D00010BD00002DE9F34F4FF0000A0C465646BB
:1009E0008DB001200C9001F10C000B9062690B9806
:1009F00001219047051E2DD0252D2CD0216A884736
:100A0000C0B162690B9801219047216A884700288C
:100A1000F7D16269411E0B98904700E0761CA169EE
:100A20000D988847216A88470028F7D1E1690D9819
:100A30008847DBE7A1690D988847A842074601D19E
:100A4000761CD3E7E1690D9888477F1C02D1BAF183
:100A5000000F6FD06BE162690B9800273D46394665
:100A600090472A2804D162690B98012190470125FB
:100A7000DFF8D08262690B9801219047A0F1300124
:100A80000A290AD24745E5DC07EB870100EB41075D
:100A9000303FDFD445F01005ECE7E90601D46FF0F4
:100AA00000476C280AD04C2814D0682815D06A2832
:100AB0000DD074281CD07A281AD01DE062690B98DA
:100AC000012190476C2802D045F0040514E045F060
:100AD00002050DE045F020050AE062690B9801214E
:100AE0009047682802D045F0080505E045F4006508
:100AF00062690B9801219047C4E9015765283DD0F0
:100B000019DC58287AD00CDC452837D004DC25289D
:100B100026D041289ED131E046282FD0472899D1B0
:100B20002CE05B2877D0612828D063287CD064280B
:100B300023D15AE0F6E06F2848D008DC66281DD0A3
:100B400067281BD0692821D06E2816D127E070288D
:100B500045D0732868D0752847D078280DD14DE04E
:100B6000A1690D988847252805463FF469AFE169DA
:100B70000D9888476D1C3FF46AAFD8E00D99234665
:100B80006A466FF00100AFF30080C5E045F0400019
:100B900023464FF000026060A80736D43EE0E80725
:100BA0007FF447AF2068011D21600068290501D549
:100BB00006701BE7290701D5068017E7A90703D5AB
:100BC000F117C0E9006111E706600FE745F040004A
:100BD00023464FF008026060A80716D41EE040F6D6
:100BE0000E0125EA0100606016E045F04000234652
:100BF0004FF00A026060A80707D40FE045F04000FC
:100C00006060A80708D5234610220D996FF00100F7
:100C1000AFF3008080E007E0102223460D996FF0CB
:100C20000100FFF7B5FC77E04FF0000963284F465D
:100C3000C8464B46CB4602D05B2806D038E0E806D3
:100C400001D40120A060012732E06269D4F80CB021
:100C50000B98012190475E2807D14FF001094946C2
:100C60006269D4F80CB00B989047216939B900211A
:100C70000A4603AB43F82120491C0829FADBD8B304
:100C8000216949B308F1010862690B980121904775
:100C90005D28F4D1B9F1000F09D0002003A951F863
:100CA0002020D24341F82020401C0828F7DB03AB6A
:100CB0002069002820794FEA40701ED05B4622460A
:100CC000CDF80080CDE901970D9900286FF0010063
:100CD00020DAAFF300801FE0C11703AA00EBD16157
:100CE0004B1121F01F0102EB8302411A136801200E
:100CF000884003431360C7E719E00D992246002896
:100D00006FF00100009702DAAFF3008004E0AFF368
:100D1000008001E0AFF3008000280ADA401C06D111
:100D20000C9820B14FF0FF300FB0BDE8F08F504667
:100D3000FAE7E90701D10AF1010A064400200C9004
:100D400054E60000CCCCCC0C2DE9F05F8246154671
:100D50008B4600270AF10104B9460078302801D0FB
:100D60009DB113E014F8010B0127782803D058280F
:100D700001D045B10AE00DB1102D07D1002714F8BC
:100D8000010B102502E0082500E00A250026B046E8
:100D90000EE005FB080005FB06F101271FFA80F8AD
:100DA00001EB1046B6F5803F00D3B94614F8010BAD
:100DB0002946FFF780FD0028EBDABBF1000F05D0D4
:100DC0000FB1641E00E05446CBF80040B9F1000FAB
:100DD00006D0FFF78BFA02210160C81EBDE8F09F24
:100DE00048EA0640FAE77546FFF784FAAE46050082
:100DF0006946534620F00700854618B020B5FFF736
:100E0000D7F9BDE820404FF000064FF000074FF043
:100E100000084FF0000B21F00701AC46ACE8C00918
:100E2000ACE8C009ACE8C009ACE8C0098D46704721
:100E3000004870477034001010B50446AFF30080CE
:100E40002046BDE81040FFF79FB9000010B53D48AF
:100E5000006800F00100002873D03A48001D0068C7
:100E600000F08060B0F1806F3AD14FF0806035497A
:100E70000C310860344800783449097888420CD134
:100E800000F05EFA00203049087031A004F0CEF87E
:100E90004FF4FA6001F05AF953E02B4800782B49DF
:100EA0000978884201DA012000E000202B49097806
:100EB000032901D0012100E000210840002840D092
:100EC00021480078401C20490870022023490870FE
:100ED00023A004F0ABF841F2883001F037F930E09C
:100EE0001848001D006800F40030B0F5003F28D11C
:100EF0001A480078032824D14FF4003011490C31EE
:100F000008601C484069C0F383401B4908700846CC
:100F1000007848B901F07EFD18A004F087F841F28E
:100F2000883001F013F90CE01348027816A1194833
:100F3000FFF752F9174804F079F841F2883001F0D0
:100F400005F910BD80800240180000101900001043
:100F500063616C6C20737461727473001100001013
:100F600020202020202063616C6C20202020202065
:100F70000000000000C009201A00001043616C6CE2
:100F800020656E6465640000436F64653A202564E3
:100F900000000000880000102DE9F04741E02748DC
:100FA000C0F8008008F00800002839D02448046800
:100FB00031E0244850F8347007F0804000B923E055
:100FC000C7F30A00C51E40F2EA50854202D81E4807
:100FD000384000B118E045F0004000F055F90646F1
:100FE0008EB106F1040A194850F83490E81C8508BF
:100FF00004E059F8040B4AF8040B6D1E002DF8D1DB
:10100000304603F04BFE00BF601C0446042800D1AC
:1010100000240B4804600A48001F0068A042C8D1A1
:1010200000BF0648083800680449091F096800EA3B
:101030000108B8F1000FB2D1BDE8F087E80F005009
:101040001801005028C007200000901B08C007208E
:1010500000F01F02012191404209920002F1E022BA
:10106000C2F80011704700000F48006848F21001F4
:1010700008430D49C439C1F8C4000C48006940F068
:1010800002000A4908610846006940F0080008614A
:1010900083200749087309200870212088620020F6
:1010A0000871032008737047C4C00F4000C002409D
:1010B0000000014020204B4908604B48D0F8A001B7
:1010C00000F0200030B100BF4648006800F040004A
:1010D0000028F9D0032043499C3908600020424988
:1010E000C1F8A8013F490C31086001203D499439FD
:1010F00008603E483C4984310860AA203A498C3156
:101100000860552008600120374980310860AA2016
:1011100035498C31086055203349C1F88C0000BF37
:1011200031488830006800F080600028F8D0032043
:101130002D4980310860AA202B49C1F88C00552028
:1011400029498C31086000BF27488830006800F0CA
:101150004070B0F1407FF7D123202349A4310860CB
:10116000AA202149C1F8AC0055201F49AC310860C4
:1011700001201D49A0310860AA201B49AC3108603C
:1011800055201949C1F8AC0000BF1748A8300068C5
:1011900000F480600028F8D003201349A0310860D3
:1011A000AA201149C1F8AC0055200F49AC310860A4
:1011B00000BF0D48A830006800F44070B0F5407FD3
:1011C000F7D10B480849C431086000200649C1F82E
:1011D000C8010846006820F4704040F48040086070
:1011E00070470000A0C10F4000C00F406300050021
:1011F000DE87280410B501204FF040210860002050
:10120000044908604FF04021486003A003F00EFF3E
:1012100010BD00001400001054494D4552305F4984
:101220005251480001200449086004480068401CED
:10123000024908607047000000800040480000102C
:1012400030380A2801D2012070470020704700BFC3
:10125000FEE7000003498A68117801B902A206A1DD
:10126000FEF7BABF285405004B65696C2D455745FC
:10127000422F322E310000005365727665723A209B
:1012800025730D0A000000002DE9F0412A4D0646A5
:10129000E87B18B1B00F32D103202EE026F0404099
:1012A0000F3020F00307002E03DB02F0CBFF0120FC
:1012B000E873B00F4FF000080BD028686968384415
:1012C000884206D9E87BD0B185F80F8002F0C6FFCE
:1012D00015E01A48046820686268011B891AB9423F
:1012E00010D2044600680028F5D1E87B18B185F8D3
:1012F0000F8002F0B3FFB00F01D103F0E0FE002039
:10130000BDE8F081A2B1101921680160206000F1F0
:1013100008044760286838442860E87B18B185F8DD
:101320000F8002F09BFF2680A4F802802046E7E7AA
:1013300067600834EEE70000F4330010E453050062
:101340004FF000700249886103200249087070471D
:1013500000C00920110000102DE9F0418846074621
:1013600000F0D0F900284CD0274D00262C680BE067
:10137000207838B10422394604F10A0003F082FAD9
:10138000012833D00E34761C2879B042F0DC1F4996
:10139000384603F03FF9B0B91C48001D03F06CFB60
:1013A00000282ED000262C680AE0207830B10622D2
:1013B0004146201D03F066FA01281CD00E34761C2D
:1013C0002879B042F1DC012000F022F8002818D082
:1013D000C0EBC0006FF00D0202EB40002968042250
:1013E0000C18394604F10A0003F058FA0622414667
:1013F000201D03F053FA6879E070A879A0700320EB
:101400002070BDE8F0810000F453050004340010A2
:10141000F0B520490446012005460A6803E0137828
:101420004BB10E32401C0B798342F8DA00204E7922
:1014300001220B680CE015705470F0BD5F78012F2D
:1014400004D1DF78B74201D83E4610460E33521C15
:101450000F799742F2DA90B94E7901220B6809E0D0
:101460005F78022F04D1DF78B74201D83E4610469C
:101470000E33521C0F799742F2DA0028DDD009684A
:10148000C0EBC0026FF00D0303EB420211440D707C
:101490004C70F0BDF45305002DE9F041224C884614
:1014A0000646002725680BE0287838B1042231462B
:1014B00005F10A0003F0E6F9012832D00E357F1C51
:1014C0002079B842F0DC304600F01CF9002828D022
:1014D0001649304603F09EF8002822D00120FFF77D
:1014E00097FF05001DD0114A3146002000F072FA26
:1014F000C5EBC5016FF00D0202EB4101206804222B
:101500004518314605F10A0003F0C8F906224146A4
:10151000281D03F0C3F9E079E870A079A8700320D2
:101520002870BDE8F0810000F45305000434001079
:101530002DE9F04788468146274903F06BF848B902
:10154000254C201D03F098FA00283AD004F1040934
:101550004FF00008214D002702262C680BE0207870
:1015600038B10422494604F10A0003F08BF901283E
:1015700029D00E347F1C2879B842F0DC4046FFF7B2
:1015800047FF04001CD0144A4946002000F022FA0C
:10159000C4EBC4016FF00D0202EB41012868042284
:1015A0004418494604F10A0003F078F906220C4970
:1015B000201D03F073F9A879A070E879E070267017
:1015C0000020BDE8F08720780328F9D3607801284F
:1015D00000D166702046F4E704340010F45305008F
:1015E000445505002DE9F041374D3849287810B9A8
:1015F0000A7B920766D50122401C8A732870002757
:10160000334E5AE0C0EBC0006FF00D02316802EBC0
:1016100040000C182078D8B3E07820B1401E10F0BC
:10162000FF00E07046D1607878B10422294904F1C6
:101630000A0003F027F9012806D0607801280FD0AE
:1016400018B1022801D035E067702078032823D034
:10165000A07870B3401E10F0FF00A07029D01DE0EC
:101660002078032825D0A07818B3401E10F0FF0082
:10167000A0701ED002202070F079E07004F10A0002
:10168000054603F0F9F9134A121F10B129460BE081
:1016900010E00021201D08E0042020700D4AF079A0
:1016A000E070121F04F10A010020BDE8F04100F0D3
:1016B00091B927702878401C28703179C0B28142D6
:1016C000A0D22F70BDE8F0817000001040340010EF
:1016D000F45305000834001030B5084B00210A46C9
:1016E0000124186803E0027044700E30491C1D7913
:1016F0008D42F8DC0248426030BD0000F453050022
:101700007000001001787F2912D00E22B2EB111F59
:101710000ED0006860B1411C0AD006490A68896889
:1017200042400A4202D10143491C01D001207047C6
:101730000020704704340010064900204860064825
:10174000007A002804D0054A0020114600F042B972
:101750007047000070000010F453050004340010BE
:101760000349002248600146104600F033B90000EA
:10177000700000102DE9F0471F4E0546002700F1CC
:10178000080A00F10E094FF0090834681DE02078BE
:10179000012818D9E98898FA88F0B1EB104F0AD1DE
:1017A0000622211D504603F06DF860B1042249461F
:1017B00004F10A0011E0042204F10A01484603F092
:1017C00061F8012806D00E347F1C3079B842DEDC87
:1017D000BDE8F08706225146201D03F05FF86078CF
:1017E000022801D1012060707079E070B079A0709A
:1017F00003202070ECE70000F45305002DE9F041D0
:1018000001882A2952D3418A012212BAB1EB124F20
:101810004CD1818A4FF4006212BAB1EB124F45D11C
:10182000817D062942D1C17D04293FD1018B00F180
:10183000240709BA0A0C3D1FBE1D00F1120400F175
:101840001A080A2A32D2DFE802F031054A31313172
:101850003131396804223349304603F013F828B196
:1018600041462846FFF778FD022133E0042229464D
:10187000304603F007F8002818D02B4E00273468B4
:1018800018E02078032813D306224146201D02F0D9
:10189000F9FF68B10422294604F10A0002F0FEFFB4
:1018A0007079E070B079A07003202070BDE8F081FD
:1018B0000E347F1C3079B842E3DCF7E706221B497F
:1018C000384602F0DFFF0028F0D041462846FFF7F7
:1018D00043FD09212046BDE8F04100F02BB8304619
:1018E00003F0CAF858B104220E49304602F0CAFF8C
:1018F0000028DBD02046BDE8F041FFF73BBF0C4C91
:1019000061680029D2D00422284602F0BBFF0028DB
:10191000CCD0616800200870C8E706220349384629
:10192000E4E7000004340010F45305003D0000100B
:10193000700000102DE9F04105460E462A20FFF701
:10194000A3FC044605F1080106220F46001D02F023
:10195000A5FF06221D4904F10A0002F09FFF40F690
:10196000060000BA000C2082012000BA000C608240
:101970004FF4006000BA000CA0820620A07504207D
:10198000E07530BA000C20830622394604F12400A9
:1019900002F084FF042205F10E0104F12A0002F096
:1019A0007DFF0622094904F11A0002F077FF0422A4
:1019B000074904F1200002F071FF204603F0A6FA67
:1019C0002046BDE8F04101F031B800003D000010B4
:1019D000043400102DE9F041054616460F462A2032
:1019E000FFF752FC04460DB1294600E024490622C7
:1019F000201D02F053FF0622224904F10A0002F0E2
:101A00004DFF40F6060000BA000C2082012001BA0A
:101A1000090C6182C10209BA090CA1820621A175D3
:101A20000421E17505B1082000BA000C20830622CC
:101A3000144904F11A0002F031FF05B9124D0622D3
:101A4000294604F1240002F029FF0EB1314600E0DE
:101A50000D49042204F1200002F020FF0FB13946A5
:101A600000E00949042204F12A0002F017FF204691
:101A700003F04CFA2046BDE8F04100F0D7BF00006B
:101A8000445505003D0000104A550500054901EB8D
:101A900080000A684068824201D20120704700201D
:101AA00070470000F4330010F0B500231D461C46BB
:101AB00000268A5DA2F14107192F01D83A4618E0A5
:101AC000A2F16107192F01D8473A12E0A2F13007BD
:101AD000092F01D8121D0CE02B2A04D02F2A04D084
:101AE0003D2A04D013E03E2203E03F2201E0002221
:101AF0006D1C761C42EA8313042EDAD31A0C027092
:101B00001A0A42708370E41CC01C091D15B1641BC5
:101B100015B103E0392CCBD3002101702046F0BD74
:101B200000B5002200F09EFAC04380B200BA000C5B
:101B300000BD00002DE9F04704460D4691469A4647
:101B4000002720786C2802D072281DD112E0A078DE
:101B5000303801218140CEB20D480078304008B1C4
:101B60000CA000E00DA00246211D2846FEF734FB24
:101B7000074609E000F09CFF8046424608A128463F
:101B8000FEF72AFB074600BF00BFB8B2BDE8F087EA
:101B90002C000010636865636B6564000000000042
:101BA0003C72696E673E3C6F6E3E25733C2F6F6ED4
:101BB0003E3C2F72696E673E000000002DE9F04147
:101BC00086B006460D46174606B902E006B0BDE8E7
:101BD000F08100BF07B9F9E74FF000082820FFF7B0
:101BE00053FB044600BF28222146284601F084FA10
:101BF00005462078002847D030A1204603F045FA5A
:101C0000012802D100F006FF3EE02FA1204603F09C
:101C10003CFA012802D1FFF793FB35E02CA12046C6
:101C200003F033FA012802D102F024FB2CE02AA1B0
:101C3000204603F02AFA012803D1022002F01AFB01
:101C400022E027A1204603F020FA012803D1032037
:101C500002F010FB18E024A1204603F016FA012838
:101C600003D1042002F006FB0EE021A1204603F080
:101C70000CFA012808D020A1204603F006FA01281A
:101C800002D1204603F0D2F9002DACD1204600F05D
:101C9000CDFEB8F1030F0FD103A8FEF71FFD87B2E9
:101CA0003A46694603A802F0EDFD012804D1134924
:101CB000486903A903F0C8F900BF87E763616E6351
:101CC0006C6562746E000000616E73770000000046
:101CD00073657472656C310073657472656C320083
:101CE00073657472656C330073657472656C34006F
:101CF000727375623100000070706F002854050027
:101D000030B587B005462820FFF7BEFA044600BF6D
:101D100028222146284601F0EFF9054620780028C0
:101D200018D050A1204603F0B0F9012813D106A81D
:101D300005A904AB03AACDE900104BA1E01CFEF7F6
:101D400009FC4C49039808700498487005988870FD
:101D50000698C8707EE048A1204603F096F9012855
:101D600019D106A805A904AB03AACDE900103EA12C
:101D7000201DFEF7EFFB3F49039808720498C1B29B
:101D80003C4841720598C1B23A4881720698C1B286
:101D90003848C1725EE03AA1204603F076F9012886
:101DA00019D106A805A904AB03AACDE900102EA1FC
:101DB000E01CFEF7CFFB2F49039808710498C1B2CD
:101DC0002C4841710598C1B22A4881710698C1B268
:101DD0002848C1713EE02BA1204603F056F90128A6
:101DE00019D106A805A904AB03AACDE900101EA1CC
:101DF000601DFEF7AFFB1F49039808730498C1B23A
:101E00001C4841730598C1B21A4881730698C1B243
:101E10001848C1731EE01DA1204603F036F90128C1
:101E200018D106A805A904AB03AACDE900100EA19C
:101E3000601DFEF78FFB0F49039808740498C1B228
:101E40000C4841740598C1B20A4881740698C1B221
:101E50000848C174002D7FF45BAF204600F0E6FD1A
:101E600007B030BD69703D0025642E25642E2564C1
:101E70002E256400043400106D736B3D00000000DB
:101E800067773D0070646E733D00000073646E738D
:101E90003D000000002070472DE9F04705464079DD
:101EA000072802D30846BDE8F0870C007BD0DFF896
:101EB00044814FF0000950A1204600F0FBF80128B2
:101EC00006D051A1204600F0F5F801286DD075E04C
:101ED0000E3452A1204603F0D8F801280AD058A1A8
:101EE000204603F0D2F8012808D0D8F8047026461E
:101EF0007F1E3FE0687940F001005EE027464646DD
:101F000004E054A103F0C1F8012806D038467168F6
:101F100000F04AFE0700F4D150E03420FFF7B4F996
:101F2000342207F10901A86201F098FEAA6A801E16
:101F300002F80090E880687940F0010068716888D4
:101F400040F480602DE030783B2808D00D2835D053
:101F50000A2833D02F2806D02B2804D009E0707827
:101F600020282BD005E03EA1701C03F08EF801283C
:101F700003D0761CBE42E6D320E04020FFF784F970
:101F800040222146A86201F069FEAA6A801E02F87A
:101F90000090E880687940F001006871688840F43A
:101FA000805068800AE023E0FFE710342046FEF707
:101FB0008DF9E860687940F0020068712046D8F831
:101FC000041000F0DDFD08B1044674E720780D2808
:101FD0000ED160780A280BD1687940F0040068714E
:101FE000072805D1D8F80410A01C81423FF65BAF4A
:101FF000002058E764000010436F6E74656E742D06
:10200000547970653A200000436F6E74656E742DCC
:102010004C656E6774683A20000000006170706C57
:1020200069636174696F6E2F782D7777772D666F8E
:10203000726D2D75726C656E636F6465640000006F
:102040006D756C7469706172742F666F726D2D643A
:1020500061746100626F756E646172793D000000A9
:10206000786D6C0005E000BF30F8023B891E5BBA5A
:102070001A440129F8DC11B1007802EB002290B279
:1020800000EB124000EB104080B27047084400EBB8
:10209000104080B2704708E00378534013F0DF0F20
:1020A00001D000207047401C491C0A78002AF3D157
:1020B0000120704710B5DF220BE004785C40144229
:1020C00001D0002010BDFF222D2B00D1DF22401CAB
:1020D000491C0B78002BF0D1012010BD00B5034640
:1020E0004FF080601849C8634000C8631809400574
:1020F00088634FF0007088634FF4967000F0A4FB83
:102100004FF000701049C8634CF2503000F09CFB57
:10211000180940050C49C8631807C00988634FF0C7
:10212000007088634FF4967000F08EFB4FF00070E3
:102130000549C8634CF2503000F086FB1807C0090F
:102140000149C86300BD000000C00920014600200D
:1021500006E0002000E0401C41F288329042FAD3B1
:102160000A1EA1F10101F4D17047704710B51A4859
:10217000006810B11948006800B910BD04220021A0
:10218000174802F0ABFB58B91448006800F0004053
:1021900030B9002011490860012012490860ECE7BD
:1021A0000E480068401E0D49086040B900F01EF856
:1021B00001200C4908600C4808490860DDE7074821
:1021C0000068B0F1004F05D10020044908600120EB
:1021D0000449086000BFD0E7200000102400001070
:1021E000043400101C0000101E00008070B50C4C60
:1021F0002078002812D0607803F0E0FF607804F0C7
:10220000D7F800256570042204F10801054802F0A2
:1022100045FB2570BDE87040FFF78EBA70BD000029
:10222000503300100434001070B5104A0321002010
:1022300003F0EAFF0E4C00256070A0B1442104F0C9
:1022400011F804220B4904F1080002F027FB0422D4
:102250000021084802F03DFB0320207000F0BEFC86
:10226000A061658070BD257070BD000079220000FE
:1022700050330010043400102DE9F05F794F884688
:102280000A9E79781C46814274D13878062871D02C
:10229000432A6FD1EC2E6DD3207802286AD1607862
:1022A000012867D1A07806287ED1201D02F0E4FB2A
:1022B000B969884278D106226B4904F11C0002F00A
:1022C000E1FA002871D004F1EC0002F0D5FB674977
:1022D000884269D139780025891E04F1100B07F175
:1022E000080A4FF00609082943D2DFE801F086B951
:1022F0000444B986860404220021381D02F0E9FA5C
:10230000F0210FE0605C342806D0352806D1601833
:102310008078022848D101E060188578204602F0D4
:102320008FFC0146B142EDD3E80706D06C21204670
:1023300002F086FC0146EC28F9D3A80706D52C212B
:10234000204602F07DFC01466C28F9D3381D02F0CE
:1023500093FB002829D005203870042259465046A6
:1023600002F09CFA032000F067F90420B8830820EB
:10237000F88375E018E041460422B846381D02F0A3
:1023800081FA30B104225946504602F07BFA002807
:102390000BD0F0271AE0E05D342810D0352810D19A
:1023A000E0198078052802D00020BDE8F09F88F869
:1023B0000090042251462E4802F070FA01E0E01924
:1023C00085783946204602F0CBFB0746B742E2D378
:1023D000E80706D06C21204602F0C2FB0146EC283B
:1023E000F9D3A80706D52C21204602F0B9FB0146F7
:1023F0006C28F9D3FFF7A0F932E0F0211CE0605C13
:10240000342813D0352813D160188078062802D0DC
:10241000052808D00CE0032038700422002114485D
:1024200002F057FAC0E787F8009001E0601885785D
:10243000204602F061FB0146B142E0D3E80706D036
:102440006C21204602F058FB0146EC28F9D3A8077E
:1024500006D52C21204602F04FFB01466C28F9D30B
:102460000120A2E7503300103D0000106353826347
:10247000043400102DE9F0476C4F3A78002A44D01C
:1024800004250826012A24D069480024032A007B59
:102490002FD0800739D578883B46401C7880988BB0
:1024A0004FF6FF7C401E81B2D88B921E0CEA40088A
:1024B000D3F814C003254FF0050A4FF00A09ACF118
:1024C000010C082A21D2DFE802F022202977808936
:1024D000A03C02203870BD83FE83564802F0CCFA3F
:1024E00028B1524804225349083002F0D7F903209A
:1024F0001DE0C00709D03D707C8000F06FFBB86123
:10250000012000F099F8BD83FE83BDE8F087B98310
:102510000029FAD1202854D93D70F6E7B983002963
:10252000F3D1202807D8B883A7F81E800120BDE882
:10253000F04700F081B83C735820B8830920387008
:10254000E3E7B98339B97820B88300F047FBB86175
:10255000012000F071F8354E387B0C3660B1F88BF5
:102560000028D2D0401E0004000CF88315D030465D
:10257000BDE8F047FFF7F4B8FD8300F02FFB010C36
:10258000A9203873FE207873080AB873F97301D054
:10259000FF28ECD1801CB873E9E7042231462548B6
:1025A00002F07CF92348FF21017241728472C472E7
:1025B000BDE8F047FFF7C0B8B9830029A5D12028AE
:1025C000AAD2B883A7F81E8091E7C7F814C038696B
:1025D000401E386199D10720387007E0C7F814C051
:1025E000BCF1000F08D0B98300298ED1032000F080
:1025F00023F8A7F81C9088E73E70032000F01CF831
:10260000A7F81CA0A7F81E907FE7B983002984D102
:10261000401E0004A7F81CA0000CF883D4D13D7024
:10262000BDE8F0470422034802F053B950330010CC
:1026300040340010043400102DE9F84FDFF8EC812D
:102640000746012698F80000062801D0072800D187
:10265000002677484FF496750068007808B14FF46B
:10266000AA75284603F0C0FD04462A46002102F060
:1026700030F94FF0010A84F800A084F801A0062088
:10268000A0700020E0704546201DD8F8181002F018
:1026900002FA698804F1080002F0F9F916B14FF462
:1026A000004100E0002104F10A0002F0F0F928786E
:1026B000A846062803D0072801D0082805D10422FF
:1026C0005C4904F10C0002F0E9F806225A4904F1D1
:1026D0001C0002F0E3F8594904F1EC0002F0DBF9C8
:1026E000352004F8F00F3D2184F801A0A770E170B7
:1026F0000721217184F805A0F03C06224E4904F11F
:10270000F60002F0CBF8FC25012F31D0032F01D0C9
:10271000042F74D198F800004FF0040907280FD057
:1027200008280DD0322084F8FC00404984F8FD9040
:1027300004F1FE000422083102F0B0F84FF4817574
:1027400098F80000012811D002280FD007280DD0DA
:1027500008280BD0362060556019042280F80190BB
:10276000801C08F1040102F099F8AD1D042F46D039
:1027700033484FF00C0B04F805B06719C168B81C5A
:1027800002F062FCC1B27970294FAD1C0D4438686B
:10279000007868B13C20605504EB050909F102009E
:1027A000396802F051FCC1B2AD1C89F801100D442A
:1027B000372060556019032180F802A0C1700621FE
:1027C000017180F805B0332181713A21C1713B213B
:1027D00001723A790721D20706D005F10701214499
:1027E00043228A704FF008013A79920704D56B189A
:1027F0002A222344491C9A700D444170AD1CFF20CD
:1028000060556D1C4FF49670854200D20546A8B203
:1028100000900EB10B4901E008F1040198F80100A5
:102820002346432203F0DCFDBDE8F88F503300104F
:1028300000540500043400103D000010635382630F
:10284000E453050040540500002100E0491C81428A
:10285000FCDD704706220249001D02F013B800009B
:102860003D00001010B501F0EDFC01F06FFB0748D2
:1028700000210170417001F0F1FCFEF72DFF0621EF
:10288000034802F016F80349486010BD7033001089
:102890003D0000104034001070B5AFF30080FEF72B
:1028A000A1FE2E490A784878824255D02C4B01224D
:1028B0009A7301EB8002401C546800F01F004870BE
:1028C000208A00BA000CB0F5006F07D0A0F50060B8
:1028D00006383CD12046FEF791FF38E00021204623
:1028E00001F0F6FC38B3201D054606221D4901F013
:1028F000C9FF68B9284602F0BFF81B49B1EB102F99
:1029000006D004F10A0104F11E00FEF7C5FD05E042
:1029100004F10A0104F11E00FEF71EFDE07E01280D
:1029200006D0022808D006280ED011280FD107E0C3
:10293000204601F0FFF90AE0204601F0DBFA06E04C
:10294000204603F0D9FC02E0204602F029FF204691
:10295000BDE8704000F06AB870BD00007033001030
:1029600040340010445505005E00010070B5044677
:1029700000F12205234E04222349284601F082FF5C
:1029800050BB04F11E0002F077F8002838D02A78F6
:102990000E2300200121B3EB121F0CD121716071B5
:1029A0005E20A071687800F07F00E071A878207246
:1029B000E878607215E015482968026880684A4026
:1029C000024202D10843401C06D001212846FEF7EE
:1029D000AFFD002814D0061D06223146201D01F04F
:1029E0005DFF06220A4904F10A0001F057FF4FF487
:1029F000006000BA000C2082204602F087FA012015
:102A000070BD00004455050040540500043400101A
:102A10003D0000104FF000700249C86101200249DA
:102A20000870704700C00920110000102DE9F04126
:102A3000002837D01C4DA0F10807E87B08B103201F
:102A400025E0DFF868800026D8F8004001F0FAFBA6
:102A50000120E87300200AE02646246821788907CF
:102A600004D0E87301F0FAFB022010E05CB1BC4234
:102A7000F2D129686268891A2960D8F80010A14249
:102A800009D1606009E0E87301F0E8FB0120BDE8CE
:102A9000F04102F014BB21683160E873BDE8F041F9
:102AA00001F0DCBBBDE8F081F4330010E453050015
:102AB00008480078012804D0022804D0032806D151
:102AC00003E005A0704706A0FCE707A0FAE700BFF7
:102AD00000BFF7E7110000106E6F2063616C6C009F
:102AE00072696E67696E6700616E73776572640004
:102AF00010B5084C00224FEA006308464FEA410136
:102B0000584000D561405B00521C082AF5D30846A6
:102B100010BD0000B71DC10470B5017809B10024D3
:102B200005E0002070BD401C2E2900D1044601782C
:102B300031F02002F7D19CB10E4E002505EB450087
:102B400006EB40012046FFF7A6FA01280AD06D1CCB
:102B5000172DF3D308A1201FFFF79DFA012807D0F6
:102B60000B2070BD05EB450006EB4000407970BDC1
:102B7000132070BDB25405002E6A732E677A0000D0
:102B80000246491E06E003780D2B02D143780A2B3A
:102B900002D0401C8842F6D3904201D0884201D135
:102BA00000207047801C70470246491E07E00378EA
:102BB0003B2B0CD00D2B08D00A2B06D0401C884292
:102BC000F5D3904201D0884205D100207047437868
:102BD000202BF6D0F2E7801C704700000449054A1C
:102BE0004868504343F2390210444860704700007F
:102BF000403400106D4EC64110B500200B494860AE
:102C00004FF000700A490860C8610A480A49086024
:102C10004FF4003008498C39C1F890004002064951
:102C2000083108601520FEF713FA10BD00C00240FD
:102C300000C00920000002048C800240392803D91A
:102C400020F02000373800E03038C0B27047012053
:102C5000704700002DE9F041064600790D4617281F
:102C600031D2DFE800F00C0C0E1018181A1C1E20D0
:102C700022301424260C282A2A10122C2E003AA4C2
:102C800022E03CA420E03EA41EE044A41CE0FFF7A8
:102C900001F9040018D148A416E04AA414E04CA499
:102CA00012E04EA410E050A40EE052A40CE055A493
:102CB0000AE05CA408E061A406E063A404E066A462
:102CC00002E06DA400E073A479A1284602F0BCF9EB
:102CD0000746E819FEF7BEFA0744E819224679A12B
:102CE000FDF77AFA0744E81910F8040C0D2800D112
:102CF000BF1E79A1204602F0C8F901280AD100F0D0
:102D000029F9020006D0E819801E75A1FDF764FAC2
:102D10000744BF1E3079012806D00C2804D01228A1
:102D200008D0132806D00AE0E81971A102F08CF946
:102D3000074410E0E81975A102F086F90744306AEB
:102D400048B1E81978A102F07FF9C4192919306A4D
:102D500003F0DEFB0719E81977A102F075F9384492
:102D600080B2BDE8F0810000746578742F68746DDE
:102D70006C000000746578742F63737300000000AA
:102D80006170706C69636174696F6E2F782D6A6110
:102D90007661736372697074000000006170706C1A
:102DA00069636174696F6E2F6A6176612D61726308
:102DB0006869766500000000746578742F786D6C22
:102DC00000000000696D6167652F6769660000009B
:102DD000696D6167652F6A7065670000696D61677D
:102DE000652F626D70000000696D6167652F706E00
:102DF00067000000696D6167652F782D69636F6EEC
:102E0000000000006170706C69636174696F6E2FFF
:102E1000782D73696C7665726C696768742D617062
:102E2000700000006170706C69636174696F6E2F6F
:102E300078616D6C2B786D6C00000000746578749F
:102E40002F706C61696E0000696D6167652F737624
:102E5000672B786D6C0000006170706C6963617441
:102E6000696F6E2F782D7A69702D636F6D70726542
:102E700073736564000000006170706C6963617455
:102E8000696F6E2F782D6D73646F776E6C6F6164F0
:102E9000000000006170706C69636174696F6E2F6F
:102EA0006F637465742D73747265616D000000004A
:102EB000485454502F312E3120323030204F4B0D9A
:102EC0000A000000436F6E74656E742D547970654E
:102ED0003A2025730D0A0000746578740000000024
:102EE0003B20636861727365743D25730D0A0000B1
:102EF00043616368652D436F6E74726F6C3A206E28
:102F00006F2D63616368650D0A000000436F6E7486
:102F1000656E742D456E636F64696E673A20677ADB
:102F200069700D0A000000004C6173742D4D6F64D0
:102F300069666965643A2000436F6E6E6563746903
:102F40006F6E3A20636C6F73650D0A0D0A00000006
:102F5000002070470020704770B50E00054618D05D
:102F6000012E18D0022E18D0032E18D023A229A18A
:102F7000FDF732F904462819FEF76CF90444002ED7
:102F800016D0281926A102F05FF80444012E08D0BB
:102F90000EE02AA2EBE72EA2E9E732A2E7E735A28C
:102FA000E5E7384838A1C2682819FDF715F9044447
:102FB00028193FA102F048F80444B6B12819424943
:102FC00002F042F80444012E11D0022E11D0032E3B
:102FD00011D03E49281902F037F8044428193C4919
:102FE00002F032F8204480B270BDA0B270BD394901
:102FF000F0E73949EEE73949ECE700003530312098
:103000004E6F7420496D706C656D656E7465640DEE
:103010000A000000485454502F312E3120257300EF
:10302000436F6E74656E742D747970653A207465A3
:1030300078742F68746D6C0D0A00000033303420F2
:103040004E6F74204D6F6469666965640D0A0000F7
:1030500034303120556E617574686F72697A6564B9
:103060000D0A000034303320466F72626964646573
:103070006E0D0A00343034204E6F7420466F756E2A
:10308000640D0A00285405005757572D4175746880
:10309000656E7469636174653A2042617369632087
:1030A0007265616C6D3D20222573220D0A000000BF
:1030B000436F6E6E656374696F6E3A20636C6F73F5
:1030C000650D0A0D0A0000009056050045560500E2
:1030D000BF56050050550500A6550500F7550500DB
:1030E0007047002070470120704700207047002083
:1030F00070470020704700002DE9F04101269046FE
:103100000D46044600271BE015494968A14201D835
:103110002F7020E0252803D02B280DD120200BE094
:1031200014F8010FFFF78AFD0001287014F8010F51
:10313000FFF784FD29780843641C05F8010B761C11
:103140002078262803D0202801D94645DCD32F70CB
:103150002078262802D00020BDE8F081601CFBE723
:10316000640000102DE9F041104E0127002534685D
:1031700017E02561656125836580656200220C4B3F
:1031800011460520A56202F033F86070012121701C
:1031900028B1F18802F070F8012800D1257034348C
:1031A0007F1C3079B842E4DABDE8F081285405008C
:1031B0001532000070B500250446057080780006C1
:1031C00002D5206BFFF78CFF6088C00502D5E06A4E
:1031D000FFF786FF6088800504D500221146032092
:1031E000FEF7ECFC6088C00404D5002211460420E0
:1031F000FEF7E4FC606A10B1FFF718FC6562A06A94
:1032000010B1FFF713FCA562256165612583658018
:1032100070BD00002DE9F0479C460346002015468E
:10322000074601267C4A21E000EB800808EBC00835
:10323000146806EB880800F1010014F808409C426D
:1032400014D110F0FF0043D000EB8003126803EBB1
:10325000C0036FF0330404EB8303D4186F4A0629CC
:1032600036D2DFE801F0071814141A2014798442CA
:10327000DADC2DE0107061462846FFF7E8FC0028F4
:1032800027D02078002801D102202070BAE0204603
:10329000FFF790FFB6E00320F7E7218B6069084451
:1032A00060612783AEE0BCF1060F02D221780929C4
:1032B0000ED1107005EB0C00506020784FF004091F
:1032C0004FF00908032806D008287AD0092877D0BB
:1032D0000020BDE8F08752A1284601F0D6FE012863
:1032E0000DD051A1284601F0D0FE012820D050A1D8
:1032F000284601F0CAFE012833D00A20C5E76088BD
:10330000AD1D40F400606080284601F0B3FC284603
:10331000FFF702FC20712946204600F01DF92078B5
:1033200007286FD02946204600F086F8266155E030
:103330006D1D284601F09EFC06462846FFF7ECFB73
:1033400020712946204600F007F92078072859D037
:1033500016B13046FEF7D4FC2946204600F06CF842
:1033600030E0AD1DAA46284601F084FC5046FFF728
:10337000D3FB20715146204600F0EEF82078072854
:1033800040D0677151462046FEF786FD05004FF09C
:10339000080607D06088400505D42946204600F07D
:1033A00043FA00B926705146204600F045F82078CF
:1033B000082827D06088400504D584F800807DB1B6
:1033C0001AE00EE0A078C00708D07820FDF75CFF77
:1033D0006062204601F0BCFC052056E784F80090AE
:1033E00010E029462046FEF757FD05000AD0608808
:1033F000400509D584F800802946204600F056F99A
:103400000028DFD1012064E72946204600F00CFAAD
:103410000028D7D15DE700002854050064000010A3
:1034200048454144202F0000474554202F0000000C
:10343000504F5354202F00002DE9F04104460878E6
:103440000F46002608B93CA701263E4D217A31B12E
:10345000A078C00703D13846FFF745FE38B138469B
:10346000FFF745FE40B36188CA0704D008E06088D2
:1034700040F0080058E02279012A18D00C2A16D012
:1034800041F08001618020634FF000402061C80757
:103490000BD13846FFF729FE30B1216A814203D1B2
:1034A000618841F0200161802062BDE8F08140F236
:1034B00001121143618030E0384601F0CEFD014633
:1034C000002002E08A4205D0401C55F83020002A36
:1034D000F8D124E01AB36188CA0704D12279012AFD
:1034E00015D00C2A13D005EBC00042682263C268D5
:1034F0004068101A2061C807D7D11348226A0368B0
:103500009A4202D141F0200161800068CCE741F08D
:10351000010105EBC00061804068E062C5E7012E53
:1035200004D0608840F004006080BEE7012007A757
:10353000207100268AE70000696E6465782E687441
:103540006D00000050530500A4660000696E6465BC
:10355000782E6367690000002DE9F0470646408831
:103560000725000500D50125DFF8F89099F805003A
:1035700008B925F001050027376237720C464FF075
:10358000070865E0E80705D037A12046FEF792FD61
:10359000012810D0A80705D539A12046FEF78AFDDD
:1035A000012836D068074DD53AA12046FEF782FDA6
:1035B000012840D046E01534214625F00105084693
:1035C000FEF772FA3A21204601F054FDB0F1000AEC
:1035D0001CDB04F80A70D9F81010097869B120468C
:1035E000D9F81010FDF79AF838B904EB0A00401C1E
:1035F000D9F81410FDF792F820B304EB0A01491C26
:103600002046FFF7A5FC08B130721BE086F8008069
:1036100018E0113425F0020500203118225C8A766A
:10362000215C2C2904D00D2902D0401C0528F4DB94
:103630003044877606E0133425F00405204600F078
:103640001DFB3062184841682046FFF799FA04468E
:103650000CB1002D96D1E80701D086F80080BDE8B6
:10366000F087000028540500417574686F72697A0C
:103670006174696F6E3A20426173696320000000D3
:103680004163636570742D4C616E67756167653A5F
:103690002000000049662D4D6F6469666965642DE0
:1036A00053696E63653A2000640000102DE9F04113
:1036B000534F04460D46B888A0EB050080B27880D1
:1036C0006179C9065CD4E188884270D9421A2946DA
:1036D000A06A01F0F5FB00286AD0E188001D0D18F2
:1036E00065D04FF0000847A12846FEF7E3FC01280B
:1036F0000FD115352E460AE048A1304601F0C5FC31
:1037000001280DD030467968FFF74EFA0646002EA4
:10371000F2D128467968FFF733FA18B30546E2E795
:1037200006F10A0122220E460A2306E09842F0D052
:103730000D28EED00028ECD0761C30789042F5D1E0
:10374000002EE6D0701A82B286F800800120FEF7C3
:1037500035FA608840F400706080607940F02000A5
:103760006071D6E728780D2847D168780A2844D1B7
:103770006079AD1C40F0100060717868A8423CD9B7
:103780006179C1F30110032837D17888E2684906CE
:10379000A2EB0002E26021D4E188884209D9421AF2
:1037A0002946A06A01F08CFB18B1801E0CE024E0D1
:1037B00021E07868E16859B1E28802F10803994292
:1037C00006D2511A401A0838617941F040016171FE
:1037D000401B82B229460220FEF7F0F9E068042877
:1037E0000BD2002211460320FEF7E8F9608820F48E
:1037F000007060800120BDE8F0810020FBE7000040
:1038000064000010436F6E74656E742D44697370AC
:103810006F736974696F6E3A2000000066696C65A9
:103820006E616D653D2200002DE9F0413A4D044680
:103830000F46A8884FF00006A0EB070082B26A800E
:103840006088C10460791CD5010706D4E168914203
:103850000ED940F0080060716661606910446061D3
:10386000E168884204D239460520FEF7A7F941E015
:1038700039460420FEF7A2F9608820F48050608069
:1038800047E0000720D4E068904204D83946002081
:10389000FEF794F93EE0214980B2E0804A68B0EB3F
:1038A000920F02D9C2F38F00E08080B2FDF7ECFCEA
:1038B000A0626A88394600F0F1FF6888606160792B
:1038C00040F00800607115E0E088616981420AD229
:1038D000401A824200D21046A26A53180246394664
:1038E000184600F0DBFF6988606908446061E168A0
:1038F000884202D20020BDE8F081E288A16A8818DF
:1039000068600020FEF75AF96E60A06AFFF78EF833
:10391000A66266610120EEE764000010E453050032
:103920002DE9F84F0025DFF828934FF00108AA464B
:10393000DFF820B385E1C8480178491CC9B201709D
:103940003279914201D980F80080C348316800780B
:1039500000EB800202EBC0006FF0330202EB80004C
:103960000C1820780B2810D2DFE800F0060F060FA5
:10397000108EF7F60F0FF600607801F05FFC02285A
:10398000F1D2F188607801F077FC59E1A07810F06D
:103990002C0F0FD00120FEF779F80028F5D06088B1
:1039A000410701D5032539E1000701D5022535E19D
:1039B000002533E1208B0028E7D1D4E904018142BE
:1039C00013D36088C1070CD0010605D520F0800014
:1039D0006080206BFFF784FB204601F0B9F90520D9
:1039E000E2E0607801F0A6FB5FE00120FEF74EF810
:1039F0000028CAD0607801F0C1FC064640F40040BF
:103A000001F0E6FB00900028BFD060880025810708
:103A10000AD440F00200608020460099FFF71AF9AE
:103A20000546608800057BD40098A6EB050600EBF0
:103A30000503A078000613D5B2B21946206BFFF734
:103A400058FB0746B04217D2206BFFF749FB60884E
:103A500020F080016180C4F830A0C4F810800BE031
:103A6000D4E904100A1AB24200D93246216B01444B
:103A7000184600F013FF87B22783781982B2607866
:103A8000009902F04DF9BDE0606A0078632810D01B
:103A900004DC23287ED02E2804D1A2E769287AD01E
:103AA000742806D0607801F01DFB2046FFF782FBEA
:103AB000A8E00120FDF7EAFF00286DD0607801F052
:103AC0005DFC064640F4004001F082FB070063D035
:103AD00060880025810717D440F0020060803946D5
:103AE0002046FFF7B7F805460EE0701B616A82B208
:103AF000891C781900F0B2F8054405F17800B0424D
:103B000047D8204601F024F9606A00787428ECD088
:103B100063283AD104F10C00DFF83CB1009000E0DA
:103B200086E0A078C00601D4C4F80CA04A489BF8EF
:103B30000010001D0170701B82B2606A7919801C30
:103B4000009BFDF7F7FFC0F30D010D4401046188F0
:103B500004D541F0100103E058E044E021F01001E9
:103B60006180400415D405F1F000B04211D8A0786E
:103B7000C006E0D4204601F0EBF8606A00786328C4
:103B8000CDD0606A00787428AFD0608840F04000E3
:103B9000608002E023E009E052E0AAB2228360786C
:103BA000394602F0BDF8062020702BE06088C00581
:103BB0000CD5606A801C04E0202905D00D2903D0B3
:103BC000401C01780029F7D180F800A0616A2046E6
:103BD000891CFFF731FC0420C4F814A0E4E7204658
:103BE00001F0B6F850E7208B50BB05202070A0787C
:103BF00010F0500F02D1204601F0AAF8608820F0A2
:103C00004000608089F80E80BDE8F88F0120FDF744
:103C10003DFFA8B12078072810D00425607801F076
:103C2000ADFB01F0D5FA29460090FFF795F905465E
:103C30002A466078009902F073F8D2E60125EDE794
:103C40006D1C9BF804005E46A8423FF674AEDBE7AD
:103C500040340010285405006000001010B5002307
:103C600007E00C783CB15B1C04700A2C03D0401CAC
:103C7000491C9342F5D398B210BD00002DE9F047DE
:103C800004460C30FCF722FBA0F2B275872D29D830
:103C900040F26D106843691CDFF8848000EB9107E7
:103CA000002604F1080900BF08EB8601484601F030
:103CB000ECF9012802D0761C0C2EF5D30C2E11D075
:103CC00017484C30012E30F81600074404D9A807D5
:103CD00010F1004000D17F1C601DFCF7F7FA401E78
:103CE0001E2802D90020BDE8F0873D1804F111001C
:103CF000FCF7ECFA05EB450100EBC10504F11400FB
:103D0000FCF7E4FAC5EB051100EB810504F117009F
:103D1000FCF7DCFAC5EB051100EB8100E3E70000DE
:103D20004E54050002480021017041807047000098
:103D300040330010F8B5044630F8261BFDF7F0FEBE
:103D4000002858D194F82600002704F11E0648B335
:103D5000082850D194F82700F0BB20882230FDF7C6
:103D600093FA80F8267080F8277007852288054628
:103D7000121F04F12A012A3000F090FD218805F17C
:103D80002600FDF7CDFE2885208828808020009021
:103D9000002301223146284600F094FB2846FEF716
:103DA00045FE26E0154D2878C00723D094F827005B
:103DB00090B9042205F10C01304600F063FD0028A3
:103DC00018D0618DA88809BAB0EB114F13D12088A3
:103DD0001A2810D1612000E00DE0211811F8331CE1
:103DE000814208D1401C7328F5DBA9680020884770
:103DF0002F700120F8BD0020F8BD000040330010F6
:103E000010B50E4C2078C00710D0608828B10C493E
:103E1000097BC9070AD0401E07E0607838B1401E10
:103E2000607000F011F80748007A608010BDA1684A
:103E3000012088470020207010BD00004033001092
:103E400040340010E453050038B51A4DE888401C92
:103E5000E8803C20FDF718FA082180F826100021A0
:103E600080F8271004460185A88800BA010C6185F6
:103E7000E88800BA010CA1856120211801F8330CF3
:103E8000401C7328F9DB1A2104F12600FDF748FED7
:103E900020851A20208080200649009000230122DE
:103EA0000C31204600F00EFB05462046FEF7BEFD15
:103EB000284638BD403300100B4910B50838096852
:103EC000002203E00A460968002909D08142F9D19D
:103ED00006484C6803681B1B036012B10868106039
:103EE00010BD0020486010BDE4530500F4330010FD
:103EF000002070477047000010B500F00FF806482A
:103F000000680A21B0FBF1F0401E4FF0E02148614B
:103F10000520086110BD00002800001010B500F059
:103F200031F9084801213C220160002101814181D1
:103F3000017305493C3800F0B1FCBDE8104000F0C9
:103F400051B9000040340010A85305002DE9FC4190
:103F500000208149087036200090694668467F4AF3
:103F60001268904725210198B1EB106F02D1012012
:103F7000794908707A48006840F080407849C4392F
:103F8000C1F8C4007748784988607348007830B930
:103F90000846C06820F00F00401DC8600BE0724862
:103FA000006920F47020704908617048006C40F48A
:103FB00080706E4908644FF44F404FF0A041086094
:103FC00078206B490860642400E0641E002CFCD15A
:103FD00002204FF0A0410860302048604001486155
:103FE00043F20F7008611220C86040016049086008
:103FF0004FF400604FF0A0418861642400E0641E2B
:10400000002CFCD100204FF0A04188614FF400410A
:1040100002F0EEFA00BF08E0002000F053FE054673
:1040200005F4084000B903E0641CB4F5801FF3D325
:1040300000BF022000F046FE0746032000F042FECB
:1040400006464FF6F070304040EA07404949884242
:1040500013D14FF44051002002F0CAFA002408E0C6
:10406000012000F02FFE054605F0200000B103E01E
:10407000641CB4F5801FF3D300BF002408E01020B7
:1040800000F020FE054605F0010000B103E0641CCD
:10409000B4F5803FF3D300BF05F0040080B14FF0CA
:1040A000A040406840F001004FF0A0414860304817
:1040B000006840F48060C1F800011520886003E0CA
:1040C00012204FF0A041886005F0020020B10020CE
:1040D0004FF0A041886104E04FF480704FF0A041A0
:1040E0008861254800792449497940EA01204FF048
:1040F000A0410864204880781F49C97840EA01201F
:104100004FF0A04148641C4800781B49497840EAB8
:1041100001204FF0A041886400F09EFE01F0E6FF10
:104120002620164908608820154908604FF6FF7060
:10413000091D08604FF0A040D0F8000140F00300D6
:104140004FF0A041C1F800010846006840F00100AE
:104150000860BDE8FC81000004C0072000C0072003
:10416000C4C00F400501155000C0024000C0092026
:1041700000010050905C00203D0000100002005043
:10418000E40F005010B500F05DF815491348002207
:10419000D1E9004323441B1F23601A606260026060
:1041A00082818273C2734A68B2F5803F06D202EB05
:1041B0004202920842604A68520805E0A2F5804235
:1041C00042604A68A2F500428260C97A11F0060F87
:1041D00002D041684908816010BD0000F43300102E
:1041E000E453050010B5FEF73DFB00F037F9FFF78B
:1041F00099FD02F02BF801F033F8FEF7B3FF00F061
:1042000077FBBDE81040FEF70FB80000002000214A
:1042100013E040004FF48072094B9A6500BF00BF65
:1042200000BF4FF48072064BDA651A46526D02F4F5
:1042300000720AB140F00100491C1029E9D370470F
:1042400000C009201C2001218140034A430942F893
:10425000231000BF7047000080E100E01C20012116
:1042600081404209920002F1E022C2F8001100BF31
:104270007047000010B50446042C01DC012C09DA5B
:104280000CA000F0D3FE40F6B830FDF75FFF02F05F
:1042900035F90DE0601E0D4951F8200008B90121E3
:1042A00000E00021601E094A42F8201000F066FE7E
:1042B00010BD0000696E76616C69642072656C6186
:1042C00079206E756D626572000000007800001044
:1042D0002DE9F0410446808A0E4600BA050C21887B
:1042E00005F10E00814245D3A07C0421B1EB101FE3
:1042F00040D1032E32D0264906EB860001EB800127
:1043000004F122000422074600F0BCFA30BB04226C
:104310002049384600F0B6FA00BB5EBB39780E2261
:104320003846B2EB111F04D1FFF7E2FD012810D08F
:1043300009E017483968026880684A40024202D1A1
:104340000843401C05D02046FEF784FA90B1E07E79
:1043500002E0E07E022801D011280BD104F1120006
:1043600000F01AF830B9208B43F6FF7109BA10EA51
:10437000114F02D00020BDE8F081A07C0007800E24
:1043800000F10E016180281A20800120F3E700006F
:10439000043400104054050001780907890EFDF728
:1043A000BFBB00002DE9F04107460078274D7F286C
:1043B00009D0274CE07AC00718D02649384600F0CB
:1043C00029F9A0BB0CE003202871042222493846B9
:1043D00000F058FA08B9042028711F48BDE8F081A0
:1043E0000422FF21384600F079FA00BBE07A810709
:1043F000184800F11400804604D50146384600F004
:1044000009F9D0B9E07A134E400706F1280604D521
:104410003146384600F0FEF898B9E17A0A20884320
:104420000BD0C9B2142088430BD0C80703D000209A
:1044300028710848D2E7880703D501202871404633
:10444000CCE7022028713046C8E700005000001079
:10445000E4530500043400104454050001490020D1
:104460000860704750000010144810B50468002C14
:1044700022D0134A01219173616801600321204613
:10448000FFF726FF012812D1E07E012804D006287C
:104490000AD011280BD103E02046FFF74BFC06E0C1
:1044A000204601F029FF02E0204601F079F920467C
:1044B000BDE81040FEF7BABA10BD00005000001071
:1044C000403400102DE9F0470F4604464F480126BE
:1044D00000250899012A09D0022A03D0062A01D012
:1044E000112A7DD18673022A02D004E0867302E08D
:1044F0006088262840D04520A07420881430208071
:1045000080B200BA000CA082E374414B188890FA84
:1045100080FC4FEA1C4C401CA4F816C01880062AE8
:1045200039D000202083A176E276A5833846FFF7B4
:1045300039FF0146042204F11E0000F0AFF9042205
:10454000394604F1220000F0A9F904F11200814675
:10455000FFF722FFA0832088DFF8B4800E3080B2FE
:1045600008F10408208098F8041005294CD2DFE8EF
:1045700001F0171C222749004620A074942084F8DB
:104580002600042084F8270084F8285084F8295055
:1045900020881830B3E74FF4804000BA000CC1E720
:1045A0002046BDE8F047FEF7E1B92046BDE8F047F8
:1045B000212100F09FBA2046BDE8F04700F042BD3F
:1045C000274640F08040FCF75FFE04000DD03A889B
:1045D00049460E3A04F1120000F060F9656000E00F
:1045E00012E0D8F8000018B105E02846BDE8F087D1
:1045F000C8F8004004E0416809B10846FBE74460A0
:104600003046F3E70120F1E70020EFE740340010E7
:104610004C0000100268086889685040084201D0C8
:10462000002070470120704700B54FF07E604B4975
:104630000862C8634FF08060C8634000C8634FF4ED
:10464000C00088634FF0007088634FF49670FEF7E7
:10465000FBF84FF000704149C8634CF25030FEF750
:10466000F3F84FF4C0003D49C86388634FF0007011
:1046700088634FF49670FEF7E7F84FF00070374903
:10468000C8634CF25030FEF7DFF84FF4C0003349F6
:10469000C8634FF480008863C00088634FF496704D
:1046A000FEF7D2F84FF000702C49C8634CF250303E
:1046B000FEF7CAF84FF480002849C8634FF4C000E1
:1046C00088634FF0007088634FF49670FEF7BCF873
:1046D0004FF000702149C8634CF25030FEF7B4F837
:1046E0004FF4C0001D49C86388634FF000708863B1
:1046F0004FF49670FEF7A8F84FF000701749C863A2
:104700004CF25030FEF7A0F84FF4C0001349C863D4
:104710004FF480008863C00088634FF49670FEF702
:1047200093F84FF000700D49C8634CF25030FEF71B
:104730008BF84FF480000949C8632820FDF7CEFCB0
:104740000120FDF7CBFC0C20FDF7C8FC0620FDF78F
:10475000C5FC8020FDF7C2FC00BD000000C00920A0
:1047600000B503464FF08060184988634000C86375
:104770001809400588634FF0007088634FF4967005
:10478000FEF762F84FF000701049C8634CF25030E9
:10479000FEF75AF8180940050C49C8631807C00904
:1047A00088634FF0007088634FF49670FEF74CF802
:1047B0004FF000700549C8634CF25030FEF744F8E2
:1047C0001807C0090149C86300BD000000C00920E6
:1047D00030B50446002503E0605DFFF7C1FF6D1CA6
:1047E000605D0028F8D130BDFFF786FBFCF73CFC8C
:1047F000FFF71AFFFEF700FA01F0A6FC3220074986
:10480000086001F07BFE01F02FFC05E001F03EFCAA
:1048100000F006F8FDF7AAFCF8E7000024000010FD
:1048200010B5154C0020617B012905D02073A073C1
:1048300000F002FBA07B10BD60730121A173217BFE
:104840000E4B41F00101217362895B7A1A4492B2E6
:104850006281B2F57A7FEBD360812089401C208190
:1048600041F00200207306496068484343F2390171
:1048700008446060DCE7000040340010E4530500A9
:104880006D4EC64110B505E0835C8C5CA34201D03F
:10489000002010BD521EF7D5012010BD10B50346F3
:1048A000002002E00C5C1C54401C9042FADB1046D5
:1048B00010BD70B504460D464FF0FF3006E022787B
:1048C00001461046FEF714F9641C6D1E002DF6D14A
:1048D00070BD521E01D48154FBE7704704E0835C35
:1048E0008B4201D000207047521EF8D5012070473E
:1048F00010B5074A0321002001F086FC0549002875
:10490000087004D0BDE81040892101F0ABBC10BD97
:10491000194900006C0000102DE9FF4FDFF848B185
:1049200081B01C469BF800100E9F81427ED1892ADF
:104930007CD1322F7AD360884FF4887109BAB0EBFA
:10494000114F73D1A1884FF0010A9AFA8AF0B1EBA6
:10495000104F6BD1E088002631BAB0EB114F65D112
:10496000208931BAB0EB114F7BD1608931BAB0EBFD
:10497000114F76D12820FCF787FC054604F10D0184
:10498000B0460A7813014A78A3F58263413A1A4384
:1049900000F80820891C08F10108B8F1100FF0D3C5
:1049A00000EB080111F8011C09B1202902D1B8F16E
:1049B0000108F5D12D4805F80860B146C16805F138
:1049C0001400064600F06EFB08F10102314628464D
:1049D000FFF758FF01283DD107F10C081FFA88F0B6
:1049E00001F002FC0646208830804FF4054000BAF2
:1049F000000C708099FA89F0000CB0809AFA8AF065
:104A0000000CF08099FA89F0000C308199FA89F055
:104A1000000C7081277B04F10C01BA1D06F10C001B
:104A2000FFF73CFF1237F019082200E019E01049A7
:104A3000FFF734FF0837F01904220E49FFF72EFF65
:104A40001FFA88F00090334689229BF800000299F3
:104A500001F0C6FC2846FDF7E9FF012005B0BDE8DE
:104A6000F08F0020FAE700006C000010E45305000E
:104A70003C5505000434001001784278090641EAEB
:104A800002418278C07841EA0221084370470A0A4D
:104A90000270417070470A0E02700A0C42700A0AD6
:104AA0008270C17070470000C1F1200290401BE08D
:104AB00000F0004222B14FF400720D4B9A6503E002
:104AC0004FF400720A4BDA6500BF00BF00BF4FF41D
:104AD0008072074B9A6500BF00BF00BF4FF4807221
:104AE000034BDA654000491E0029E1D17047000000
:104AF00000C009200020704770B50D46174E415D7B
:104B000044193A2917D003DC11B333291CD104E02E
:104B10003B2915D0FF2917D11CE0A01CFFF7ACFFE3
:104B200000EB80010A22B1FBF2F1C0EBC000C0082B
:104B3000C6E9041008E0A01CFFF79EFF306103E007
:104B4000A01CFFF799FF70616078AD1C284470BD10
:104B5000681C70BD4FF0FF3070BD00005033001076
:104B60002DE9F0410646405C8D1C74182A2855D06A
:104B700009DC032819D003DCB8B3012853D110E0B5
:104B8000062850D118E02C4F3B2834D004DC3328C1
:104B90001DD03A2847D129E0432831D0FF2842D1FF
:104BA00047E0A11C0422254803E02448A11C04225C
:104BB000001FFFF773FE36E0204804220021083072
:104BC000FFF787FE1D48A11C6278001DF1E7A01CBD
:104BD000FFF752FF00EB80010A22B1FBF2F1C0EBBC
:104BE000C000C008C7E904101DE020E0A01CFFF7CA
:104BF00043FF386117E0A01CFFF73EFF786112E029
:104C0000607800213044475D41556278A11C432003
:104C1000FDF7ABFA60783044475504E06278A11C98
:104C20002A20FDF7A2FA60782844BDE8F081481CEC
:104C3000FBE74FF0FF30F8E7503300100C34001062
:104C400070B50C46015D71B10519362902D0FF29F6
:104C500005D10AE0A91C04220548FFF71FFE687869
:104C6000A41C204470BD601C70BD4FF0FF3070BDAF
:104C70005433001008490022496805E003783F2BAF
:104C800007D0202B02D0401C8142F7D802700020B0
:104C9000704700F8012B704764000010084A30B4D8
:104CA00013785478591C01F01F018C4205D002EB97
:104CB00083035860117030BC704730BCFFF7FCB8FC
:104CC0007033001070B506461F48007801281ED1C9
:104CD0001E48006C40F400701C49086420214FF00D
:104CE000FF30FFF7E1FE04210620FFF7DDFE05217E
:104CF0000120FFF7D9FE05213046FFF7D5FE01F070
:104D0000DFF9FFF783FA054601F0DAF91AE046F415
:104D100080704FF0A041886201204862002407E0C3
:104D20004FF0A040406B00F0010000B903E0641CAC
:104D3000B4F5A02FF4D300BF00204FF0A04148628B
:104D40000846056BA8B270BD04C0072000C009204A
:104D500070B5044640884FF02E06C0054FF00005A0
:104D600023D57822616AE06AFEF7BBF90028606A01
:104D70000ED000782328F4D020790C2814D1606A52
:104D8000FBF7ACFC616A421E8A5C0A2A04D00AE086
:104D90000670606A4570EFE70246921E401E8A5C0C
:104DA0000D2A00D1401E0D5470BDE06A626A017880
:104DB000012905D0022905D0032905D0167070BD40
:104DC000742102E0632100E069211170626A2021F0
:104DD00051700221401C0278042A05D3636A401CEA
:104DE0005A54491C7729F6D3626A5554E06270BD63
:104DF0002DE9F0410F4DEA7B22B1BDE8F0410320DF
:104E000000F05DB90180A0F108040F31606821F065
:104E10000306B0420CD9871BFFF714FA66602868B6
:104E2000C01B28600020E873BDE8F041FFF716BA08
:104E3000BDE8F081F433001010B5FDF72DFDFFF74C
:104E400013FBFEF7DDFF00F0DBFAFEF769FDBDE8BE
:104E50001040FDF70FBB0000002013E000EB400105
:104E6000124A02EB4121124A42F83010114902EB7A
:104E7000C00251600021104A42F8301002EBC0021B
:104E80005160401C0428E9D309490C4A11600A49C1
:104E90004FF0A042C2F80C110321084A08321160F9
:104EA00000214FF0A042C2F8181170476CC00720D3
:104EB00008C00720FF05008028C007200801005017
:104EC00070B515460C4606001CD019E060782D28F8
:104ED00014D120782D2803D0A0782D2808D00DE0FB
:104EE0003146A01C00F0D1F8012807D1204670BD42
:104EF0003146E01C00F0C9F8012805D0A41CAD1E05
:104F0000012DE3D8002070BD601C70BD70B50F4D41
:104F10002968031D0E4D55F831400588ED1CAA1077
:104F200002E020CB20C4521E002AFAD105886D1E53
:104F300045F04045064E06EBC10675604D1C2946FE
:104F4000032D00D10021014D296070BD28010050C2
:104F500048C0072010B5002400BF0AE004F1850115
:104F6000C8B2FDF7BBF80449085DFFF7F9FB601C08
:104F7000C4B20B2CF2DB10BD0100001010B50024F0
:104F800000BF1AE004F1C601C8B2FDF7A7F80C484B
:104F900050F82400012803D15E20FFF7E1FB0AE06E
:104FA000074850F8240018B95F20FFF7D9FB02E04A
:104FB0004520FFF7D5FB601CC4B2042CE2DB10BD1A
:104FC0007800001010B58020FDF788F80C480078B4
:104FD00020B1012806D002280CD107E02D20FFF7D0
:104FE000BFFB0BE05220FFF7BBFB07E04F20FFF7B2
:104FF000B7FB03E04520FFF7B3FB00BF00BF10BDC8
:105000000000001010B5002400BF0AE004F1CB013D
:10501000C8B2FDF763F80449085DFFF7A1FB601C07
:10502000C4B2052CF2DB10BD0C00001010B5044614
:105030000120FDF753F88020FDF750F82046FFF7D8
:10504000C7FB10BD00207047024600200B5C1354C4
:10505000002B01D0401CF9E7704710B50446002032
:1050600004E001461046FDF743FD641C2278002A47
:10507000F7D110BD0246002002E08B4204D0401C54
:10508000135C002BF9D1581E704706E00378934259
:1050900001D000207047401C491C0A78002AF5D135
:1050A000012070470A78A2F16103192B00D8203A39
:1050B0000270002A02D0491C401CF3E77047072801
:1050C0000CD2DFE800F00405060708090A0005E035
:1050D00004E003E002E001E000E000BF00BF00BF29
:1050E000FEE7000010B508B311490A7982421DD3CA
:1050F000096800EB00106FF0430202EB80000C180F
:1051000020780B2812D2DFE800F0110A060C060CFA
:105110000C0606060C000121204600F00FFF0120BE
:1051200010BD0421204600F065FEF4E7002010BD0C
:105130001054050070B578B3244D2979814242D3CB
:1051400000EB00106FF04302296802EB80000C189E
:1051500020780B2837D2DFE800F0362E0E060E2E10
:105160002E2E2E2E1000A069401CA06125E02046A6
:1051700000F0E4FE1FE00121F9E7A078C1071AD191
:10518000D4E90612914218D040F00100A070400707
:1051900003D5501CE0610EE015E01121204600F01F
:1051A00029FE208EB4F92E1000EBE10060826879B0
:1051B000A075E0892082012070BD1121204600F0F9
:1051C00019FE0521D3E7002070BD00001054050032
:1051D00010B5010403D520F4004040F08040363083
:1051E000FCF752F8002802D0362141803A3010BD39
:1051F0002DE9F0411F2803D813B10F4E1AB103E077
:105200000020BDE8F081F2890125346803E02778A9
:1052100047B144346D1C3779AF42F8DA0520FFF707
:105220004EFFEDE7012626706070E1702364E28195
:10523000E8B26075E5E700001054050018B10749B1
:105240000A79824201D2FF207047096800EB001002
:105250006FF0430202EB8000085C704710540500B9
:1052600004480179006801EB01118A000021FFF771
:1052700030BB00001054050010B5B0B1184B1A79BE
:10528000824212D389B100EB00106FF043041A6818
:1052900004EB800010444278D20706D00278012A3D
:1052A00005D0022A03D0092A01D0002010BD022215
:1052B000027000228270028141814FF40671818167
:1052C000598AC18682858261C26182638275C263A6
:1052D00004220021001DFFF7FCFA012010BD000090
:1052E000105405002DE9F041234E054601F10C084C
:1052F0003779346817E02078022812D92988208964
:1053000009BAB0EB114F0CD16988608909BAB0EBCA
:10531000114F06D104224146201DFFF7B3FA0128A0
:1053200008D044347F1E002FE5DC687B10F0150F99
:105330001FD102E02046BDE8F081800719D5307901
:10534000346814E0217802290FD16A88618912BA81
:10535000B1EB124F09D104224146201DFFF79EFAFE
:10536000288800BA000C2081E4E74434401E00285D
:10537000E8DC0020DFE7000010540500074900EBDF
:1053800000106FF03702096802EB8000085A40F203
:10539000B451884200D908467047000010540500F7
:1053A000F0B50A7B6FF0030303EA9205143D25D0A4
:1053B0001431002240F2B4534FF406741CE08E5CAA
:1053C000002E1BD0012E02D0022E10D101E0521C63
:1053D00012E08E187778042F09D1768876BA9E422B
:1053E00001D91E4602E0A64200D2264686818E18CA
:1053F0007678002E02D03244AA42E0D3F0BD0000FD
:105400002DE9F047DFF870929C4D99F80C30D807E1
:1054100012D0002229680CE0488A10B1A0F10100E6
:105420004882980703D5088A08B1401E0882443193
:10543000521C28799042EFDC00263746DFF8408284
:10544000FCE098F800104046491CC9B288F80010EA
:105450002A79914201D901210170C8B200EB0010F4
:105460006FF043012A6801EB8000141820780B28A4
:105470007DD2DFE800F0E2E2E2B0A3CADACACABE37
:105480000600A078C00708D0D4E90601884204D1FC
:105490001121204600F0AEFC53E0207D40B199F888
:1054A0000C10C90704D0401E10F0FF00207518D062
:1054B000208AC0B1A27812F0240F57D0D4E9060197
:1054C0000B1A618EA08D814200D20846A189194431
:1054D00081424BD8500736D52046BDE8F04700F052
:1054E000D5BB10219CE06078C0061CD5A078800751
:1054F00006D4A07840F04200A0706879A0750AE058
:10550000608A002833D1A07D40B1401EA075A078EC
:1055100040F04000A070E8886082E2E7A07840F0A8
:105520001000A07092E01121204600F063FCA078EA
:10553000221D40F01000A070256C2389607D02219F
:10554000A847052192E00120FCF7A0FA70B1A078ED
:10555000221D40F01000A070D4F840C02389607D67
:105560000421E047A07820F03000A07000E03FE088
:10557000D4E90601884260D0608AC8BBA07DC8B16A
:10558000401EA075608EA18988420AD9A28D8242F0
:1055900000D210464008B0EB410F00D84800A0866A
:1055A0006186E775A07820F00800A070204600F022
:1055B00060FB91E7204600F04FFBAFE7608AB8B987
:1055C000A069E061A07DE0B3401EA075688960829B
:1055D000A786022124E0608A50B9A069E061A07D1D
:1055E00078B3401EA075E8886082A786122117E074
:1055F00023E0608A08BB6078C00701D0022100E088
:105600000121204600F09AFC17E0608AA8B9A06941
:10561000E061A07DA8B1401EA075E88860821121DC
:105620002046BDE8F04700F0E5BB608A28B9A07DC0
:1056300038B1401EA075E8886082761C2879B04297
:1056400000E003E03FF6FDAEBDE8F0870421204610
:1056500000F0D0FB221D256C2389607D0321A84723
:105660006078C00701D0022100E001212046BDE89A
:10567000F04700F063BC00004034001010540500F7
:105680005800001070B504468269C06B0D46014693
:1056900004E083891A44954203D040680028F8D179
:1056A00000E030B9531C9D4235D1A378DB0732D0DE
:1056B0001546A561226A521B00D525628A688AB107
:1056C000214B1B68A3EB0202B4F92E30B2EBE302CC
:1056D0001344E38500D55242B4F93030A2EBA30263
:1056E0001A4422860022E26340B14368E3634260C9
:1056F00004E008464E68FDF799F931460029F8D1D3
:10570000A078010708D5216A691A04D420F008009E
:10571000A070A08E608670BD608EA18E4FF4803523
:105720006B1E8842A18905D80144A94200D31946BD
:10573000618670BD494391FBF0F10A18AA4200D37B
:105740001A46628670BD000040340010C17D0329F6
:1057500024D317D1828D418E8A4200D2114682898C
:105760004908B1EB420F00D85100818602EB42029A
:1057700011444186C1690162817841F0080181705C
:1057800000F077BA8178090708D5418E82891144E3
:10579000B1F5803F01D34FF6FF714186704700009D
:1057A0002DE9F84F81464288001D16180090307B85
:1057B0006FF0030101EA900014287DD3B9F80010BE
:1057C000814279D30244081A1FFA80F8A9F802200E
:1057D00009F112013046FFF785FD09F11E010400B1
:1057E0008B4634D00022042109F12200FCF73AFC58
:1057F000024604215846FCF735FC014699F81B0087
:10580000FCF744FC0146B9F80000FCF73FFC0246F7
:10581000B9F800103046FCF725FCC0430004000C2A
:105820004AD1301DFFF728F9054606F10800FFF7B9
:1058300023F9074620784FF0000A801E092878D205
:10584000DFE800F0DDFEFDFCFBFAF9F80A00304667
:10585000BDE8F84F00F02BBB707B41076AD481078D
:105860004FEAC0600AD5002826DAA06B6D1CA8425A
:1058700022D1E069B8421FD11021D3E100281BDA00
:10588000A2690021B81A1AD4E069381A002816DC77
:10589000F089A36A00BA4FEA1040DB1B08D4636AA0
:1058A000B3EB050C04D4AB4209D1A38D834206D2DD
:1058B000A18DA085411A00E09FE0C4E90957E06985
:1058C000824229D0206A381A00280FDCB8F1000F74
:1058D0000ED1707BC0070BD151B9E07DFF2801D2FA
:1058E000401CE0752046FFF731FF01E084F817A067
:1058F00039462046FFF7C6FEA078C0070CD0E06905
:10590000B84204D10521204600F018FB14E17F1CA9
:10591000B84201D105215AE1A07820F00201A1701E
:10592000A06BA84207D06D1CA842A5D1E0892082B7
:10593000A2E786E113E141F01000A070B8F1000F7A
:105940001FD0E18EE9B1810608D520F02000A070BB
:10595000221D256C2389607D0421A847BB4D434649
:1059600085F801A0B9F802100098276C0A18607D2C
:105970000521B847687800283FD1A16B01EB0800EA
:10598000A063707BC00712D0D4E9060188420ED113
:10599000221D256C2389607D0221A847A06B11215F
:1059A000401CA063204600F025FA08210FE1A078F2
:1059B000B8F1000F20F01000A0701CD06078010733
:1059C00008D5E18E414503D9A1EB0801E18601E04C
:1059D000A4F836A0400708D5207D30B9E08E20B16C
:1059E0009B48807A401C207505E084F814A01021A3
:1059F000204600F0FFF9E0892082BDE8F88F707B37
:105A0000410701D50221E2E0C1062CD480072AD546
:105A1000221D276C2389607D0021B84718B33146C9
:105A20002046FFF7BDFCFDF7D9F8A061E0612062D8
:105A3000F08906E0FBE0E1E0CEE0A8E079E04AE0B2
:105A400016E000BA000CA085681E6D1CA56360629C
:105A50004FF6FF70A0867F4884F817A0A4F82EA008
:105A6000C08820865DE05946304600F020FAC9E73C
:105A7000707B410773D4810715D5C006BDD5E06999
:105A8000B842BAD1204600F046FAF08900BA4FEA8F
:105A90001040A085A5F1010005F10105A563606234
:105AA000E069A06132E0C10612D5E069B842A4D134
:105AB000A06BA842A1D1204600F02DFAE069A061B8
:105AC000221D256C2389607D0121A8470A217EE0E3
:105AD000800792D42BE0707B410740D4810726D504
