:020000040000FA
:10000000E03E0010950100009D0100009F010000EE
:10001000A1010000A3010000A501000000000000F4
:10002000000000000000000000000000A701000028
:10003000A901000000000000AB010000AD010000BC
:10004000AF010000D915000009160000AF01000043
:10005000AF01000025160000AF010000AF01000055
:10006000AF010000AF01000035110000AF0100003A
:10007000AF010000AF010000AF010000AF010000C0
:10008000AF010000AF010000AF010000AF010000B0
:10009000AF010000750E0000AF010000AF010000CD
:1000A000AF010000AF010000AF010000AF01000090
:1000B0007D100000AF010000AF010000AF010000A3
:1000C000AF010000AF010000AF01000000F002F836
:1000D00000F051F80AA090E8000C82448344AAF191
:1000E0000107DA4501D100F046F8AFF2090EBAE88F
:1000F0000F0013F0010F18BFFB1A43F0010318475C
:10010000E85B0500285C0500103A24BF78C878C178
:10011000FAD8520724BF30C830C144BF04680C600D
:10012000704700000023002400250026103A28BF55
:1001300078C1FBD8520728BF30C148BF0B60704759
:100140006E2900F0AD80702900F01681642900F05E
:10015000D780732900F0A683002070471FB500F0F8
:1001600065FE04000020002106F0D6FC401C606003
:100170001FBD10B510BD00F034FE1146FFF7EEFFB5
:1001800004F04CFD00F056FE03B4FFF7F2FF03BC91
:1001900000F05AFE0948804709480047FEE7FEE79D
:1001A000FEE7FEE7FEE7FEE7FEE7FEE7FEE7FEE727
:1001B00004480549054A064B7047000099140000A1
:1001C000CD000000E0340010E03E0010E0360010EA
:1001D000E03600100FB41CB5084B06AA7B446946F4
:1001E0000090059800F039FB04460020694600F0B5
:1001F0007FF820461CBC5DF814FB000011010000D4
:1002000070B5044685690068C10601D5302600E056
:100210002026C00707D070BDD4E9012130469047A1
:10022000206A401C20626D1EF6D570BD70B5044674
:1002300085690078C00707D170BDD4E9012120206D
:100240009047206A401C20626D1EF6D570BD70B5C7
:100250000C460546012A05D02878800600D5EA69B3
:10026000002302E0012305E05B1C934202D2E05C24
:100270000028F9D1A869E618C01AA861286A1844AC
:1002800028622846FFF7BCFF04E0D5E9012114F8F5
:10029000010B9047B442F8D32846FFF7C7FF70BD63
:1002A00011680268006A530501D508700AE0D30599
:1002B00001D5088006E0130603D5C217C1E9000284
:1002C00000E008600120704770B5064600F00CF8A9
:1002D0000468054630460A22002100F02BFB2C6002
:1002E00070BD704770477047004870477C340010FD
:1002F0000A6802F8010B0A6070477047FFFFFFFFB2
:100300002DE9F0410646002410687529314616A5EE
:1003100010D0AFF30080002802DA404213A507E0B6
:1003200031688A0701D512A502E0490704D511A555
:10033000012401E0AFF3008000210A2206F1240726
:1003400009E0B0FBF2FCB0FBF2F302FB1C00303022
:1003500078541846491C0028F3D123462A463046D3
:10036000BDE8F04100F01ABA000000002D000000C6
:100370002B00000020000000F0B41368026808247D
:10038000C4610C4642F020020260110502D50E4AFB
:100390007A4402E00C4A7A440E32002100F124052E
:1003A00005E003F00F061B09965D6E54491C002BF7
:1003B000F7D105782D0703D5702C01D10123103218
:1003C000F0BC00F0EBB90000FB5805002DE9F05F30
:1003D000894604464FF0000ADFF874B1FB44C0F8C8
:1003E00020A02046E1688847002874D0252806D040
:1003F000D4E901219047206A401C2062F1E70026E1
:100400005F462046E16888472028054607DB312DF6
:1004100005D2781910F8200C08B10643F1E7B007AF
:1004200001D526F00406C4F81CA00027C4F818A0C3
:100430002A2D09D0284601F003F938B304EB8708C8
:10044000303DC8F8185019E059F8041B204604EB59
:1004500087029161E1688847012F054618D1E0695C
:10046000002820DA26F020061DE0D8F8180000EB5E
:10047000800005EB40003038C8F818002046E168DD
:100480008847054601F0DCF80028EED1012F0AD09C
:100490002E2D08D12046E16888477F1C0546022F93
:1004A00046F02006C4DBA069002803DA404246F08B
:1004B0000106A061F00701D026F010066C2D0BD0CC
:1004C000682D09D04C2D39D06A2D35D0742D35D0FA
:1004D0007A2D33D016E038E0E1682F462046884771
:1004E000B842054609D16C2F26D04FF48060E168F0
:1004F000064320468847054604E06C2F1AD04FF487
:10050000807006430DB3A5F14100192802D82035AB
:1005100046F400664A462946204626604E46FFF7C6
:100520000FFE80B101280BD0F61D26F0070000F168
:10053000080956E74020E4E78020D8E70020D6E706
:1005400006F104094DE7284652E7206ABDE8F09F0E
:10055000D75805000FB400B58DB010A909900091CF
:100560000B904FF0FF300A9000200C900648784422
:100570000690064878446A4607900F9909A800F04B
:10058000A9F90DB05DF814FB830300009B03000084
:100590002DE9FF5F1D464FF0FF3B91464FF00008ED
:1005A0005F46D5E90146A96901987F1C8847296AF9
:1005B000824688470028F6D1BAF1FF3F0CD0002EC2
:1005C00024F4C06419DD600614D5BAF12B0F09D0EC
:1005D000BAF12D0F0ED103E0584604B0BDE8F09FEC
:1005E00044F48064A96901987F1C8847761E82467E
:1005F000002E02DDBAF1300F03D0B9F1000F26D082
:1006000032E0A969761E01987F1C44F40074884783
:10061000002E824605DDBAF1780F06D0BAF1580FE8
:1006200003D0B9F1000F10D01EE0B9F1000F02D0D5
:10063000B9F1100F18D1A969761E01987F1C24F416
:10064000007488478246102002E0082000E00A205B
:10065000814609E0A96908FB0908761E01987F1CFC
:1006600044F4007488478246002E05DD4946504612
:1006700000F01CF90028EDDAE96901988847A00527
:1006800002D46FF00100A8E7E00725D1600613D57A
:10069000600502D5C8F1000000E0404629680A1D47
:1006A0002A600968220501D5087015E0220701D5E6
:1006B000088011E008600FE02868011D29600068CB
:1006C000210502D580F8008006E0210702D5A0F8B8
:1006D000008001E0C0F8008038467EE710B5431C7A
:1006E00002E010F8011B71B18107FAD14FF001321D
:1006F00002C88C1A8C4314EAC211F9D0C01A0A0637
:1007000003D0C01E10BDC01A10BD0A0401D0801E47
:1007100010BD0902FCD0401E10BD00004FF0013C8E
:1007200050F8042B51F8043B9A4221D1A2EB0C0360
:10073000934313EACC1317D150F8042B51F8043B20
:100740009A4215D1A2EB0C03934313EACC130BD1BD
:1007500050F8042B51F8043B9A4209D1A2EB0C0348
:10076000934313EACC13DBD04FF00000704700BF77
:10077000D01A01BAB1FA81F101F0180122FA01F0A0
:10078000CB40C1F12001DBB2C0B2C01A2CFA01F398
:10079000D11A914311EAC311E6D170472DE9F04710
:1007A0000D4699469246044600F1240801688806E1
:1007B00004D5E06921F01001216000E00120A84289
:1007C00001DD471B00E00027A1697A1902EB09004F
:1007D000081AA0612078C00602D42046FFF710FD59
:1007E000002608E0D4E901211AF806009047206AA3
:1007F000401C761C20624E45F4DB2078C0060AD5EA
:100800002046FFF7FDFC06E0D4E9012130209047A7
:10081000206A401C2062381EA7F10107F4DC07E0C3
:10082000D4E9012118F805009047206A401C206295
:10083000281EA5F10105F3DC2046FFF7F7FC207820
:10084000000602D50220BDE8F0870120FBE700008A
:1008500001694A1C02610878704700B58FB0CDE984
:1008600001310021059105497944CDE90310114674
:100870006846FFF7ABFD0FB000BD0000E5FFFFFFCE
:1008800010B5436913B1AFF3008001E0FFF7DFFC5F
:10089000012010BD127800F124010A7000224A7074
:1008A0000122EDE711684FF0FF32E9E73A2800D264
:1008B000303820F02002412A01D3A2F137008842CB
:1008C00001D34FF0FF307047026811441378016084
:1008D00018467047D160054979445161044979440B
:1008E000116200211161114600F072B8EDFFFFFFA7
:1008F000DB000000426842B1016811F8013B23B1FE
:10090000521EC0E90012184670470121C160881EBE
:10091000704742685AB1C368016843B983688B4223
:1009200005D0491E521CC0E90012002070474FF04C
:10093000FF3070472DE9F04791460F468046044648
:10094000002614F8015B2DB100F030F80068405D1E
:10095000C007F6D12B2D02D02D2D18D0641E4A468B
:100960003946204600F0EEF927B13968A14201D19D
:10097000C7F800804FF0020471050BD540420028F3
:1009800003DDFFF7B1FC0460A007BDE8F08746F483
:100990008066E4E70028F8DAFFF7A6FC04606FF051
:1009A0000040F2E7004870477C34001010B500F0BA
:1009B0003DFA001D10BD00BF6161000010B5044686
:1009C000FFF7F4FF0068005D00F0010010BD0000BB
:1009D0002DE9F34F4FF0000A0C4656468DB001202A
:1009E0000C9001F10C000B9062690B98012190476B
:1009F000051E2DD0252D2CD0216A8847C0B16269F3
:100A00000B9801219047216A88470028F7D1626935
:100A1000411E0B98904700E0761CA1690D9888470D
:100A2000216A88470028F7D1E1690D988847DBE7FC
:100A3000A1690D988847A842074601D1761CD3E7E3
:100A4000E1690D9888477F1C02D1BAF1000F6FD081
:100A50006BE162690B9800273D46394690472A288A
:100A600004D162690B98012190470125DFF8D082FB
:100A700062690B9801219047A0F130010A290AD23E
:100A80004745E5DC07EB870100EB4107303FDFD44A
:100A900045F01005ECE7E90601D46FF000476C283B
:100AA0000AD04C2814D0682815D06A280DD0742894
:100AB0001CD07A281AD01DE062690B98012190475A
:100AC0006C2802D045F0040514E045F002050DE065
:100AD00045F020050AE062690B98012190476828DB
:100AE00002D045F0080505E045F4006562690B9801
:100AF00001219047C4E9015765283DD019DC5828E9
:100B00007AD00CDC452837D004DC252826D04128B3
:100B10009ED131E046282FD0472899D12CE05B2880
:100B200077D0612828D063287CD0642823D15AE06C
:100B3000F6E06F2848D008DC66281DD067281BD057
:100B4000692821D06E2816D127E0702845D0732857
:100B500068D0752847D078280DD14DE0A1690D984F
:100B60008847252805463FF469AFE1690D98884715
:100B70006D1C3FF46AAFD8E00D9923466A466FF0CA
:100B80000100AFF30080C5E045F0400023464FF080
:100B900000026060A80736D43EE0E8077FF447AF64
:100BA0002068011D21600068290501D506701BE73A
:100BB000290701D5068017E7A90703D5F117C0E972
:100BC000006111E706600FE745F0400023464FF053
:100BD00008026060A80716D41EE040F60E0125EA60
:100BE0000100606016E045F0400023464FF00A0225
:100BF0006060A80707D40FE045F040006060A807D8
:100C000008D5234610220D996FF00100AFF3008044
:100C100080E007E0102223460D996FF00100FFF7F6
:100C2000B7FC77E04FF0000963284F46C8464B46B3
:100C3000CB4602D05B2806D038E0E80601D401207C
:100C4000A060012732E06269D4F80CB00B98012152
:100C500090475E2807D14FF0010949466269D4F8F0
:100C60000CB00B989047216939B900210A4603ABB3
:100C700043F82120491C0829FADBD8B3216949B37C
:100C800008F1010862690B98012190475D28F4D1B1
:100C9000B9F1000F09D0002003A951F82020D24358
:100CA00041F82020401C0828F7DB03AB206900280E
:100CB00020794FEA40701ED05B462246CDF8008076
:100CC000CDE901970D9900286FF0010020DAAFF30C
:100CD00000801FE0C11703AA00EBD1614B1121F086
:100CE0001F0102EB8302411A13680120884003436D
:100CF0001360C7E719E00D99224600286FF0010044
:100D0000009702DAAFF3008004E0AFF3008001E067
:100D1000AFF3008000280ADA401C06D10C9820B1FD
:100D20004FF0FF300FB0BDE8F08F5046FAE7E9070B
:100D300001D10AF1010A064400200C9054E600009B
:100D4000CCCCCC0C2DE9F05F824615468B460027B3
:100D50000AF10104B9460078302801D09DB113E0B2
:100D600014F8010B0127782803D0582801D045B189
:100D70000AE00DB1102D07D1002714F8010B102542
:100D800002E0082500E00A250026B0460EE005FB3B
:100D9000080005FB06F101271FFA80F801EB104659
:100DA000B6F5803F00D3B94614F8010B2946FFF78A
:100DB0007DFD0028EBDABBF1000F05D00FB1641EFA
:100DC00000E05446CBF80040B9F1000F06D0FFF721
:100DD0008BFA02210160C81EBDE8F09F48EA064078
:100DE000FAE77546FFF7DEFDAE4605006946534655
:100DF00020F00700854618B020B5FFF7D9F9BDE807
:100E000020404FF000064FF000074FF000084FF071
:100E1000000B21F00701AC46ACE8C009ACE8C00902
:100E2000ACE8C009ACE8C0098D467047004870477F
:100E30009C34001010B50446AFF300802046BDE896
:100E40001040FFF7A1B9000001491820ABBEFEE732
:100E5000260002000146002006E0002000E0401CC1
:100E600044F21A129042FAD30A1EA1F10101F4D100
:100E7000704700002DE9F0416F48006800F0010064
:100E800000281CD06C480830006800F08060B0F189
:100E9000806F33D14FF0806067490C31086067483C
:100EA00000786749097888420AD100F047FC0020A1
:100EB0006249087002206349087004F0ADFAB8E096
:100EC0005E4800785E490978884201DA012000E036
:100ED00000205C490978022901D0012100E00021AD
:100EE00008400028EBD055480078401C5349087052
:100EF00001205449087004F08FFA9AE04E48001D12
:100F0000006800F40030B0F5003F7ED14D48007815
:100F100002287AD1000448490C3108604A484069E7
:100F2000C0F383404949087005F032FD4848007815
:100F300004281ADA46480078012806DA5F20454975
:100F4000087048708870C87008714048007804F0D4
:100F5000A3FA40493E4A127888543D480078401C24
:100F60003B49087004F078FA63E0394800780428B7
:100F70005FD100240025002701263448007804F0C2
:100F80008BFA3449324A1278885400BF1CE000259D
:100F90000EE004EB840030490844405D2D49495D72
:100FA000884201D1012000E000200640681CC5B243
:100FB000052DEEDB2EB10127611CC8B203F070FBDA
:100FC00004E00126601CC4B2042CE0DB00BF1FB1AA
:100FD00022A004F055FA02E024A004F051FA4FF4E4
:100FE000FA6001F0C5FA0020194908704320194938
:100FF00008706F204870642088706520C8703A209F
:10100000087105F0C5FC14E0FFE7114800780428DA
:101010000FDD00200E49087043200E4908706F2034
:101020004870642088706520C8703A20087104F008
:1010300013FABDE8F0810000808002402C0000100F
:101040002D0000101400001000C009202E00001018
:10105000250000102000001000000010636F646580
:10106000206170706C69656400000000696E7661D3
:101070006C696420636F6465000000002DE9F0472F
:1010800041E02748C0F8008008F00800002839D067
:101090002448046831E0244850F8347007F0804058
:1010A00000B923E0C7F30A00C51E40F2EA508542AA
:1010B00002D81E48384000B118E045F0004000F06A
:1010C000E1FA06468EB106F1040A194850F8349048
:1010D000E81C850804E059F8040B4AF8040B6D1E5F
:1010E000002DF8D1304603F0F3FF00BF601C04462A
:1010F000042800D100240B4804600A48001F00683F
:10110000A042C8D100BF0648083800680449091F3A
:10111000096800EA0108B8F1000FB2D1BDE8F08714
:10112000E80F00501801005028C007200000901B55
:1011300008C0072010B58048406800F0F80404F0AB
:101140000700002870D1E0100C286DD2DFE800F015
:10115000F1061920B721B8B9A8BAC1DE77480078DE
:10116000012806D17648007800F0FE0072498860B8
:1011700003E0734800787049886028206E498861D0
:10118000D8E06F4800786C49886028208861D1E0F9
:1011900000BF6A48007800BB6A480068A8B16A4886
:1011A000006800786449886067480068401C6649A8
:1011B000086028206049886162480068401E6149D3
:1011C00008600120FFF746FE07E010205A4908603A
:1011D0002820886101205D4908705848007801285E
:1011E0002FD15B48007802280DD15A480068C0F31F
:1011F0000720514988602820886155480078401EA2
:101200005349087096E05248007801280DD15148A2
:101210000068C0B248498860282088614C4800783E
:10122000401E4B49087085E083E04948007840B98A
:101230000820414988612020086000203F4908704B
:1012400078E03E480078022829D1414800780028FB
:1012500025DD3F48007802280DD13E480068C0F3E4
:101260000720354988602820886139480078401E69
:10127000374908705EE03648007801280FD13548BC
:101280000068C0B22C498860282088613048007806
:10129000401E2F4908700020284908704AE049E0A4
:1012A00028480068012803D804202349886102E007
:1012B00004202149086028201F4988613AE000BFC6
:1012C00000BF00BF28201C498861FF201F4908700B
:1012D00030E0194880681C49096808701A4800689D
:1012E000401C1949086017480068401E15490860ED
:1012F00008460068012803D12C200F49886104E0CA
:1013000004200D4908602820886113E00A4880689D
:101310000D49096808700C480068401C0A490860BB
:1013200010200549086028208861012007490870BD
:1013300000E000BF00BF10BD00C001405900001018
:10134000440000105400001050000010580000101D
:101350004C0000104800001001461548006840F499
:101360000020134AC43AC2F8C4001248406820F072
:101370007070104A50601046406840F0A070506095
:1013800080200D4A50611061022901D1A020D06057
:101390000A200122824043099B0003F1E023C3F8A5
:1013A000002100BF4020044A106001207047000067
:1013B000C4C00F4000C0024000C001402DE9F04110
:1013C00005460E4614461F46DDF81880B8F1000F9A
:1013D00041D0012E06D12248057022480460012028
:1013E00021490870022E06D11D4805701D48046071
:1013F00002201D490870032E0AD10E2000EAD410E5
:1014000028441749087017480460012016490870DD
:10141000164807601648C0F8008002201549087079
:101420000020154908702C2014498861602008604C
:1014300000BF114800780028FBD00F48007828B181
:101440001420FFF707FD0120BDE8F0811420FFF70D
:1014500001FD0020F8E71420FFF7FCFC0020F3E773
:1014600044000010480000104C0000105000001014
:1014700054000010590000105800001000C0014036
:1014800000F01F02012191404209920002F1E02286
:10149000C2F800117047000020204B4908604B48FB
:1014A000D0F8A00100F0200030B100BF464800682D
:1014B00000F040000028F9D0032043499C3908601F
:1014C00000204249C1F8A8013F490C3108600120C1
:1014D0003D49943908603E483C4984310860AA205F
:1014E0003A498C3108605520086001203749803125
:1014F0000860AA2035498C31086055203349C1F86D
:101500008C0000BF31488830006800F080600028FF
:10151000F8D003202D4980310860AA202B49C1F85A
:101520008C00552029498C31086000BF274888303D
:10153000006800F04070B0F1407FF7D123202349CC
:10154000A4310860AA202149C1F8AC0055201F49E8
:10155000AC31086001201D49A0310860AA201B4958
:10156000AC31086055201949C1F8AC0000BF1748DC
:10157000A830006800F480600028F8D003201349E8
:10158000A0310860AA201149C1F8AC0055200F49CC
:10159000AC31086000BF0D48A830006800F440700E
:1015A000B0F5407FF7D10B480849C43108600020EE
:1015B0000649C1F8C8010846006820F4704040F4AC
:1015C0008040086070470000A0C10F4000C00F407D
:1015D00063000500DE87280410B501204FF040218C
:1015E00008600020044908604FF04021486003A0D3
:1015F00003F046FF10BD00002800001054494D457F
:1016000052305F49525148000120044908600448A3
:101610000068401C024908607047000000800040DC
:101620007400001010B504A003F02AFF4FF47A7084
:1016300000F09EFF10BD000068617070790000002E
:1016400030380A2801D2012070470020704700007E
:1016500003498A68117801B902A206A1FEF7BABD52
:10166000705905004B65696C2D455745422F322E48
:10167000310000005365727665723A2025730D0AB9
:10168000000000002DE9F0412A4D0646E87B18B124
:10169000B00F32D103202EE026F040400F3020F072
:1016A0000307002E03DB02F0E3FF0120E873B00F15
:1016B0004FF000080BD0286869683844884206D982
:1016C000E87BD0B185F80F8002F0DEFF15E01A4804
:1016D000046820686268011B891AB94210D2044666
:1016E00000680028F5D1E87B18B185F80F8002F07A
:1016F000CBFFB00F01D103F02CFF0020BDE8F0813B
:10170000A2B1101921680160206000F1080447604F
:10171000286838442860E87B18B185F80F8002F00B
:10172000B3FF2680A4F802802046E7E7676008340C
:10173000EEE70000203400102C59050010B54FF0E2
:1017400000700449886102200349087003F064FEB8
:1017500010BD000000C00920140000102DE9F04168
:101760008846074600F0D0F900284CD0274D0026C7
:101770002C680BE0207838B10422394604F10A00C5
:1017800003F09AFA012833D00E34761C2879B0423F
:10179000F0DC1F49384603F057F9B0B91C48001D6A
:1017A00003F084FB00282ED000262C680AE0207865
:1017B00030B106224146201D03F07EFA01281CD0DC
:1017C0000E34761C2879B042F1DC012000F022F8BA
:1017D000002818D0C0EBC0006FF00D0202EB4000F3
:1017E000296804220C18394604F10A0003F070FA43
:1017F00006224146201D03F06BFA6879E070A87953
:10180000A07003202070BDE8F08100003C59050065
:1018100030340010F0B520490446012005460A681E
:1018200003E013784BB10E32401C0B798342F8DA97
:1018300000204E7901220B680CE015705470F0BD49
:101840005F78012F04D1DF78B74201D83E461046B9
:101850000E33521C0F799742F2DA90B94E79012279
:101860000B6809E05F78022F04D1DF78B74201D816
:101870003E4610460E33521C0F799742F2DA00288A
:10188000DDD00968C0EBC0026FF00D0303EB42022C
:1018900011440D704C70F0BD3C5905002DE9F0412C
:1018A000224C88460646002725680BE0287838B188
:1018B0000422314605F10A0003F0FEF9012832D076
:1018C0000E357F1C2079B842F0DC304600F01CF960
:1018D000002828D01649304603F0B6F8002822D058
:1018E0000120FFF797FF05001DD0114A3146002067
:1018F00000F072FAC5EBC5016FF00D0202EB410179
:10190000206804224518314605F10A0003F0E0F989
:1019100006224146281D03F0DBF9E079E870A07942
:10192000A87003202870BDE8F08100003C59050034
:10193000303400102DE9F04788468146274903F0EE
:1019400083F848B9254C201D03F0B0FA00283AD09E
:1019500004F104094FF00008214D002702262C68ED
:101960000BE0207838B10422494604F10A0003F064
:10197000A3F9012829D00E347F1C2879B842F0DC65
:101980004046FFF747FF04001CD0144A4946002098
:1019900000F022FAC4EBC4016FF00D0202EB41012A
:1019A000286804224418494604F10A0003F090F91B
:1019B00006220C49201D03F08BF9A879A070E87964
:1019C000E07026700020BDE8F08720780328F9D366
:1019D0006078012800D166702046F4E730340010AA
:1019E0003C5905008C5A05002DE9F041374D384926
:1019F000287810B90A7B920766D50122401C8A73A9
:101A000028700027334E5AE0C0EBC0006FF00D0283
:101A1000316802EB40000C182078D8B3E07820B190
:101A2000401E10F0FF00E07046D1607878B10422CB
:101A3000294904F10A0003F03FF9012806D0607833
:101A400001280FD018B1022801D035E06770207846
:101A5000032823D0A07870B3401E10F0FF00A070C0
:101A600029D01DE02078032825D0A07818B3401E87
:101A700010F0FF00A0701ED002202070F079E070FE
:101A800004F10A00054603F011FA134A121F10B1BF
:101A900029460BE010E00021201D08E00420207002
:101AA0000D4AF079E070121F04F10A010020BDE830
:101AB000F04100F091B927702878401C28703179E6
:101AC000C0B28142A0D22F70BDE8F0819C0000100E
:101AD0006C3400103C5905003434001030B5084B0C
:101AE00000210A460124186803E0027044700E3099
:101AF000491C1D798D42F8DC0248426030BD00006F
:101B00003C5905009C00001001787F2912D00E225C
:101B1000B2EB111F0ED0006860B1411C0AD006491B
:101B20000A68896842400A4202D10143491C01D037
:101B30000120704700207047303400100649002013
:101B400048600648007A002804D0054A0020114663
:101B500000F042B9704700009C0000103C5905009D
:101B6000303400100349002248600146104600F05E
:101B700033B900009C0000102DE9F0471F4E0546C8
:101B8000002700F1080A00F10E094FF00908346837
:101B90001DE02078012818D9E98898FA88F0B1EB7F
:101BA000104F0AD10622211D504603F085F860B17E
:101BB0000422494604F10A0011E0042204F10A015A
:101BC000484603F079F8012806D00E347F1C30799E
:101BD000B842DEDCBDE8F08706225146201D03F046
:101BE00077F86078022801D1012060707079E07088
:101BF000B079A07003202070ECE700003C5905008C
:101C00002DE9F04101882A2952D3418A012212BAD2
:101C1000B1EB124F4CD1818A4FF4006212BAB1EB92
:101C2000124F45D1817D062942D1C17D04293FD182
:101C3000018B00F1240709BA0A0C3D1FBE1D00F1FB
:101C4000120400F11A080A2A32D2DFE802F0310544
:101C50004A3131313131396804223349304603F099
:101C60002BF828B141462846FFF778FD022133E0E2
:101C700004222946304603F01FF8002818D02B4EC6
:101C80000027346818E02078032813D30622414641
:101C9000201D03F011F868B10422294604F10A005E
:101CA00003F016F87079E070B079A070032020700E
:101CB000BDE8F0810E347F1C3079B842E3DCF7E7F1
:101CC00006221B49384602F0F7FF0028F0D04146B3
:101CD0002846FFF743FD09212046BDE8F04100F00A
:101CE0002BB8304603F0E2F858B104220E493046D2
:101CF00002F0E2FF0028DBD02046BDE8F041FFF70C
:101D00003BBF0C4C61680029D2D00422284602F067
:101D1000D3FF0028CCD0616800200870C8E70622F5
:101D200003493846E4E70000303400103C59050010
:101D30006A0000109C0000102DE9F04105460E4697
:101D40002A20FFF79FFC044605F1080106220F46F2
:101D5000001D02F0BDFF06221D4904F10A0002F039
:101D6000B7FF40F6060000BA000C2082012000BA3E
:101D7000000C60824FF4006000BA000CA0820620C4
:101D8000A0750420E07530BA000C20830622394685
:101D900004F1240002F09CFF042205F10E0104F17D
:101DA0002A0002F095FF0622094904F11A0002F008
:101DB0008FFF0422074904F1200002F089FF20462A
:101DC00003F0BEFA2046BDE8F04101F045B800003E
:101DD0006A000010303400102DE9F0410546164627
:101DE0000F462A20FFF74EFC04460DB1294600E0BD
:101DF00024490622201D02F06BFF0622224904F12D
:101E00000A0002F065FF40F6060000BA000C2082CE
:101E1000012001BA090C6182C10209BA090CA18230
:101E20000621A1750421E17505B1082000BA000C56
:101E300020830622144904F11A0002F049FF05B973
:101E4000124D0622294604F1240002F041FF0EB192
:101E5000314600E00D49042204F1200002F038FF71
:101E60000FB1394600E00949042204F12A0002F0CA
:101E70002FFF204603F064FA2046BDE8F04100F051
:101E8000EBBF00008C5A05006A000010925A050052
:101E9000054901EB80000A684068824201D20120B6
:101EA000704700207047000020340010F0B5002378
:101EB0001D461C4600268A5DA2F14107192F01D854
:101EC0003A4618E0A2F16107192F01D8473A12E00B
:101ED000A2F13007092F01D8121D0CE02B2A04D0E3
:101EE0002F2A04D03D2A04D013E03E2203E03F22F3
:101EF00001E000226D1C761C42EA8313042EDAD323
:101F00001A0C02701A0A42708370E41CC01C091D6E
:101F100015B1641B15B103E0392CCBD3002101703E
:101F20002046F0BD00B5002200F0AEFAC04380B2FA
:101F300000BA000C00BD00002DE9F04704460D4634
:101F400090469946002720786C2802D072281AD132
:101F500012E0A078303801218140CEB20C480078E0
:101F6000304008B10BA000E00CA00246211D28461D
:101F7000FEF730F9074606E008A209A12846FEF759
:101F800029F9074600BF00BFB8B2BDE8F0870000DE
:101F900040000010636865636B656400000000002A
:101FA0003C72696E673E3C6F6E3E25733C2F6F6ED0
:101FB0003E3C2F72696E673E000000002DE9F04143
:101FC00086B006460D46174606B902E006B0BDE8E3
:101FD000F08100BF07B9F9E74FF000082820FFF7AC
:101FE00051FB044600BF28222146284601F06EFA24
:101FF00005462078002841D02DA1204603F08FFA15
:10200000012802D100F018FF38E02CA1204603F08F
:1020100086FA012802D1FFF791FB2FE029A1204683
:1020200003F07DFA012802D102F03AFB26E027A155
:10203000204603F074FA012803D1022002F030FB9D
:102040001CE024A1204603F06AFA012803D10320F2
:1020500002F026FB12E021A1204603F060FA0128DD
:1020600003D1042002F01CFB08E01EA1204603F06F
:1020700056FA012802D1204603F002FA002DB2D10F
:10208000204600F0E9FEB8F1030F0FD103A8FEF7D8
:1020900025FB87B23A46694603A802F00DFE0128E7
:1020A00004D11249486903A903F018FA00BF8DE76B
:1020B00063616E636C6562746E000000616E7377BD
:1020C0000000000073657472656C31007365747292
:1020D000656C320073657472656C3300736574727D
:1020E000656C340072737562310000007059050030
:1020F00030B587B005462820FFF7C4FA044600BF74
:1021000028222146284601F0E1F9054620780028DA
:1021100018D050A1204603F002FA012813D106A8D6
:1021200005A904AB03AACDE900104BA1E01CFEF702
:1021300011FA4C4903980870049848700598887003
:102140000698C8707EE048A1204603F0E8F901280F
:1021500019D106A805A904AB03AACDE900103EA138
:10216000201DFEF7F7F93F49039808720498C1B2A1
:102170003C4841720598C1B23A4881720698C1B292
:102180003848C1725EE03AA1204603F0C8F9012840
:1021900019D106A805A904AB03AACDE900102EA108
:1021A000E01CFEF7D7F92F49039808710498C1B2D3
:1021B0002C4841710598C1B22A4881710698C1B274
:1021C0002848C1713EE02BA1204603F0A8F9012860
:1021D00019D106A805A904AB03AACDE900101EA1D8
:1021E000601DFEF7B7F91F49039808730498C1B240
:1021F0001C4841730598C1B21A4881730698C1B250
:102200001848C1731EE01DA1204603F088F901287B
:1022100018D106A805A904AB03AACDE900100EA1A8
:10222000601DFEF797F90F49039808740498C1B22E
:102230000C4841740598C1B20A4881740698C1B22D
:102240000848C174002D7FF45BAF204600F004FE07
:1022500007B030BD69703D0025642E25642E2564CD
:102260002E256400303400106D736B3D00000000BB
:1022700067773D0070646E733D00000073646E7399
:102280003D000000002070470A4951F82010012944
:1022900005D1411D01228A4007498A6108E00549AC
:1022A00051F8201021B9411D01228A400249CA611A
:1022B00070470000A400001000C009202DE9F0477D
:1022C00005464079072802D30846BDE8F0870C0090
:1022D0007BD0DFF844814FF0000950A1204600F088
:1022E000FBF8012806D051A1204600F0F5F801289E
:1022F0006DD075E00E3452A1204603F010F901288C
:102300000AD058A1204603F00AF9012808D0D8F8CD
:10231000047026467F1E3FE0687940F001005EE0D1
:102320002746464604E054A103F0F9F8012806D0F8
:102330003846716800F02EFE0700F4D150E03420DA
:10234000FFF7A0F9342207F10901A86201F070FE3D
:10235000AA6A801E02F80090E880687940F00100C7
:102360006871688840F480602DE030783B2808D0A0
:102370000D2835D00A2833D02F2806D02B2804D09A
:1023800009E0707820282BD005E03EA1701C03F0F6
:10239000C6F8012803D0761CBE42E6D320E04020D8
:1023A000FFF770F940222146A86201F041FEAA6AB7
:1023B000801E02F80090E880687940F001006871A2
:1023C000688840F4805068800AE023E0FFE710341A
:1023D0002046FDF779FFE860687940F002006871F7
:1023E0002046D8F8041000F0C1FD08B1044674E797
:1023F00020780D280ED160780A280BD1687940F03A
:1024000004006871072805D1D8F80410A01C814287
:102410003FF65BAF002058E790000010436F6E74EA
:10242000656E742D547970653A200000436F6E74A8
:10243000656E742D4C656E6774683A20000000006C
:102440006170706C69636174696F6E2F782D777736
:10245000772D666F726D2D75726C656E636F646536
:10246000640000006D756C7469706172742F666F22
:10247000726D2D6461746100626F756E6461727952
:102480003D000000786D6C0005E000BF30F8023BB5
:10249000891E5BBA1A440129F8DC11B1007802EBFD
:1024A000002290B200EB124000EB104080B2704767
:1024B000084400EB104080B2704708E003785340B6
:1024C00013F0DF0F01D000207047401C491C0A7830
:1024D000002AF3D10120704710B5DF220BE0047809
:1024E0005C40144201D0002010BDFF222D2B00D1F2
:1024F000DF22401C491C0B78002BF0D1012010BDBD
:1025000000B503464FF080601849C8634000C863B7
:102510001809400588634FF0007088634FF4967087
:1025200000F0A4FB4FF000701049C8634CF250302B
:1025300000F09CFB180940050C49C8631807C00946
:1025400088634FF0007088634FF4967000F08EFB44
:102550004FF000700549C8634CF2503000F086FB24
:102560001807C0090149C86300BD000000C0092068
:102570000146002006E0002000E0401C41F28832C5
:102580009042FAD30A1EA1F10101F4D170477047BD
:1025900010B51A48006810B11948006800B910BD9C
:1025A00004220021174802F0B3FB58B91448006810
:1025B00000F0004030B900201149086001201249A4
:1025C0000860ECE70E480068401E0D49086040B9FD
:1025D00000F01EF801200C4908600C48084908600A
:1025E000DDE707480068B0F1004F05D1002004493D
:1025F000086001200449086000BFD0E734000010E3
:102600003800001030340010300000101E00008030
:1026100070B50C4C2078002812D0607804F018F8BF
:10262000607804F00FF900256570042204F10801B8
:10263000054802F04DFB2570BDE87040FFF77EBAFB
:1026400070BD00007C3300103034001070B5104AAB
:102650000321002004F022F80E4C00256070A0B188
:10266000442104F049F804220B4904F1080002F067
:102670002FFB04220021084802F045FB03202070B4
:1026800000F0A2FCA061658070BD257070BD0000E7
:102690009D2600007C330010303400102DE9F05FDF
:1026A000794F88460A9E79781C46814274D13878E1
:1026B000062871D0432A6FD1EC2E6DD320780228E2
:1026C0006AD16078012867D1A07806287ED1201DC4
:1026D00002F0ECFBB969884278D106226B4904F11B
:1026E0001C0002F0E9FA002871D004F1EC0002F0BD
:1026F000DDFB6749884269D139780025891E04F1DC
:10270000100B07F1080A4FF00609082943D2DFE849
:1027100001F086B90444B986860404220021381DDC
:1027200002F0F1FAF0210FE0605C342806D0352881
:1027300006D160188078022848D101E060188578B9
:10274000204602F097FC0146B142EDD3E80706D0DF
:102750006C21204602F08EFC0146EC28F9D3A80734
:1027600006D52C21204602F085FC01466C28F9D3C1
:10277000381D02F09BFB002829D005203870042268
:102780005946504602F0A4FA032000F067F90420ED
:10279000B8830820F88375E018E041460422B84663
:1027A000381D02F089FA30B104225946504602F031
:1027B00083FA00280BD0F0271AE0E05D342810D00F
:1027C000352810D1E0198078052802D00020BDE816
:1027D000F09F88F80090042251462E4802F078FAC3
:1027E00001E0E01985783946204602F0D3FB074620
:1027F000B742E2D3E80706D06C21204602F0CAFBBC
:102800000146EC28F9D3A80706D52C21204602F072
:10281000C1FB01466C28F9D3FFF790F932E0F021B3
:102820001CE0605C342813D0352813D16018807800
:10283000062802D0052808D00CE0032038700422B6
:102840000021144802F05FFAC0E787F8009001E029
:1028500060188578204602F069FB0146B142E0D35A
:10286000E80706D06C21204602F060FB0146EC2808
:10287000F9D3A80706D52C21204602F057FB0146C4
:102880006C28F9D30120A2E77C3300106A00001005
:1028900063538263303400102DE9F0476C4F3A786F
:1028A000002A44D004250826012A24D0694800249F
:1028B000032A007B2FD0800739D578883B46401CFF
:1028C0007880988B4FF6FF7C401E81B2D88B921E89
:1028D0000CEA4008D3F814C003254FF0050A4FF066
:1028E0000A09ACF1010C082A21D2DFE802F022200B
:1028F00029778089A03C02203870BD83FE8356482A
:1029000002F0D4FA28B1524804225349083002F0A8
:10291000DFF903201DE0C00709D03D707C8000F086
:1029200053FBB861012000F099F8BD83FE83BDE838
:10293000F087B9830029FAD1202854D93D70F6E7F1
:10294000B9830029F3D1202807D8B883A7F81E80BF
:102950000120BDE8F04700F081B83C735820B883EF
:1029600009203870E3E7B98339B97820B88300F0DB
:102970002BFBB861012000F071F8354E387B0C3626
:1029800060B1F88B0028D2D0401E0004000CF88300
:1029900015D03046BDE8F047FFF7E4B8FD8300F0FE
:1029A00013FB010CA9203873FE207873080AB87352
:1029B000F97301D0FF28ECD1801CB873E9E7042239
:1029C0003146254802F084F92348FF210172417203
:1029D0008472C472BDE8F047FFF7B0B8B98300292C
:1029E000A5D12028AAD2B883A7F81E8091E7C7F8FE
:1029F00014C03869401E386199D10720387007E04B
:102A0000C7F814C0BCF1000F08D0B98300298ED1DB
:102A1000032000F023F8A7F81C9088E73E700320FD
:102A200000F01CF8A7F81CA0A7F81E907FE7B98358
:102A3000002984D1401E0004A7F81CA0000CF883D4
:102A4000D4D13D70BDE8F0470422034802F05BB9E1
:102A50007C3300106C340010303400102DE9F84F36
:102A6000DFF8EC810746012698F80000062801D01F
:102A7000072800D1002677484FF496750068007843
:102A800008B14FF4AA75284603F0F8FD04462A461B
:102A9000002102F038F94FF0010A84F800A084F810
:102AA00001A00620A0700020E0704546201DD8F847
:102AB000181002F00AFA698804F1080002F001FA1D
:102AC00016B14FF4004100E0002104F10A0002F0C9
:102AD000F8F92878A846062803D0072801D0082846
:102AE00005D104225C4904F10C0002F0F1F8062241
:102AF0005A4904F11C0002F0EBF8594904F1EC00CA
:102B000002F0E3F9352004F8F00F3D2184F801A02C
:102B1000A770E1700721217184F805A0F03C06221E
:102B20004E4904F1F60002F0D3F8FC25012F31D014
:102B3000032F01D0042F74D198F800004FF004093E
:102B400007280FD008280DD0322084F8FC00404917
:102B500084F8FD9004F1FE000422083102F0B8F878
:102B60004FF4817598F80000012811D002280FD089
:102B700007280DD008280BD0362060556019042294
:102B800080F80190801C08F1040102F0A1F8AD1D4D
:102B9000042F46D033484FF00C0B04F805B06719EA
:102BA000C168B81C02F09AFCC1B27970294FAD1C03
:102BB0000D443868007868B13C20605504EB050985
:102BC00009F10200396802F089FCC1B2AD1C89F834
:102BD00001100D44372060556019032180F802A0D0
:102BE000C1700621017180F805B0332181713A214D
:102BF000C1713B2101723A790721D20706D005F154
:102C00000701214443228A704FF008013A79920764
:102C100004D56B182A222344491C9A700D44417034
:102C2000AD1CFF2060556D1C4FF49670854200D29C
:102C30000546A8B200900EB10B4901E008F104016D
:102C400098F801002346432203F014FEBDE8F88FF4
:102C50007C33001048590500303400106A00001021
:102C6000635382632C59050088590500002100E058
:102C7000491C8142FCDD704706220249001D02F01A
:102C80001BB800006A00001010B501F0F1FC01F063
:102C900073FB074800210170417001F0F5FCFEF75D
:102CA0001DFF0621034802F01EF80349486010BDCD
:102CB0009C3300106A0000106C34001070B5AFF344
:102CC0000080FEF791FE2E490A784878824255D05E
:102CD0002C4B01229A7301EB8002401C546800F0D7
:102CE0001F004870208A00BA000CB0F5006F07D0B2
:102CF000A0F5006006383CD12046FEF781FF38E0A1
:102D00000021204601F0FEFC38B3201D05460622B6
:102D10001D4901F0D1FF68B9284602F0C7F81B49E8
:102D2000B1EB102F06D004F10A0104F11E00FEF7EA
:102D3000B5FD05E004F10A0104F11E00FEF70EFDE9
:102D4000E07E012806D0022808D006280ED01128DF
:102D50000FD107E0204601F0D7F90AE0204601F044
:102D6000B3FA06E0204603F011FD02E0204602F02F
:102D700061FF2046BDE8704000F06EB870BD0000F5
:102D80009C3300106C3400108C5A05005E0001006A
:102D900070B5044600F12205234E0422234928463B
:102DA00001F08AFF50BB04F11E0002F07FF80028FA
:102DB00038D02A780E2300200121B3EB121F0CD14A
:102DC000217160715E20A071687800F07F00E07171
:102DD000A8782072E878607215E0154829680268C2
:102DE00080684A40024202D10843401C06D00121BB
:102DF0002846FEF79FFD002814D0061D0622314606
:102E0000201D01F065FF06220A4904F10A0001F0C5
:102E10005FFF4FF4006000BA000C2082204602F0F1
:102E20008FFA012070BD00008C5A050088590500FA
:102E3000303400106A00001010B54FF000700449E3
:102E4000C86100200349087002F0E6FA10BD0000D6
:102E500000C00920140000102DE9F041002837D0EF
:102E60001C4DA0F10807E87B08B1032025E0DFF83E
:102E700068800026D8F8004001F0FAFB0120E873D2
:102E800000200AE0264624682178890704D0E873E8
:102E900001F0FAFB022010E05CB1BC42F2D12968DB
:102EA0006268891A2960D8F80010A14209D16060CF
:102EB00009E0E87301F0E8FB0120BDE8F04102F011
:102EC00048BB21683160E873BDE8F04101F0DCBB2C
:102ED000BDE8F081203400102C59050010B5084CD5
:102EE00000224FEA006308464FEA4101584000D5EE
:102EF00061405B00521C082AF5D3084610BD000053
:102F0000B71DC10470B5017809B1002405E00020A7
:102F100070BD401C2E2900D10446017831F02002FA
:102F2000F7D19CB10E4E002505EB450006EB4001A4
:102F30002046FFF7C2FA01280AD06D1C172DF3D3E3
:102F400008A1201FFFF7B9FA012807D00B2070BD98
:102F500005EB450006EB4000407970BD132070BDC5
:102F6000FA5905002E6A732E677A00000246491E40
:102F700006E003780D2B02D143780A2B02D0401CC7
:102F80008842F6D3904201D0884201D10020704798
:102F9000801C70470246491E07E003783B2B0CD08B
:102FA0000D2B08D00A2B06D0401C8842F5D3904246
:102FB00001D0884205D1002070474378202BF6D0FD
:102FC000F2E7801C704700000449054A48685043F6
:102FD00043F2390210444860704700006C3400101E
:102FE0006D4EC64110B50848084908604FF40030DE
:102FF00006498C39C1F89000400204490831086044
:103000001520FEF73DFA10BD000002048C8002403E
:10301000392803D920F02000373800E03038C0B21A
:1030200070470120704700002DE9F0410646007905
:103030000D46172831D2DFE800F00C0C0E101818DE
:103040001A1C1E2022301424260C282A2A10122C86
:103050002E003AA422E03CA420E03EA41EE044A4BA
:103060001CE0FFF70FF9040018D148A416E04AA4A9
:1030700014E04CA412E04EA410E050A40EE052A4C0
:103080000CE055A40AE05CA408E061A406E063A497
:1030900004E066A402E06DA400E073A479A12846D0
:1030A00002F01CFA0746E819FEF7D2FA0744E819BD
:1030B000224679A1FDF78EF80744E81910F8040CB0
:1030C0000D2800D1BF1E79A1204602F028FA012860
:1030D0000AD100F029F9020006D0E819801E75A176
:1030E000FDF778F80744BF1E3079012806D00C2878
:1030F00004D0122808D0132806D00AE0E81971A1DC
:1031000002F0ECF9074410E0E81975A102F0E6F9C5
:103110000744306A48B1E81978A102F0DFF9C41910
:103120002919306A03F044FC0719E81977A102F065
:10313000D5F9384480B2BDE8F08100007465787438
:103140002F68746D6C000000746578742F6373735E
:10315000000000006170706C69636174696F6E2FAC
:10316000782D6A6176617363726970740000000083
:103170006170706C69636174696F6E2F6A617661EA
:103180002D6172636869766500000000746578746B
:103190002F786D6C00000000696D6167652F6769AD
:1031A00066000000696D6167652F6A7065670000E1
:1031B000696D6167652F626D70000000696D616700
:1031C000652F706E67000000696D6167652F782D4F
:1031D00069636F6E000000006170706C69636174F8
:1031E000696F6E2F782D73696C7665726C6967688C
:1031F000742D6170700000006170706C696361749F
:10320000696F6E2F78616D6C2B786D6C000000001B
:10321000746578742F706C61696E0000696D616708
:10322000652F7376672B786D6C0000006170706C91
:1032300069636174696F6E2F782D7A69702D636F81
:103240006D70726573736564000000006170706C6E
:1032500069636174696F6E2F782D6D73646F776E1B
:103260006C6F6164000000006170706C6963617470
:10327000696F6E2F6F637465742D73747265616D01
:1032800000000000485454502F312E31203230308D
:10329000204F4B0D0A000000436F6E74656E742D55
:1032A000547970653A2025730D0A000074657874AE
:1032B000000000003B20636861727365743D2573F4
:1032C0000D0A000043616368652D436F6E74726F71
:1032D0006C3A206E6F2D63616368650D0A00000013
:1032E000436F6E74656E742D456E636F64696E67AF
:1032F0003A20677A69700D0A000000004C6173740F
:103300002D4D6F6469666965643A2000436F6E6E87
:10331000656374696F6E3A20636C6F73650D0A0D97
:103320000A000000002070470020704770B50E00B2
:10333000054618D0012E18D0022E18D0032E18D012
:1033400023A229A1FCF746FF04462819FEF780F9BD
:103350000444002E16D0281926A102F0BFF8044418
:10336000012E08D00EE02AA2EBE72EA2E9E732A256
:10337000E7E735A2E5E7384838A1C2682819FCF725
:1033800029FF044428193FA102F0A8F80444B6B16B
:103390002819424902F0A2F80444012E11D0022E4D
:1033A00011D0032E11D03E49281902F097F8044499
:1033B00028193C4902F092F8204480B270BDA0B2B6
:1033C00070BD3949F0E73949EEE73949ECE70000CB
:1033D000353031204E6F7420496D706C656D656EAF
:1033E0007465640D0A000000485454502F312E318A
:1033F00020257300436F6E74656E742D747970654B
:103400003A20746578742F68746D6C0D0A000000A2
:10341000333034204E6F74204D6F64696669656483
:103420000D0A000034303120556E617574686F727A
:10343000697A65640D0A000034303320466F726289
:10344000696464656E0D0A00343034204E6F742058
:10345000466F756E640D0A00705905005757572D59
:1034600041757468656E7469636174653A20426180
:10347000736963207265616C6D3D20222573220D96
:103480000A000000436F6E6E656374696F6E3A20C8
:10349000636C6F73650D0A0D0A000000D85B0500B0
:1034A0008D5B0500075C0500985A0500EE5A050083
:1034B0003F5B0500704700207047012070470020E7
:1034C0007047002070470020704700002DE9F04150
:1034D000012690460D46044600271BE01549496821
:1034E000A14201D82F7020E0252803D02B280DD130
:1034F00020200BE014F8010FFFF78AFD000128706F
:1035000014F8010FFFF784FD29780843641C05F8BF
:10351000010B761C2078262803D0202801D94645A7
:10352000DCD32F702078262802D00020BDE8F0815F
:10353000601CFBE7900000102DE9F041104E0127C0
:103540000025346817E02561656125836580656223
:1035500000220C4B11460520A56202F093F8607022
:103560000121217028B1F18802F0D0F8012800D1A2
:10357000257034347F1C3079B842E4DABDE8F0813C
:1035800070590500E935000070B500250446057046
:103590008078000602D5206BFFF78CFF6088C0059D
:1035A00002D5E06AFFF786FF6088800504D5002217
:1035B00011460320FEF702FD6088C00404D50022F6
:1035C00011460420FEF7FAFC606A10B1FFF744FCD4
:1035D0006562A06A10B1FFF73FFCA56225616561D5
:1035E0002583658070BD00002DE9F0479C460346A9
:1035F00000201546074601267C4A21E000EB8008A2
:1036000008EBC008146806EB880800F1010014F804
:1036100008409C4214D110F0FF0043D000EB80031F
:10362000126803EBC0036FF0330404EB8303D41878
:103630006F4A062936D2DFE801F0071814141A2061
:1036400014798442DADC2DE0107061462846FFF7D9
:10365000E8FC002827D02078002801D10220207023
:10366000BAE02046FFF790FFB6E00320F7E7218B92
:103670006069084460612783AEE0BCF1060F02D2A6
:10368000217809290ED1107005EB0C0050602078CC
:103690004FF004094FF00908032806D008287AD013
:1036A000092877D00020BDE8F08752A1284601F014
:1036B00036FF01280DD051A1284601F030FF012826
:1036C00020D050A1284601F02AFF012833D00A203B
:1036D000C5E76088AD1D40F400606080284601F0B9
:1036E000E3FC2846FFF70EFC20712946204600F037
:1036F0001DF9207807286FD02946204600F086F86B
:10370000266155E06D1D284601F0CEFC0646284690
:10371000FFF7F8FB20712946204600F007F92078D2
:10372000072859D016B13046FEF7E2FC294620465C
:1037300000F06CF830E0AD1DAA46284601F0B4FC5C
:103740005046FFF7DFFB20715146204600F0EEF8AF
:103750002078072840D0677151462046FEF7AEFD1D
:1037600005004FF0080607D06088400505D42946BB
:10377000204600F043FA00B926705146204600F07A
:1037800045F82078082827D06088400504D584F8BB
:1037900000807DB11AE00EE0A078C00708D0782044
:1037A000FDF770FF6062204601F0ECFC052056E753
:1037B00084F8009010E029462046FEF77FFD0500C2
:1037C0000AD06088400509D584F800802946204643
:1037D00000F056F90028DFD1012064E72946204691
:1037E00000F00CFA0028D7D15DE700007059050001
:1037F0009000001048454144202F000047455420C8
:103800002F000000504F5354202F00002DE9F041AD
:10381000044608780F46002608B93CA701263E4D0D
:10382000217A31B1A078C00703D13846FFF745FEB1
:1038300038B13846FFF745FE40B36188CA0704D067
:1038400008E0608840F0080058E02279012A18D08A
:103850000C2A16D041F08001618020634FF00040B7
:103860002061C8070BD13846FFF729FE30B1216A25
:10387000814203D1618841F0200161802062BDE86E
:10388000F08140F201121143618030E0384601F0CE
:103890002EFE0146002002E08A4205D0401C55F869
:1038A0003020002AF8D124E01AB36188CA0704D175
:1038B0002279012A15D00C2A13D005EBC0004268EA
:1038C0002263C2684068101A2061C807D7D1134824
:1038D000226A03689A4202D141F0200161800068A7
:1038E000CCE741F0010105EBC00061804068E06277
:1038F000C5E7012E04D0608840F004006080BEE778
:10390000012007A7207100268AE70000696E646520
:10391000782E68746D00000098580500446B000014
:10392000696E6465782E6367690000002DE9F047D1
:10393000064640880725000500D50125DFF8F890E8
:1039400099F8050008B925F001050027376237729C
:103950000C464FF0070865E0E80705D037A1204680
:10396000FEF7BAFD012810D0A80705D539A12046D9
:10397000FEF7B2FD012836D068074DD53AA12046A2
:10398000FEF7AAFD012840D046E01534214625F077
:1039900001050846FEF78AFA3A21204601F0B4FDF7
:1039A000B0F1000A1CDB04F80A70D9F8101009788D
:1039B00069B12046D9F81010FCF7B0FE38B904EB15
:1039C0000A00401CD9F81410FCF7A8FE20B304EB41
:1039D0000A01491C2046FFF7A5FC08B130721BE024
:1039E00086F8008018E0113425F002050020311817
:1039F000225C8A76215C2C2904D00D2902D0401C3F
:103A00000528F4DB3044877606E0133425F00405FE
:103A1000204600F01DFB3062184841682046FFF741
:103A2000A5FA04460CB1002D96D1E80701D086F81E
:103A30000080BDE8F087000070590500417574688A
:103A40006F72697A6174696F6E3A2042617369635B
:103A5000200000004163636570742D4C616E6775D2
:103A60006167653A2000000049662D4D6F64696604
:103A70006965642D53696E63653A200090000010FB
:103A80002DE9F041534F04460D46B888A0EB0500E0
:103A900080B278806179C9065CD4E188884270D9A7
:103AA000421A2946A06A01F025FC00286AD0E18864
:103AB000001D0D1865D04FF0000847A12846FEF7FD
:103AC0000BFD01280FD115352E460AE048A13046DE
:103AD00001F025FD01280DD030467968FFF75AFA2C
:103AE0000646002EF2D128467968FFF73FFA18B350
:103AF0000546E2E706F10A0122220E460A2306E005
:103B00009842F0D00D28EED00028ECD0761C30780A
:103B10009042F5D1002EE6D0701A82B286F800806D
:103B20000120FEF74BFA608840F4007060806079F5
:103B300040F020006071D6E728780D2847D16878DA
:103B40000A2844D16079AD1C40F01000607178689B
:103B5000A8423CD96179C1F30110032837D1788894
:103B6000E2684906A2EB0002E26021D4E1888842C3
:103B700009D9421A2946A06A01F0BCFB18B1801E7F
:103B80000CE024E021E07868E16859B1E28802F1B4
:103B90000803994206D2511A401A0838617941F057
:103BA00040016171401B82B229460220FEF706FAED
:103BB000E06804280BD2002211460320FEF7FEF92C
:103BC000608820F4007060800120BDE8F081002052
:103BD000FBE7000090000010436F6E74656E742D5B
:103BE000446973706F736974696F6E3A20000000E6
:103BF00066696C656E616D653D2200002DE9F041DE
:103C00003A4D04460F46A8884FF00006A0EB070087
:103C100082B26A806088C10460791CD5010706D42D
:103C2000E16891420ED940F00800607166616069F8
:103C300010446061E168884204D239460520FEF7ED
:103C4000BDF941E039460420FEF7B8F9608820F458
:103C50008050608047E0000720D4E068904204D89C
:103C600039460020FEF7AAF93EE0214980B2E08003
:103C70004A68B0EB920F02D9C2F38F00E08080B2A5
:103C8000FDF700FDA0626A88394601F021F86888D6
:103C90006061607940F00800607115E0E08861695A
:103CA00081420AD2401A824200D21046A26A5318B8
:103CB00002463946184601F00BF8698860690844E5
:103CC0006061E168884202D20020BDE8F081E288AC
:103CD000A16A881868600020FEF770F96E60A06A1B
:103CE000FFF7BAF8A66266610120EEE790000010C7
:103CF0002C5905002DE9F84F0025DFF828934FF0E7
:103D00000108AA46DFF820B385E1C8480178491CBC
:103D1000C9B201703279914201D980F80080C3485C
:103D20003168007800EB800202EBC0006FF03302D4
:103D300002EB80000C1820780B2810D2DFE800F08E
:103D4000060F060F108EF7F60F0FF600607801F0E1
:103D5000BFFC0228F1D2F188607801F0D7FC59E16C
:103D6000A07810F02C0F0FD00120FEF791F800285A
:103D7000F5D06088410701D5032539E1000701D559
:103D8000022535E1002533E1208B0028E7D1D4E975
:103D90000401814213D36088C1070CD0010605D508
:103DA00020F080006080206BFFF784FB204601F04C
:103DB000E9F90520E2E0607801F006FC5FE001200F
:103DC000FEF766F80028CAD0607801F021FD0646AB
:103DD00040F4004001F046FC00900028BFD060880D
:103DE000002581070AD440F0020060802046009937
:103DF000FFF71AF90546608800057BD40098A6EB0A
:103E0000050600EB0503A078000613D5B2B21946EB
:103E1000206BFFF758FB0746B04217D2206BFFF725
:103E200049FB608820F080016180C4F830A0C4F8AC
:103E300010800BE0D4E904100A1AB24200D93246CD
:103E4000216B0144184600F043FF87B2278378199D
:103E500082B26078009902F0ADF9BDE0606A007846
:103E6000632810D004DC23287ED02E2804D1A2E7BA
:103E700069287AD0742806D0607801F07DFB20464E
:103E8000FFF782FBA8E00120FEF702F800286DD0C2
:103E9000607801F0BDFC064640F4004001F0E2FB12
:103EA000070063D060880025810717D440F0020026
:103EB000608039462046FFF7B7F805460EE0701BD4
:103EC000616A82B2891C781900F0B2F8054405F1E4
:103ED0007800B04247D8204601F054F9606A007873
:103EE0007428ECD063283AD104F10C00DFF83CB11F
:103EF000009000E086E0A078C00601D4C4F80CA0D1
:103F00004A489BF80010001D0170701B82B2606A65
:103F10007919801C009BFEF70FF8C0F30D010D44CA
:103F20000104618804D541F0100103E058E044E049
:103F300021F010016180400415D405F1F000B04279
:103F400011D8A078C006E0D4204601F01BF9606AC1
:103F500000786328CDD0606A00787428AFD060887C
:103F600040F04000608002E023E009E052E0AAB2A5
:103F700022836078394602F01DF9062020702BE07C
:103F80006088C0050CD5606A801C04E0202905D03B
:103F90000D2903D0401C01780029F7D180F800A03A
:103FA000616A2046891CFFF731FC0420C4F814A084
:103FB000E4E7204601F0E6F850E7208B50BB0520EF
:103FC0002070A07810F0500F02D1204601F0DAF8EE
:103FD000608820F04000608089F80E80BDE8F88F8E
:103FE0000120FDF755FFA8B12078072810D004253F
:103FF000607801F00DFC01F035FB29460090FFF7D9
:1040000095F905462A466078009902F0D3F8D2E681
:104010000125EDE76D1C9BF804005E46A8423FF6C3
:1040200074AEDBE76C340010705905008C00001092
:1040300010B5002307E00C783CB15B1C04700A2C1F
:1040400003D0401C491C9342F5D398B210BD000028
:104050002DE9F04704460C30FCF736F9A0F2B275B2
:10406000872D29D840F26D106843691CDFF88480E1
:1040700000EB9107002604F1080900BF08EB860158
:10408000484601F04CFA012802D0761C0C2EF5D3DC
:104090000C2E11D017484C30012E30F81600074472
:1040A00004D9A80710F1004000D17F1C601DFCF767
:1040B0000BF9401E1E2802D90020BDE8F0873D18EC
:1040C00004F11100FCF700F905EB450100EBC10517
:1040D00004F11400FCF7F8F8C5EB051100EB8105BD
:1040E00004F11700FCF7F0F8C5EB051100EB8100B7
:1040F000E3E7000096590500024800210170418065
:10410000704700006C330010F8B5044630F8261BE9
:10411000FDF708FF002858D194F82600002704F185
:104120001E0648B3082850D194F82700F0BB208819
:104130002230FDF7A7FA80F8267080F827700785EF
:1041400022880546121F04F12A012A3000F0C0FD22
:10415000218805F12600FDF7E5FE288520882880C6
:1041600080200090002301223146284600F0C4FB45
:104170002846FEF771FE26E0154D2878C00723D0AB
:1041800094F8270090B9042205F10C01304600F0A4
:1041900093FD002818D0618DA88809BAB0EB114FA3
:1041A00013D120881A2810D1612000E00DE02118D9
:1041B00011F8331C814208D1401C7328F5DBA96833
:1041C000002088472F700120F8BD0020F8BD0000B6
:1041D0006C33001010B50E4C2078C00710D06088EA
:1041E00028B10C49097BC9070AD0401E07E0607856
:1041F00038B1401E607000F011F80748007A608006
:1042000010BDA168012088470020207010BD00006B
:104210006C3300106C3400102C59050038B51A4D61
:10422000E888401CE8803C20FDF72CFA082180F843
:104230002610002180F8271004460185A88800BABE
:10424000010C6185E88800BA010CA1856120211864
:1042500001F8330C401C7328F9DB1A2104F1260005
:10426000FDF760FE20851A202080802006490090FE
:10427000002301220C31204600F03EFB054620467B
:10428000FEF7EAFD284638BD6C3300100B4910B527
:1042900008380968002203E00A460968002909D0A5
:1042A0008142F9D106484C6803681B1B036012B1B8
:1042B0000868106010BD0020486010BD2C59050032
:1042C00020340010002070477047000010B500F047
:1042D0003BF80D4800680A21B0FBF1F0401E4FF09A
:1042E000E0214861052008610848006820F47F301B
:1042F0000649086000204860054806490860C86112
:104300000120FDF729F810BD3C00001000C002405C
:10431000E001000200C0092010B50121094801F0A8
:1043200033F802210748401D01F02EF8032105480B
:104330000A3001F029F8042102480F3001F024F876
:1043400010BD00000000001010B500F031F9084861
:1043500001213C2201600021018141810173054955
:104360003C3800F0B5FCBDE8104000F051B9000049
:104370006C340010F05805002DE9FC410020814903
:10438000087036200090694668467F4A1268904758
:1043900025210198B1EB106F02D1012079490870F5
:1043A0007A48006840F080407849C439C1F8C400B8
:1043B0007748784988607348007830B90846C06803
:1043C00020F00F00401DC8600BE07248006920F427
:1043D0007020704908617048006C40F480706E492C
:1043E00008644FF44F404FF0A041086078206B49BB
:1043F0000860642400E0641E002CFCD102204FF011
:10440000A0410860302048604001486143F20F70CD
:1044100008611220C8604001604908604FF40060E4
:104420004FF0A0418861642400E0641E002CFCD1A0
:1044300000204FF0A04188614FF4004102F028FBBA
:1044400000BF08E0002000F057FE054605F40840D4
:1044500000B903E0641CB4F5801FF3D300BF022051
:1044600000F04AFE0746032000F046FE06464FF6DF
:10447000F070304040EA07404949884213D14FF478
:104480004051002002F004FB002408E0012000F06D
:1044900033FE054605F0200000B103E0641CB4F5CE
:1044A000801FF3D300BF002408E0102000F024FE9A
:1044B000054605F0010000B103E0641CB4F5803F3F
:1044C000F3D300BF05F0040080B14FF0A040406876
:1044D00040F001004FF0A04148603048006840F4CF
:1044E0008060C1F800011520886003E012204FF0C1
:1044F000A041886005F0020020B100204FF0A041EB
:10450000886104E04FF480704FF0A0418861254835
:1045100000792449497940EA01204FF0A04108641C
:10452000204880781F49C97840EA01204FF0A04117
:1045300048641C4800781B49497840EA01204FF044
:10454000A041886400F0A2FE02F01AF82620164965
:1045500008608820154908604FF6FF70091D086043
:104560004FF0A040D0F8000140F003004FF0A04110
:10457000C1F800010846006840F001000860BDE88D
:10458000FC81000004C0072000C00720C4C00F4009
:104590000501155000C0024000C009200001005074
:1045A000905C00206A00001000020050E40F0050F0
:1045B00010B500F05DF8154913480022D1E9004319
:1045C00023441B1F23601A60626002608281827331
:1045D000C2734A68B2F5803F06D202EB42029208EB
:1045E00042604A68520805E0A2F5804242604A688B
:1045F000A2F500428260C97A11F0060F02D041682C
:104600004908816010BD0000203400102C590500BD
:1046100010B5FEF739FB00F03BF9FFF76DFD02F036
:104620005FF801F067F8FEF787FF00F07BFBBDE85D
:104630001040FEF70BB800000020002113E04000FE
:104640004FF48072094B9A6500BF00BF00BF4FF462
:104650008072064BDA651A46526D02F400720AB196
:1046600040F00100491C1029E9D3704700C009201F
:104670001C2001218140034A430942F8231000BF56
:104680007047000080E100E01C20012181404209C8
:10469000920002F1E022C2F8001100BF7047000052
:1046A00010B50446042C01DC012C09DA0EA000F040
:1046B000E7FE40F6B830FDF75BFF02F069F911E064
:1046C000601E0F4951F8200008B9012100E00021C7
:1046D000601E0B4A42F8201000F07AFE611EC8B23C
:1046E000FDF7D2FD10BD0000696E76616C69642033
:1046F00072656C6179206E756D62657200000000F4
:10470000A40000102DE9F0410446808A0E4600BA4C
:10471000050C218805F10E00814245D3A07C0421BF
:10472000B1EB101F40D1032E32D0264906EB860094
:1047300001EB800104F122000422074600F0BCFADC
:1047400030BB04222049384600F0B6FA00BB5EBBFD
:1047500039780E223846B2EB111F04D1FFF7B2FDB3
:10476000012810D009E017483968026880684A407B
:10477000024202D10843401C05D02046FEF77CFAD5
:1047800090B1E07E02E0E07E022801D011280BD13A
:1047900004F1120000F01AF830B9208B43F6FF71D3
:1047A00009BA10EA114F02D00020BDE8F081A07CC8
:1047B0000007800E00F10E016180281A2080012080
:1047C000F3E700003034001088590500017809072C
:1047D000890EFDF7A7BB00002DE9F04107460078E0
:1047E000274D7F2809D0274CE07AC00718D02649EA
:1047F000384600F029F9A0BB0CE003202871042200
:104800002249384600F058FA08B9042028711F4898
:10481000BDE8F0810422FF21384600F079FA00BBA0
:10482000E07A8107184800F11400804604D501465B
:10483000384600F009F9D0B9E07A134E400706F186
:10484000280604D53146384600F0FEF898B9E17ADA
:104850000A2088430BD0C9B2142088430BD0C80764
:1048600003D0002028710848D2E7880703D501202B
:1048700028714046CCE7022028713046C8E7000086
:104880007C0000102C590500303400108C590500B4
:1048900001490020086070477C000010144810B5E2
:1048A0000468002C22D0134A0121917361680160D1
:1048B00003212046FFF726FF012812D1E07E0128C0
:1048C00004D006280AD011280BD103E02046FFF7B8
:1048D0001BFC06E0204601F059FF02E0204601F0F3
:1048E000A9F92046BDE81040FEF7B6BA10BD000099
:1048F0007C0000106C3400102DE9F0470F46044690
:104900004F48012600250899012A09D0022A03D020
:10491000062A01D0112A7DD18673022A02D004E032
:10492000867302E06088262840D04520A074208845
:104930001430208080B200BA000CA082E374414B96
:10494000188890FA80FC4FEA1C4C401CA4F816C052
:104950001880062A39D000202083A176E276A5832C
:104960003846FFF739FF0146042204F11E0000F02B
:10497000AFF90422394604F1220000F0A9F904F14C
:1049800012008146FFF722FFA0832088DFF8B48061
:104990000E3080B208F10408208098F80410052930
:1049A0004CD2DFE801F0171C222749004620A074F2
:1049B000942084F82600042084F8270084F82850E6
:1049C00084F8295020881830B3E74FF4804000BAAB
:1049D000000CC1E72046BDE8F047FEF7D9B92046F4
:1049E000BDE8F047212100F09FBA2046BDE8F0471E
:1049F00000F072BD274640F08040FCF743FE040003
:104A00000DD03A8849460E3A04F1120000F060F9E0
:104A1000656000E012E0D8F8000018B105E0284613
:104A2000BDE8F087C8F8004004E0416809B10846D5
:104A3000FBE744603046F3E70120F1E70020EFE7B1
:104A40006C340010780000100268086889685040D3
:104A5000084201D0002070470120704700B54FF098
:104A60007E604B490862C8634FF08060C8634000B5
:104A7000C8634FF4C00088634FF0007088634FF440
:104A80009670FEF7F3F84FF000704149C8634CF29E
:104A90005030FEF7EBF84FF4C0003D49C86388631F
:104AA0004FF0007088634FF49670FEF7DFF84FF018
:104AB00000703749C8634CF25030FEF7D7F84FF416
:104AC000C0003349C8634FF480008863C000886326
:104AD0004FF49670FEF7CAF84FF000702C49C86387
:104AE0004CF25030FEF7C2F84FF480002849C863FA
:104AF0004FF4C00088634FF0007088634FF49670E5
:104B0000FEF7B4F84FF000702149C8634CF2503002
:104B1000FEF7ACF84FF4C0001D49C86388634FF03E
:104B2000007088634FF49670FEF7A0F84FF00070A5
:104B30001749C8634CF25030FEF798F84FF4C000A4
:104B40001349C8634FF480008863C00088634FF442
:104B50009670FEF78BF84FF000700D49C8634CF269
:104B60005030FEF783F84FF480000949C8632820CD
:104B7000FDF7C6FC0120FDF7C3FC0C20FDF7C0FCCF
:104B80000620FDF7BDFC8020FDF7BAFC00BD00004B
:104B900000C0092000B503464FF0806018498863C3
:104BA0004000C8631809400588634FF000708863AF
:104BB0004FF49670FEF75AF84FF000701049C86332
:104BC0004CF25030FEF752F8180940050C49C86302
:104BD0001807C00988634FF0007088634FF496701F
:104BE000FEF744F84FF000700549C8634CF25030AE
:104BF000FEF73CF81807C0090149C86300BD000072
:104C000000C0092030B50446002503E0605DFFF7D1
:104C1000C1FF6D1C605D0028F8D130BDFFF756FB69
:104C2000FFF71CFFFEF7DEF901F0D8FC322008493F
:104C30000860FFF771FB01F0ABFE01F05FFC05E0DF
:104C400001F06EFC00F006F8FDF7A2FCF8E70000AA
:104C50003800001010B5154C0020617B012905D0EB
:104C60002073A07300F002FBA07B10BD60730121D4
:104C7000A173217B0E4B41F00101217362895B7AA4
:104C80001A4492B26281B2F57A7FEBD360812089B7
:104C9000401C208141F002002073064960684843AF
:104CA00043F2390108446060DCE700006C34001016
:104CB0002C5905006D4EC64110B505E0835C8C5C37
:104CC000A34201D0002010BD521EF7D5012010BD17
:104CD00010B50346002002E00C5C1C54401C9042BE
:104CE000FADB104610BD70B504460D464FF0FF309C
:104CF00006E0227801461046FEF7F0F8641C6D1EAF
:104D0000002DF6D170BD521E01D48154FBE77047CF
:104D100004E0835C8B4201D000207047521EF8D51E
:104D20000120704710B5074A0321002001F0B6FCAE
:104D300005490028087004D0BDE81040892101F021
:104D4000DBBC10BD4D4D0000980000102DE9FF4F59
:104D5000DFF848B181B01C469BF800100E9F8142DD
:104D60007ED1892A7CD1322F7AD360884FF4887122
:104D700009BAB0EB114F73D1A1884FF0010A9AFA2A
:104D80008AF0B1EB104F6BD1E088002631BAB0EB5E
:104D9000114F65D1208931BAB0EB114F7BD16089B9
:104DA00031BAB0EB114F76D12820FCF76BFC0546E9
:104DB00004F10D01B0460A7813014A78A3F5826325
:104DC000413A1A4300F80820891C08F10108B8F19B
:104DD000100FF0D300EB080111F8011C09B12029D4
:104DE00002D1B8F10108F5D12D4805F80860B146A7
:104DF000C16805F11400064600F09EFB08F10102AF
:104E000031462846FFF758FF01283DD107F10C082D
:104E10001FFA88F001F032FC0646208830804FF4FB
:104E2000054000BA000C708099FA89F0000CB0803F
:104E30009AFA8AF0000CF08099FA89F0000C30811F
:104E400099FA89F0000C7081277B04F10C01BA1DDE
:104E500006F10C00FFF73CFF1237F019082200E0C2
:104E600019E01049FFF734FF0837F01904220E4902
:104E7000FFF72EFF1FFA88F00090334689229BF837
:104E80000000029901F0F6FC2846FDF7E5FF01203D
:104E900005B0BDE8F08F0020FAE700009800001090
:104EA0002C590500845A05003034001001784278EE
:104EB000090641EA02418278C07841EA02210843AA
:104EC00070470A0A0270417070470A0E02700A0C9D
:104ED00042700A0A8270C17070470000C1F120025E
:104EE00090401BE000F0004222B14FF400720D4BE5
:104EF0009A6503E04FF400720A4BDA6500BF00BF09
:104F000000BF4FF48072074B9A6500BF00BF00BF1F
:104F10004FF48072034BDA654000491E0029E1D14D
:104F20007047000000C009200020704770B50D4692
:104F3000174E415D44193A2917D003DC11B33329C8
:104F40001CD104E03B2915D0FF2917D11CE0A01C7F
:104F5000FFF7ACFF00EB80010A22B1FBF2F1C0EBDE
:104F6000C000C008C6E9041008E0A01CFFF79EFFBF
:104F7000306103E0A01CFFF799FF70616078AD1C01
:104F8000284470BD681C70BD4FF0FF3070BD00003C
:104F90007C3300102DE9F0410646405C8D1C7418EE
:104FA0002A2855D009DC032819D003DCB8B301281E
:104FB00053D110E0062850D118E02C4F3B2834D0B4
:104FC00004DC33281DD03A2847D129E0432831D0CA
:104FD000FF2842D147E0A11C0422254803E02448D1
:104FE000A11C0422001FFFF773FE36E020480422B4
:104FF00000210830FFF787FE1D48A11C6278001DC4
:10500000F1E7A01CFFF752FF00EB80010A22B1FB81
:10501000F2F1C0EBC000C008C7E904101DE020E0B9
:10502000A01CFFF743FF386117E0A01CFFF73EFF0D
:10503000786112E0607800213044475D4155627824
:10504000A11C4320FDF7A3FA60783044475504E0E3
:105050006278A11C2A20FDF79AFA60782844BDE8FE
:10506000F081481CFBE74FF0FF30F8E77C3300107D
:105070003834001070B50C46015D71B10519362940
:1050800002D0FF2905D10AE0A91C04220548FFF738
:105090001FFE6878A41C204470BD601C70BD4FF0DA
:1050A000FF3070BD8033001008490022496805E0D8
:1050B00003783F2B07D0202B02D0401C8142F7D829
:1050C00002700020704700F8012B7047900000101C
:1050D000084A30B413785478591C01F01F018C42EF
:1050E00005D002EB83035860117030BC704730BCB0
:1050F000FFF7CCB89C33001070B506461F48007807
:1051000001281ED11E48006C40F400701C49086440
:1051100020214FF0FF30FFF7E1FE04210620FFF7CA
:10512000DDFE05210120FFF7D9FE05213046FFF7FE
:10513000D5FE01F00FFAFFF77FFA054601F00AFAF3
:105140001AE046F480704FF0A04188620120486266
:10515000002407E04FF0A040406B00F0010000B9D0
:1051600003E0641CB4F5A02FF4D300BF00204FF07F
:10517000A04148620846056BA8B270BD04C0072074
:1051800000C0092070B5044640884FF02E06C005C7
:105190004FF0000523D57822616AE06AFEF78BF9AB
:1051A0000028606A0ED000782328F4D020790C28DB
:1051B00014D1606AFBF792FA616A421E8A5C0A2A7D
:1051C00004D00AE00670606A4570EFE70246921E5E
:1051D000401E8A5C0D2A00D1401E0D5470BDE06A4D
:1051E000626A0178012905D0022905D0032905D07A
:1051F000167070BD742102E0632100E06921117016
:10520000626A202151700221401C0278042A05D3D1
:10521000636A401C5A54491C7729F6D3626A555474
:10522000E06270BD2DE9F0410F4DEA7B22B1BDE88F
:10523000F041032000F08DB90180A0F108040F3186
:10524000606821F00306B0420CD9871BFFF710FA03
:1052500066602868C01B28600020E873BDE8F04144
:10526000FFF712BABDE8F0812034001010B5FDF749
:1052700025FDFFF713FBFEF7ADFF00F00BFBFEF77C
:1052800039FDBDE81040FDF707BB0000002013E02A
:1052900000EB4001124A02EB4121124A42F8301061
:1052A000114902EBC00251600021104A42F830104F
:1052B00002EBC0025160401C0428E9D309490C4AA2
:1052C00011600A494FF0A042C2F80C110321084AAC
:1052D0000832116000214FF0A042C2F81811704747
:1052E0006CC0072008C00720FF05008028C00720E9
:1052F0000801005070B515460C4606001CD019E098
:1053000060782D2814D120782D2803D0A0782D285E
:1053100008D00DE03146A01C00F001F9012807D1AA
:10532000204670BD3146E01C00F0F9F8012805D098
:10533000A41CAD1E012DE3D8002070BD601C70BD03
:1053400070B50F4D2968031D0E4D55F83140058885
:10535000ED1CAA1002E020CB20C4521E002AFAD174
:1053600005886D1E45F04045064E06EBC10675608A
:105370004D1C2946032D00D10021014D296070BD2F
:105380002801005048C0072038B504460D460520C6
:105390000090681E00EB8000421C23460121A020E3
:1053A000FCF70CF838BD000010B5002400BF0AE07F
:1053B00004F18501C8B2FDF7A3F80449085DFFF7C1
:1053C000E9FB601CC4B20B2CF2DB10BD1500001011
:1053D00010B5002400BF1AE004F1C601C8B2FDF701
:1053E0008FF80C4850F82400012803D15E20FFF705
:1053F000D1FB0AE0074850F8240018B95F20FFF7F6
:10540000C9FB02E04520FFF7C5FB601CC4B2042CB9
:10541000E2DB10BDA400001010B58020FDF770F88D
:105420000C48007820B1012806D002280CD107E0F2
:105430002D20FFF7AFFB0BE05220FFF7ABFB07E09F
:105440004F20FFF7A7FB03E04520FFF7A3FB00BFBA
:1054500000BF10BD1400001010B5002400BF0AE00A
:1054600004F1CB01C8B2FDF74BF80449085DFFF722
:1054700091FB601CC4B2052CF2DB10BD20000010B3
:1054800010B504460120FDF73BF88020FDF738F801
:105490002046FFF7B7FB10BD38B50446ACB10A2C67
:1054A00004D00B2C04D00C2C06D103E0302038BDE6
:1054B0002A20FCE72320FAE70548027805A1684680
:1054C000FAF788FE9DF80000F1E700BFEFE7000063
:1054D0002E000010256400000020704702460020C6
:1054E0000B5C1354002B01D0401CF9E7704710B53A
:1054F0000446002004E001461046FDF7EFFC641C62
:105500002278002AF7D110BD0246002002E08B422B
:1055100004D0401C135C002BF9D1581E704706E0E4
:105520000378934201D000207047401C491C0A7840
:10553000002AF5D1012070470A78A2F16103192BE6
:1055400000D8203A0270002A02D0491C401CF3E720
:10555000704707280CD2DFE800F0040506070809A9
:105560000A0005E004E003E002E001E000E000BF23
:1055700000BF00BFFEE7000010B508B311490A796B
:1055800082421DD3096800EB00106FF0430202EB6A
:1055900080000C1820780B2812D2DFE800F0110AE6
:1055A000060C060C0C0606060C000121204600F035
:1055B0000FFF012010BD0421204600F065FEF4E736
:1055C000002010BD5859050070B578B3244D2979D5
:1055D000814242D300EB00106FF04302296802EBD6
:1055E00080000C1820780B2837D2DFE800F0362E28
:1055F0000E060E2E2E2E2E2E1000A069401CA0612D
:1056000025E0204600F0E4FE1FE00121F9E7A07844
:10561000C1071AD1D4E90612914218D040F0010016
:10562000A070400703D5501CE0610EE015E0112189
:10563000204600F029FE208EB4F92E1000EBE10088
:1056400060826879A075E0892082012070BD1121F7
:10565000204600F019FE0521D3E7002070BD0000B0
:105660005859050010B5010403D520F4004040F05E
:1056700080403630FCF706F8002802D03621418001
:105680003A3010BD2DE9F0411F2803D813B10F4E59
:105690001AB103E00020BDE8F081F28901253468E9
:1056A00003E0277847B144346D1C3779AF42F8DA0C
:1056B0000520FFF74EFFEDE7012626706070E170D0
:1056C0002364E281E8B26075E5E7000058590500FF
:1056D00018B107490A79824201D2FF207047096850
:1056E00000EB00106FF0430202EB8000085C704793
:1056F0005859050004480179006801EB01118A003E
:105700000021FFF700BB00005859050010B5B0B1EB
:10571000184B1A79824212D389B100EB00106FF056
:1057200043041A6804EB800010444278D20706D084
:105730000278012A05D0022A03D0092A01D00020CC
:1057400010BD0222027000228270028141814FF45A
:1057500006718181598AC18682858261C2618263B4
:105760008275C26304220021001DFFF7CCFA0120DC
:1057700010BD0000585905002DE9F041234E0546A3
:1057800001F10C083779346817E02078022812D923
:105790002988208909BAB0EB114F0CD1698860893A
:1057A00009BAB0EB114F06D104224146201DFFF784
:1057B00083FA012808D044347F1E002FE5DC687B83
:1057C00010F0150F1FD102E02046BDE8F0818007E0
:1057D00019D53079346814E0217802290FD16A880C
:1057E000618912BAB1EB124F09D104224146201D42
:1057F000FFF76EFA288800BA000C2081E4E74434F1
:10580000401E0028E8DC0020DFE7000058590500B2
:10581000074900EB00106FF03702096802EB8000C7
:10582000085A40F2B451884200D908467047000037
:1058300058590500F0B50A7B6FF0030303EA92059F
:10584000143D25D01431002240F2B4534FF40674B5
:105850001CE08E5C002E1BD0012E02D0022E10D137
:1058600001E0521C12E08E187778042F09D1768857
:1058700076BA9E4201D91E4602E0A64200D22646D2
:1058800086818E187678002E02D03244AA42E0D368
:10589000F0BD00002DE9F047DFF870929C4D99F8BB
:1058A0000C30D80712D0002229680CE0488A10B1C9
:1058B000A0F101004882980703D5088A08B1401E6C
:1058C00008824431521C28799042EFDC002637468A
:1058D000DFF84082FCE098F800104046491CC9B24D
:1058E00088F800102A79914201D901210170C8B2CB
:1058F00000EB00106FF043012A6801EB80001418E0
:1059000020780B287DD2DFE800F0E2E2E2B0A3CA03
:10591000DACACABE0600A078C00708D0D4E90601DA
:10592000884204D11121204600F0AEFC53E0207DD6
:1059300040B199F80C10C90704D0401E10F0FF00C8
:10594000207518D0208AC0B1A27812F0240F57D049
:10595000D4E906010B1A618EA08D814200D208465F
:10596000A189194481424BD8500736D52046BDE85D
:10597000F04700F0D5BB10219CE06078C0061CD534
:10598000A078800706D4A07840F04200A070687923
:10599000A0750AE0608A002833D1A07D40B1401E86
:1059A000A075A07840F04000A070E8886082E2E72F
:1059B000A07840F01000A07092E01121204600F085
:1059C00063FCA078221D40F01000A070256C238994
:1059D000607D0221A847052192E00120FCF758FADA
:1059E00070B1A078221D40F01000A070D4F840C023
:1059F0002389607D0421E047A07820F03000A0706A
:105A000000E03FE0D4E90601884260D0608AC8BB6C
:105A1000A07DC8B1401EA075608EA18988420AD9B8
:105A2000A28D824200D210464008B0EB410F00D850
:105A30004800A0866186E775A07820F00800A07075
:105A4000204600F060FB91E7204600F04FFBAFE7F7
:105A5000608AB8B9A069E061A07DE0B3401EA0757E
:105A600068896082A786022124E0608A50B9A06913
:105A7000E061A07D78B3401EA075E8886082A786AB
:105A8000122117E023E0608A08BB6078C00701D0CC
:105A9000022100E00121204600F09AFC17E0608A14
:105AA000A8B9A069E061A07DA8B1401EA075E888F2
:105AB000608211212046BDE8F04700F0E5BB608A16
:105AC00028B9A07D38B1401EA075E8886082761C98
:105AD0002879B04200E003E03FF6FDAEBDE8F08774
