:020000040000FA
:10000000385400109D010000A5010000A701000068
:10001000A9010000AB010000AD01000000000000DC
:10002000000000000000000000000000AF01000020
:10003000B101000000000000B3010000B5010000A4
:10004000B7010000B7010000B7010000B7010000D0
:10005000B7010000B7010000B7010000B7010000C0
:10006000B7010000B7010000B7010000B7010000B0
:10007000B7010000B7010000B7010000B7010000A0
:10008000B7010000B7010000B7010000B701000090
:10009000B7010000B7010000B7010000B701000080
:1000A000B7010000B7010000B7010000B701000070
:1000B000F9110000B7010000B7010000B70100000E
:1000C000B7010000B7010000B701000000F002F81E
:1000D00000F054F80AA090E8000C82448344AAF18E
:1000E0000107DA4501D100F049F8AFF2090EBAE88C
:1000F0000F0013F0010F18BFFB1A43F0010318475C
:100100005C7705009C770500103A24BF78C878C159
:10011000FAD8520724BF30C830C144BF04680C600D
:10012000704700000023002400250026103A28BF55
:1001300078C1FBD8520728BF30C148BF0B60704759
:100140006E2900F0B380702900F01681642900F058
:10015000D780632900F0D584732900F0DA84002069
:1001600070471FB501F016F804000020002108F0C8
:1001700029FC401C60601FBD10B510BD00F0E5FFFC
:100180001146FFF7EEFF05F095FF01F007F803B405
:10019000FFF7F2FF03BC01F0F7FA000009488047BF
:1001A00009480047FEE7FEE7FEE7FEE7FEE7FEE759
:1001B000FEE7FEE7FEE7FEE704480549054A064B71
:1001C00070470000BD140000CD000000384A001048
:1001D00038540010384C0010384C001070470000A4
:1001E0000FB41CB5084B06AA7B44694600900598DD
:1001F00000F065FC04460020694600F073FC2046D0
:100200001CBC5DF814FB0000F908000070B5044642
:1002100085690068C10601D5302600E02026C007A8
:1002200007D070BDD4E9012130469047206A401CB8
:1002300020626D1EF6D570BD70B5044685690078E4
:10024000C00707D170BDD4E9012120209047206A62
:10025000401C20626D1EF6D570BD70B50C4605467B
:10026000012A05D02878800600D5EA69002302E03B
:10027000012305E05B1C934202D2E05C0028F9D127
:10028000A869E618C01AA861286A18442862284696
:10029000FFF7BCFF04E0D5E9012114F8010B9047FA
:1002A000B442F8D32846FFF7C7FF70BD1168026853
:1002B000006A530501D508700AE0D30501D508800E
:1002C00006E0130603D5C217C1E9000200E008608A
:1002D0000120704770B5064600F00CF8046805462A
:1002E00030460A22002100F05DFC2C6070BD704792
:1002F0007047704700487047D8490010FFFFFFFF64
:100300002DE9F0410646002410687529314616A5EE
:1003100010D0AFF30080002802DA404213A507E0B6
:1003200031688A0701D512A502E0490704D511A555
:10033000012401E0AFF3008000210A2206F1240726
:1003400009E0B0FBF2FCB0FBF2F302FB1C00303022
:1003500078541846491C0028F3D123462A463046D3
:10036000BDE8F04100F04CBB000000002D00000093
:100370002B00000020000000F0B41368026808247D
:10038000C4610C4642F020020260110502D50E4AFB
:100390007A4402E00C4A7A440E32002100F124052E
:1003A00005E003F00F061B09965D6E54491C002BF7
:1003B000F7D105782D0703D5702C01D10123103218
:1003C000F0BC00F01DBB00006D7405002DE9F05F6E
:1003D000894604464FF0000ADFF874B1FB44C0F8C8
:1003E00020A02046E1688847002874D0252806D040
:1003F000D4E901219047206A401C2062F1E70026E1
:100400005F462046E16888472028054607DB312DF6
:1004100005D2781910F8200C08B10643F1E7B007AF
:1004200001D526F00406C4F81CA00027C4F818A0C3
:100430002A2D09D0284601F095F938B304EB870836
:10044000303DC8F8185019E059F8041B204604EB59
:1004500087029161E1688847012F054618D1E0695C
:10046000002820DA26F020061DE0D8F8180000EB5E
:10047000800005EB40003038C8F818002046E168DD
:100480008847054601F06EF90028EED1012F0AD009
:100490002E2D08D12046E16888477F1C0546022F93
:1004A00046F02006C4DBA069002803DA404246F08B
:1004B0000106A061F00701D026F010066C2D0BD0CC
:1004C000682D09D04C2D39D06A2D35D0742D35D0FA
:1004D0007A2D33D016E038E0E1682F462046884771
:1004E000B842054609D16C2F26D04FF48060E168F0
:1004F000064320468847054604E06C2F1AD04FF487
:10050000807006430DB3A5F14100192802D82035AB
:1005100046F400664A462946204626604E46FFF7C6
:100520000FFE80B101280BD0F61D26F0070000F168
:10053000080956E74020E4E78020D8E70020D6E706
:1005400006F104094DE7284652E7206ABDE8F09F0E
:10055000497405000FB400B58DB010A90990009141
:100560000B904FF0FF300A9000200C900648784422
:100570000690064878446A4607900F9909A800F04B
:10058000E1FA0DB05DF814FBF30500000B06000066
:100590002DE9FF5F1D464FF0FF3B91464FF00008ED
:1005A0005F46D5E90146A96901987F1C8847296AF9
:1005B000824688470028F6D1BAF1FF3F0CD0002EC2
:1005C00024F4C06419DD600614D5BAF12B0F09D0EC
:1005D000BAF12D0F0ED103E0584604B0BDE8F09FEC
:1005E00044F48064A96901987F1C8847761E82467E
:1005F000002E02DDBAF1300F03D0B9F1000F26D082
:1006000032E0A969761E01987F1C44F40074884783
:10061000002E824605DDBAF1780F06D0BAF1580FE8
:1006200003D0B9F1000F10D01EE0B9F1000F02D0D5
:10063000B9F1100F18D1A969761E01987F1C24F416
:10064000007488478246102002E0082000E00A205B
:10065000814609E0A96908FB0908761E01987F1CFC
:1006600044F4007488478246002E05DD4946504612
:1006700000F053FA0028EDDAE96901988847A005EF
:1006800002D46FF00100A8E7E00725D1600613D57A
:10069000600502D5C8F1000000E0404629680A1D47
:1006A0002A600968220501D5087015E0220701D5E6
:1006B000088011E008600FE02868011D29600068CB
:1006C000210502D580F8008006E0210702D5A0F8B8
:1006D000008001E0C0F8008038467EE72DE9F04751
:1006E00004464FF000094FF0FF37C568D4E904868F
:1006F000A80707D0204600F0C1FA304601F039F8CB
:10070000002802DA3846BDE8F087280502D54046C1
:1007100000F042F94C21204600F0D7F8206D20F07F
:10072000010020654846EEE72DE9F0410546904678
:100730000E460020044600E0641C44450BD2285DB0
:1007400000F051F90746305D00F04DF9381A02D13A
:10075000295D0029F0D1BDE8F08110B5431C02E00D
:1007600010F8011B71B18107FAD14FF0013202C8B4
:100770008C1A8C4314EAC211F9D0C01A0A0603D0AD
:10078000C01E10BDC01A10BD0A0401D0801E10BDCD
:100790000902FCD0401E10BD032A40F2308010F048
:1007A000030C00F0158011F8013BBCF1020F62440C
:1007B00098BF11F801CB00F8013B38BF11F8013B9D
:1007C000A2F1040298BF00F801CB38BF00F8013B4A
:1007D00011F0030300F02580083AC0F0088051F8BA
:1007E000043B083A51F804CBA0E80810F5E7121DC5
:1007F0005CBF51F8043B40F8043BAFF30080D207E4
:1008000024BF11F8013B11F801CB48BF11F8012BAF
:1008100024BF00F8013B00F801CB48BF00F8012BD2
:10082000704710B5203AC0F00B80B1E81850203A5C
:10083000A0E81850B1E81850A0E81850BFF4F5AF80
:100840005FEA027C24BFB1E81850A0E8185044BF0A
:1008500018C918C0BDE810405FEA827C24BF51F877
:10086000043B40F8043B08BF7047D20728BF31F86B
:10087000023B48BF11F8012B28BF20F8023B48BFBC
:1008800000F8012B70474FF000020429C0F01280DD
:1008900010F0030C00F01B80CCF1040CBCF1020F33
:1008A00018BF00F8012BA8BF20F8022BA1EB0C0108
:1008B00000F00DB85FEAC17C24BF00F8012B00F8FE
:1008C000012B48BF00F8012B70474FF0000200B524
:1008D000134694469646203922BFA0E80C50A0E863
:1008E0000C50B1F12001BFF4F7AF090728BFA0E811
:1008F0000C5048BF0CC05DF804EB890028BF40F8DD
:10090000042B08BF704748BF20F8022B11F0804F1E
:1009100018BF00F8012B70474FF0013C50F8042B32
:1009200051F8043B9A4221D1A2EB0C03934313EA02
:10093000CC1317D150F8042B51F8043B9A4215D12F
:10094000A2EB0C03934313EACC130BD150F8042B06
:1009500051F8043B9A4209D1A2EB0C03934313EAEA
:10096000CC13DBD04FF00000704700BFD01A01BAA3
:10097000B1FA81F101F0180122FA01F0CB40C1F186
:100980002001DBB2C0B2C01A2CFA01F3D11A914394
:1009900011EAC311E6D1704770B50446051F00F097
:1009A000BDF90068002C14BF446870BD002C18BF4E
:1009B000AC423CBF20466468F8D301680A18AA42DA
:1009C00018BF456003D12A680546114401602868B4
:1009D0004119A1421CBF6C6070BD616869602168EB
:1009E0000844286070BD10B5044600F08FF9006817
:1009F000005DC00602D504F1200010BD204610BDE8
:100A00002DE9F0470D4699469246044600F1240828
:100A10000168880604D5E06921F01001216000E03A
:100A20000120A84201DD471B00E00027A1697A19D7
:100A300002EB0900081AA0612078C00602D4204603
:100A4000FFF7E4FB002608E0D4E901211AF80600CC
:100A50009047206A401C761C20624E45F4DB2078CB
:100A6000C0060AD52046FFF7D1FB06E0D4E90121F4
:100A700030209047206A401C2062381EA7F10107F1
:100A8000F4DC07E0D4E9012118F805009047206A5A
:100A9000401C2062281EA5F10105F3DC2046FFF76B
:100AA000CBFB2078000602D50220BDE8F0870120AC
:100AB000FBE7000001694A1C02610878704700B535
:100AC0008FB0CDE901310021059105497944CDE987
:100AD000031011466846FFF779FC0FB000BD000017
:100AE000E5FFFFFF0A6802F8010B0A60704710B5C6
:100AF000436913B1AFF3008001E0FFF7AEFB0120C3
:100B000010BD127800F124010A7000224A700122FF
:100B1000EDE711684FF0FF32E9E73A2800D23038AC
:100B200020F02002412A01D3A2F13700884201D3EC
:100B30004FF0FF30704700000268114413780160E5
:100B400018467047D1600549794451610449794498
:100B5000116200211161114600F0EEB8EDFFFFFFB8
:100B6000D3010000426842B1016811F8013B23B192
:100B7000521EC0E90012184670470121C160881E4C
:100B8000704742685AB1C368016843B983688B42B1
:100B900005D0491E521CC0E90012002070474FF0DA
:100BA000FF3070472DE9F04791460F4680460446D6
:100BB000002614F8015B2DB100F0A8F80068405D34
:100BC000C007F6D12B2D02D02D2D18D0641E4A4619
:100BD0003946204600F06AFA27B13968A14201D1AE
:100BE000C7F800804FF0020471050BD54042002881
:100BF00003DDFFF77FFB0460A007BDE8F08746F444
:100C00008066E4E70028F8DAFFF774FB04606FF011
:100C10000040F2E7C16821F4001141F08001C16099
:100C200000218160016070472DE9F047814614463C
:100C30000E464FF0FF383248D5685769054209D053
:100C40003846A16900F0A2FD002811DB2C48C04302
:100C50000540E5602B4632464946384600F0A4FD83
:100C6000A16920F00042B21A11440028A16103D00A
:100C70002046FFF7CFFF4046BDE8F08770B5044639
:100C80000569C06A6168884200D80846E16821F4B5
:100C90002011E160C90312D5A84208D02246411BA9
:100CA0002846FFF7C1FF10B14FF0FF3070BD0020A4
:100CB000E562C4E90150E06820F48030E060002083
:100CC00070BD10B50446C06820F02000E060A16A45
:100CD000A06988420DD02046FFF7D0FFE06820F4DD
:100CE000405040F01000E060A06AA0612069E0621E
:100CF000606044F24001E0688843E06010BD00009D
:100D00001000020000487047D849001010B500F0EC
:100D100041FA001D10BD00BFAD7C000000487047C7
:100D2000E049001010B50446FFF7F0FF0068005DD1
:100D300000F0010010BD00002DE9F34F4FF0000A54
:100D40000C4656468DB001200C9001F10C000B9022
:100D500062690B9801219047051E2DD0252D2CD0BE
:100D6000216A8847C0B162690B9801219047216AC6
:100D700088470028F7D16269411E0B98904700E030
:100D8000761CA1690D988847216A88470028F7D109
:100D9000E1690D988847DBE7A1690D988847A8426B
:100DA000074601D1761CD3E7E1690D9888477F1C7F
:100DB00002D1BAF1000F6FD06BE162690B98002786
:100DC0003D46394690472A2804D162690B98012193
:100DD00090470125DFF8D08262690B980121904786
:100DE000A0F130010A290AD24745E5DC07EB87016B
:100DF00000EB4107303FDFD445F01005ECE7E90692
:100E000001D46FF000476C280AD04C2814D0682811
:100E100015D06A280DD074281CD07A281AD01DE06D
:100E200062690B98012190476C2802D045F00405B7
:100E300014E045F002050DE045F020050AE0626986
:100E40000B9801219047682802D045F0080505E07D
:100E500045F4006562690B9801219047C4E9015788
:100E600065283DD019DC58287AD00CDC452837D0CD
:100E700004DC252826D041289ED131E046282FD0F9
:100E8000472899D12CE05B2877D0612828D06328A7
:100E90007CD0642823D15AE0F6E06F2848D008DCE3
:100EA00066281DD067281BD0692821D06E2816D14E
:100EB00027E0702845D0732868D0752847D0782857
:100EC0000DD14DE0A1690D988847252805463FF4CE
:100ED00069AFE1690D9888476D1C3FF46AAFD8E0AF
:100EE0000D9923466A466FF00100AFF30080C5E01C
:100EF00045F0400023464FF000026060A80736D45A
:100F00003EE0E8077FF447AF2068011D21600068DC
:100F1000290501D506701BE7290701D5068017E7CB
:100F2000A90703D5F117C0E9006111E706600FE7D3
:100F300045F0400023464FF008026060A80716D431
:100F40001EE040F60E0125EA0100606016E045F063
:100F5000400023464FF00A026060A80707D40FE064
:100F600045F040006060A80708D5234610220D997F
:100F70006FF00100AFF3008080E007E0102223460D
:100F80000D996FF00100FFF703FB77E04FF00009C8
:100F900063284F46C8464B46CB4602D05B2806D056
:100FA00038E0E80601D40120A060012732E0626940
:100FB000D4F80CB00B98012190475E2807D14FF070
:100FC000010949466269D4F80CB00B989047216931
:100FD00039B900210A4603AB43F82120491C0829EE
:100FE000FADBD8B3216949B308F1010862690B98AB
:100FF000012190475D28F4D1B9F1000F09D00020FC
:1010000003A951F82020D24341F82020401C082891
:10101000F7DB03AB2069002820794FEA40701ED02F
:101020005B462246CDF80080CDE901970D99002856
:101030006FF0010020DAAFF300801FE0C11703AAB0
:1010400000EBD1614B1121F01F0102EB8302411A29
:1010500013680120884003431360C7E719E00D9926
:10106000224600286FF00100009702DAAFF30080FB
:1010700004E0AFF3008001E0AFF3008000280ADA5B
:10108000401C06D10C9820B14FF0FF300FB0BDE8E6
:10109000F08F5046FAE7E90701D10AF1010A064448
:1010A00000200C9054E60000CCCCCC0C2DE9F05F75
:1010B000824615468B4600270AF10104B94600789E
:1010C000302801D09DB113E014F8010B01277828D6
:1010D00003D0582801D045B10AE00DB1102D07D139
:1010E000002714F8010B102502E0082500E00A256E
:1010F0000026B0460EE005FB080005FB06F10127BF
:101100001FFA80F801EB1046B6F5803F00D3B946D0
:1011100014F8010B2946FFF700FD0028EBDABBF1BC
:10112000000F05D00FB1641E00E05446CBF800401C
:10113000B9F1000F06D0FFF7DDF802210160C81EEB
:10114000BDE8F09F48EA0640FAE77546FFF7DAFD8A
:10115000AE4605006946534620F00700854618B0A4
:1011600020B5FFF729F8BDE820404FF000064FF00A
:1011700000074FF000084FF0000B21F00701AC46CC
:10118000ACE8C009ACE8C009ACE8C009ACE8C009EB
:101190008D46704700487047F849001010B5044666
:1011A000AFF300802046BDE81040FEF7F0BF00001E
:1011B000024609481044401EB0FBF2F101B9022179
:1011C00001F0010000B1491CFE2900D9FE210348AD
:1011D0000161012070470000A086010000800840E6
:1011E00000200449496F01F0007109B940F0010085
:1011F0007047000000C009202DE9F04741E0274872
:10120000C0F8008008F00800002839D0244804689D
:1012100031E0244850F8347007F0804000B923E0F2
:10122000C7F30A00C51E40F2EA50854202D81E48A4
:10123000384000B118E045F0004000F0F1FA0646F1
:101240008EB106F1040A194850F83490E81C85085C
:1012500004E059F8040B4AF8040B6D1E002DF8D178
:10126000304605F0D9FD00BF601C0446042800D1BB
:1012700000240B4804600A48001F0068A042C8D13F
:1012800000BF0648083800680449091F096800EAD9
:101290000108B8F1000FB2D1BDE8F087E80F0050A7
:1012A0001801005028C007200000901B08C007202C
:1012B0002848006840F400102649C439C1F8C40029
:1012C0002548006A40F40010234908620846406B34
:1012D00040F4001048632148C0682049C8601E4897
:1012E000006E40F080601C4908660846406F20F0A0
:1012F000806048671948C06820F440701749C8608A
:101300000846C06840F44070C8600846C06820F4D1
:101310007030C8600846C06840F47030C8600D483E
:10132000C438D0F8AC0120F440600A49C439C1F88F
:10133000AC010846D0F8AC0140F480600549E831C2
:101340000860FA200649086107200860022048600A
:1013500001207047C4C00F4000C0092000C00240F7
:10136000008008403FB501460B4D3CCD8DE83C0068
:1013700000200DE0012282400A4022B15DF82020C9
:10138000064B9A6303E05DF82020044BDA63401CAF
:101390000428EFD33FBD0000408A000000C00920B0
:1013A00010B502460B4600210DE0FF20084CA0605E
:1013B00000BF0748C06800F004000028F9D00448C6
:1013C00080685054491C9942EFD3012010BD0000A1
:1013D000008008400F48006848F2100108430D499A
:1013E000C439C1F8C4000C48006940F002000A4941
:1013F00008610846006940F0080008618320074939
:1014000008730920087021208862002008710320D9
:1014100008737047C4C00F4000C002400000014084
:1014200000BF0449097D01F020010029F9D0014ADB
:10143000107070470000014001460648816000BFFF
:101440000448C06800F010000028F9D10148806805
:10145000C0B270470080084010B502460B4600211C
:101460000CE0505C0C4CA06000BF0B48C06800F062
:1014700002000028F9D008488068491C9942F0D33E
:1014800001E0054880680448C06800F014000028A6
:10149000F7D1012010BD000000800840014621B1B5
:1014A0004FF40010044A906303E04FF40010024A26
:1014B000D06301207047000000C0092020204B4964
:1014C00008604B48D0F8A00100F0200030B100BF08
:1014D0004648006800F040000028F9D00320434946
:1014E0009C39086000204249C1F8A8013F490C31ED
:1014F000086001203D49943908603E483C498431E8
:101500000860AA203A498C31086055200860012003
:10151000374980310860AA2035498C310860552050
:101520003349C1F88C0000BF31488830006800F0B2
:1015300080600028F8D003202D4980310860AA205F
:101540002B49C1F88C00552029498C31086000BF17
:1015500027488830006800F04070B0F1407FF7D134
:1015600023202349A4310860AA202149C1F8AC00F6
:1015700055201F49AC31086001201D49A031086089
:10158000AA201B49AC31086055201949C1F8AC00AC
:1015900000BF1748A830006800F480600028F8D029
:1015A00003201349A0310860AA201149C1F8AC00FA
:1015B00055200F49AC31086000BF0D48A8300068C5
:1015C00000F44070B0F5407FF7D10B480849C431B2
:1015D000086000200649C1F8C8010846006820F4E8
:1015E000704040F48040086070470000A0C10F4088
:1015F00000C00F4063000500DE8728041648006A1B
:1016000020F40010144908621448C0681349C860E7
:101610000846C06820F44070C8600846406820F062
:101620003C0048600E48006820F440600D49C1F855
:10163000AC010D48006920F0FF000B490861084625
:1016400000686FF30F0008600846406820F00F0044
:10165000486001207047000000C0092000C002401F
:10166000ACC10F4000C00F400080084070B5044678
:101670001148AFF30080114904EBC40001EB800472
:101680000025A0886E1E8107002906D00ADA800690
:10169000204604D501F0AAFE04E0344604E001F03F
:1016A0002AFD30B1A58000240348AFF30080204616
:1016B00070BDA580F1E70000000000007C00001074
:1016C00070B504460D460F48AFF300800E4904EB99
:1016D000C40001EB80004FF0FF3481888A070BD0F3
:1016E0008906294603D502F029F820B104E001F06B
:1016F00000FD012800D100240248AFF300802046FD
:1017000070BD0000000000007C0000102DE9F041D9
:10171000074616460D461148AFF300804FF0FF34E0
:10172000B5B10F4907EBC70001EB800081888A073C
:101730000ED001F00F02012A0AD08906324629464E
:1017400002D502F056F801E001F0D7FC00B1002408
:101750000248AFF300802046BDE8F08100000000A1
:101760007C00001030380A2801D201207047002088
:10177000704710B50446B4F5004F01DD002010BDE0
:101780002046FFF773FFFAE700BFFEE770B5044697
:101790000D46B4F5004F02DD4FF0FF3070BD294615
:1017A0002046FFF78DFFF9E72DE9F04104460D468D
:1017B00016461F4648F2020084420AD104E015F89A
:1017C000010B05F0AFFC761E002EF8D10020BDE81D
:1017D000F081B4F5004F02DD4FF0FF30F7E73246FD
:1017E00029462046FFF792FFF1E7000003498A6887
:1017F000117801B902A206A1FEF7F2BC247005001F
:101800004B65696C2D455745422F322E3100000043
:101810005365727665723A2025730D0A0000000048
:101820002DE9F0412A4D0646E87B18B1B00F32D1C0
:1018300003202EE026F040400F3020F00307002E5A
:1018400003DB04F059FA0120E873B00F4FF00008F1
:101850000BD0286869683844884206D9E87BD0B143
:1018600085F80F8004F054FA15E01A4804682068DF
:101870006268011B891AB94210D204460068002828
:10188000F5D1E87B18B185F80F8004F041FAB00F6C
:1018900001D105F02DFD0020BDE8F081A2B11019A5
:1018A00021680160206000F108044760286838441E
:1018B0002860E87B18B185F80F8004F029FA2680AB
:1018C000A4F802802046E7E767600834EEE70000EE
:1018D0007C490010E06F05002DE9F041884607467D
:1018E00000F0D0F900284CD0274D00262C680BE0E2
:1018F000207838B10422394604F10A0004F046FC8D
:10190000012833D00E34761C2879B042F0DC1F4910
:10191000384604F0C5FBB0B91C48001D05F014F9A9
:1019200000282ED000262C680AE0207830B106224C
:101930004146201D04F02AFC01281CD00E34761CE0
:101940002879B042F1DC012000F022F8002818D0FC
:10195000C0EBC0006FF00D0202EB400029680422CA
:101960000C18394604F10A0004F01CFC062241461A
:10197000201D04F017FC6879E070A879A07003209E
:101980002070BDE8F0810000F06F05008C49001068
:10199000F0B520490446012005460A6803E01378A3
:1019A0004BB10E32401C0B798342F8DA00204E799D
:1019B00001220B680CE015705470F0BD5F78012FA8
:1019C00004D1DF78B74201D83E4610460E33521C90
:1019D0000F799742F2DA90B94E7901220B6809E04B
:1019E0005F78022F04D1DF78B74201D83E46104617
:1019F0000E33521C0F799742F2DA0028DDD00968C5
:101A0000C0EBC0026FF00D0303EB420211440D70F6
:101A10004C70F0BDF06F05002DE9F041224C884676
:101A20000646002725680BE0287838B104223146A5
:101A300005F10A0004F0AAFB012832D00E357F1C04
:101A40002079B842F0DC304600F01CF9002828D09C
:101A50001649304604F024FB002822D00120FFF76D
:101A600097FF05001DD0114A3146002000F072FAA0
:101A7000C5EBC5016FF00D0202EB410120680422A5
:101A80004518314605F10A0004F08CFB0622414658
:101A9000281D04F087FBE079E870A079A870032086
:101AA0002870BDE8F0810000F06F05008C4900103F
:101AB0002DE9F04788468146274904F0F1FA48B9F4
:101AC000254C201D05F040F800283AD004F1040907
:101AD0004FF00008214D002702262C680BE02078EB
:101AE00038B10422494604F10A0004F04FFB0128F2
:101AF00029D00E347F1C2879B842F0DC4046FFF72D
:101B000047FF04001CD0144A4946002000F022FA86
:101B1000C4EBC4016FF00D0202EB410128680422FE
:101B20004418494604F10A0004F03CFB06220C4923
:101B3000201D04F037FBA879A070E879E0702670CA
:101B40000020BDE8F08720780328F9D360780128C9
:101B500000D166702046F4E78C490010F06F050054
:101B6000507105002DE9F041374D3849287810B9FA
:101B70000A7B920766D50122401C8A7328700027D1
:101B8000334E5AE0C0EBC0006FF00D02316802EB3B
:101B900040000C182078D8B3E07820B1401E10F037
:101BA000FF00E07046D1607878B10422294904F141
:101BB0000A0004F0EBFA012806D0607801280FD063
:101BC00018B1022801D035E067702078032823D0AF
:101BD000A07870B3401E10F0FF00A07029D01DE067
:101BE0002078032825D0A07818B3401E10F0FF00FD
:101BF000A0701ED002202070F079E07004F10A007D
:101C0000054604F0A1FF134A121F10B129460BE04C
:101C100010E00021201D08E0042020700D4AF0791A
:101C2000E070121F04F10A010020BDE8F04100F04D
:101C300091B927702878401C28703179C0B2814250
:101C4000A0D22F70BDE8F08174000010C8490010C8
:101C5000F06F05009049001030B5084B00210A468E
:101C60000124186803E0027044700E30491C1D798D
:101C70008D42F8DC0248426030BD0000F06F050084
:101C80007400001001787F2912D00E22B2EB111FD0
:101C90000ED0006860B1411C0AD006490A68896804
:101CA00042400A4202D10143491C01D00120704741
:101CB000002070478C490010064900204860064803
:101CC000007A002804D0054A0020114600F042B9ED
:101CD0007047000074000010F06F05008C49001080
:101CE0000349002248600146104600F033B9000065
:101CF000740000102DE9F0471F4E0546002700F143
:101D0000080A00F10E094FF0090834681DE0207838
:101D1000012818D9E98898FA88F0B1EB104F0AD158
:101D20000622211D504604F031FA60B104224946D2
:101D300004F10A0011E0042204F10A01484604F00B
:101D400025FA012806D00E347F1C3079B842DEDC3B
:101D5000BDE8F08706225146201D04F023FA607882
:101D6000022801D1012060707079E070B079A07014
:101D700003202070ECE70000F06F05002DE9F04132
:101D800001882A2952D3418A012212BAB1EB124F9B
:101D90004CD1818A4FF4006212BAB1EB124F45D197
:101DA000817D062942D1C17D04293FD1018B00F1FB
:101DB000240709BA0A0C3D1FBE1D00F1120400F1F0
:101DC0001A080A2A32D2DFE802F031054A313131ED
:101DD0003131396804223349304604F0D7F928B14B
:101DE00041462846FFF778FD022133E004222946C8
:101DF000304604F0CBF9002818D02B4E0027346869
:101E000018E02078032813D306224146201D04F051
:101E1000BDF968B10422294604F10A0004F0C2F9B0
:101E20007079E070B079A07003202070BDE8F08177
:101E30000E347F1C3079B842E3DCF7E706221B49F9
:101E4000384604F0A3F90028F0D041462846FFF7B1
:101E500043FD09212046BDE8F04100F02BB8304693
:101E600004F072FE58B104220E49304604F08EF997
:101E70000028DBD02046BDE8F041FFF73BBF0C4C0B
:101E800061680029D2D00422284604F07FF9002896
:101E9000CCD0616800200870C8E7062203493846A4
:101EA000E4E700008C490010F06F050049000010C5
:101EB000740000102DE9F04105460E462A20FFF778
:101EC000AFFC044605F1080106220F46001D04F090
:101ED00069F906221D4904F10A0004F063F940F68D
:101EE000060000BA000C2082012000BA000C6082BB
:101EF0004FF4006000BA000CA0820620A0750420F8
:101F0000E07530BA000C20830622394604F1240023
:101F100004F048F9042205F10E0104F12A0004F04E
:101F200041F90622094904F11A0004F03BF90422A0
:101F3000074904F1200004F035F9204605F0CEF8F9
:101F40002046BDE8F04101F0CFBF0000490000107D
:101F50008C4900102DE9F041054616460F462A200F
:101F6000FFF75EFC04460DB1294600E02449062235
:101F7000201D04F017F90622224904F10A0004F09A
:101F800011F940F6060000BA000C2082012001BAC7
:101F9000090C6182C10209BA090CA1820621A1754E
:101FA0000421E17505B1082000BA000C2083062247
:101FB000144904F11A0004F0F5F805B9124D06228F
:101FC000294604F1240004F0EDF80EB1314600E09A
:101FD0000D49042204F1200004F0E4F80FB1394661
:101FE00000E00949042204F12A0004F0DBF820464D
:101FF00005F074F82046BDE8F04101F075BF00001F
:10200000507105004900001004760500054901EBF8
:1020100080000A684068824201D201207047002097
:10202000704700007C490010F0B500231D461C4697
:1020300000268A5DA2F14107192F01D83A4618E01F
:10204000A2F16107192F01D8473A12E0A2F1300737
:10205000092F01D8121D0CE02B2A04D02F2A04D0FE
:102060003D2A04D013E03E2203E03F2201E000229B
:102070006D1C761C42EA8313042EDAD31A0C02700C
:102080001A0A42708370E41CC01C091D15B1641B40
:1020900015B103E0392CCBD3002101702046F0BDEF
:1020A00010B50446816904F061FF002809D0E06D95
:1020B00000F5FF7002F063FAA0F52A41553901D00E
:1020C000002010BDE06D417BA1770B3002F057FA84
:1020D000E085E06D0E3002F052FA6084E06D017C24
:1020E0006177113002F04BFAA085E06D133002F0F9
:1020F00046FA6062E06D163002F041FA2084616AAF
:10210000E9B9B8B9E06D283002F039FAE087E06D3E
:102110002C3002F039FA2064E06D303002F02FFAF2
:10212000A4F84400E06D323002F029FAA4F8460029
:10213000606A20B9E06D203002F026FA6062208CDF
:1021400020B9E06D243002F01FFA2084012010BD78
:1021500070B50446806C0D46A8423ED094F85010ED
:10216000012928D166697EB1217889060CD5617F65
:10217000022906D0002201463046E36C02F050F8F6
:1021800014E0218C4218F6E76268E16CD368012202
:102190009847002820D0607F022809D16268218CEE
:1021A000A06CD3680844E16C01229847002813D042
:1021B000002084F8500085B194F85100218C6268A9
:1021C000484328449368E16C01229847012806D0CF
:1021D0004FF0FF30A064002070BD012070BDA564E9
:1021E000FBE700B5002200F0F9FAC04380B200BA64
:1021F000000C00BD2DE9F04704460D4691469A4675
:102200004FF000082078622816D0682828D06C2863
:1022100030D1A078303801218140CEB21748007803
:10222000304008B116A000E017A00246211D284644
:10223000FDF7D6FF80461DE002F056F86178303990
:1022400001228A40104008B110A000E011A007460A
:1022500062783B4611A12846FDF7C2FF804609E09F
:1022600001F0E0FF07463A4617A12846FDF7B8FF00
:10227000804600BF00BFBDE8F087000038000010B6
:10228000636865636B6564000000000074727565C7
:102290000000000066616C73650000003C746578A6
:1022A000743E3C69643E627574746F6E25633C2FA6
:1022B00069643E3C6F6E3E25733C2F6F6E3E3C2F33
:1022C000746578743E0000003C703E25733C2F70AE
:1022D0003E0000002DE9F04186B006460D46174647
:1022E00006B902E006B0BDE8F08100BF00203B491E
:1022F000087001203A49086027B938480078FFF78C
:1023000031F8EFE74FF000082820FFF789FA04467C
:1023100000BF28222146284602F09EFB0546207871
:1023200000283CD02FA1204604F0C8FF012806D188
:102330002A48007840F00100284908702FE02BA1BE
:10234000204604F0BBFF012806D12448007840F065
:1023500002002249087022E026A1204604F0AEFFC8
:10236000012806D11D48007840F004001B49087080
:1023700015E022A1204604F0A1FF012806D117484C
:10238000007840F008001549087008E01DA12046BB
:1023900004F094FF012802D1002011490860002DAB
:1023A000B7D1204601F0A0FD0C480078FEF7DAFF17
:1023B000B8F1030F0FD103A8FEF7CFF987B23A4661
:1023C000694603A803F0E2FE012804D111494869D7
:1023D00003A904F052FF00BF84E70000380000109A
:1023E000000000106C6564303D6F6E006C656431F8
:1023F0003D6F6E006C6564323D6F6E006C656433DA
:102400003D6F6E006374726C3D42726F77736572DC
:10241000000000002470050030B587B00546282074
:10242000FFF7FEF9044600BF28222146284602F0A5
:1024300013FB05462078002818D050A1204604F050
:102440003DFF012813D106A805A904AB03AACDE9D5
:1024500000104BA1E01CFEF77DF84C490398087072
:1024600004984870059888700698C8707EE048A166
:10247000204604F023FF012819D106A805A904ABC2
:1024800003AACDE900103EA1201DFEF763F83F49E5
:10249000039808720498C1B23C4841720598C1B2D1
:1024A0003A4881720698C1B23848C1725EE03AA1DA
:1024B000204604F003FF012819D106A805A904ABA2
:1024C00003AACDE900102EA1E01CFEF743F82F4926
:1024D000039808710498C1B22C4841710598C1B2A3
:1024E0002A4881710698C1B22848C1713EE02BA1EB
:1024F000204604F0E3FE012819D106A805A904AB83
:1025000003AACDE900101EA1601DFEF723F81F49A4
:10251000039808730498C1B21C4841730598C1B26E
:102520001A4881730698C1B21848C1731EE01DA1F4
:10253000204604F0C3FE012818D106A805A904AB63
:1025400003AACDE900100EA1601DFEF703F80F49A4
:10255000039808740498C1B20C4841740598C1B23C
:102560000A4881740698C1B20848C174002D7FF4EE
:102570005BAF204601F0B8FC07B030BD69703D008C
:1025800025642E25642E25642E2564008C490010B8
:102590006D736B3D0000000067773D0070646E73E3
:1025A0003D00000073646E733D0000000020704722
:1025B0000021A0F12002012A16D9D21E062A13D921
:1025C0002D2823D02E2821D00D3A092A0CD94028B5
:1025D0001CD0113A192A07D91D3A1D2A04D97D2881
:1025E00014D07E2812D000E001212B280BD02C28FB
:1025F00009D03B2807D03D2805D05B2803D05D28B3
:1026000001D07F2800D90221084670470121FBE74D
:102610002DE9F04705464079072802D30846BDE872
:10262000F0870C007BD0DFF844814FF0000950A107
:10263000204600F00DF9012806D051A1204600F0F7
:1026400007F901286DD075E00E3452A1204604F040
:1026500035FE01280AD058A1204604F02FFE01289B
:1026600008D0D8F8047026467F1E3FE0687940F015
:1026700001005EE02746464604E054A104F01EFE39
:10268000012806D03846716801F03AFF0700F4D1FE
:1026900050E03420FFF7C4F8342207F10901A862A2
:1026A00002F08CFFAA6A801E02F80090E880687928
:1026B00040F001006871688840F480602DE0307857
:1026C0003B2808D00D2835D00A2833D02F2806D033
:1026D0002B2804D009E0707820282BD005E03EA1FB
:1026E000701C04F0EBFD012803D0761CBE42E6D33B
:1026F00020E04020FFF794F840222146A86202F033
:102700005DFFAA6A801E02F80090E880687940F0B8
:1027100001006871688840F4805068800AE023E016
:10272000FFE710342046FDF7D5FDE860687940F0FA
:10273000020068712046D8F8041001F0CDFE08B1FF
:10274000044674E720780D280ED160780A280BD152
:10275000687940F004006871072805D1D8F80410A2
:10276000A01C81423FF65BAF002058E768000010D4
:10277000436F6E74656E742D547970653A20000055
:10278000436F6E74656E742D4C656E6774683A2085
:10279000000000006170706C69636174696F6E2F76
:1027A000782D7777772D666F726D2D75726C656EEB
:1027B000636F6465640000006D756C7469706172AC
:1027C000742F666F726D2D6461746100626F756E37
:1027D000646172793D000000786D6C0005E000BF17
:1027E00030F8023B891E5BBA1A440129F8DC11B1AA
:1027F000007802EB002290B200EB124000EB104098
:1028000080B27047084400EB104080B27047838B61
:1028100002681A44037941B1032B01D0C38B1A44D7
:102820008079891E01FB00207047032BF8D01046E9
:10283000704708E00378534013F0DF0F01D0002009
:102840007047401C491C0A78002AF3D101207047C8
:1028500010B5DF220BE004785C40144201D0002068
:1028600010BDFF222D2B00D1DF22401C491C0B780C
:10287000002BF0D1012010BD2DE9F0410446007F6E
:102880000025012806D0022838D0032857D0002080
:10289000BDE8F08102262CE03146204601F061FDC2
:1028A000804601462046FFF753FC002867D006EB20
:1028B0004600C0F34800B0F5FF7F04D8E16C08443F
:1028C00001F05DFE0CE0E06C08F1010190F8FF7191
:1028D0002046FFF73DFC88B3E06C007847EA002013
:1028E000F10701D0000901E0C0F30B0000B96D1C35
:1028F000761C206B801CB042CED840E002212046DE
:1029000001F02FFD074601462046FFF721FCA8B144
:1029100002260FE016F0FF0F05D17F1C3946204636
:10292000FFF716FC50B1E06CF1B230F8110000B9BD
:102930006D1C761C206B801CB042EBD81FE002217E
:10294000204601F00EFD074601462046FFF700FC39
:10295000A8B102260FE0700605D17F1C394620463B
:10296000FFF7F6FB58B1E06C06F07F0150F821004C
:1029700000B96D1C761C206B801CB042EBD8284639
:1029800086E770471CB52F48006810B12E480068D4
:1029900000B91CBD042200212C4803F023FCE8B937
:1029A0002948006800F00040C0B9002026490860AE
:1029B00027A12B48FDF714FC2448C07823498978C7
:1029C000CDE9001021484378027826A1244811302F
:1029D000FDF706FC012027490860DAE71A4800687D
:1029E000401E1949086068B900F052F822A11C483D
:1029F0001130FDF7F5FB01201E49086023481249FC
:102A00000860C6E710480068B0F1004F17D10020F9
:102A10000D4908600EA11248FDF7E2FB0B48C07893
:102A20000A498978CDE900100848437802780DA159
:102A30000B481130FDF7D4FB01200E49086000BFA0
:102A4000A7E70000080000100C0000108C490010DF
:102A500020495020616464726573733A000000007D
:102A6000100000102025642E25642E25642E256478
:102A7000000000000400001020444843502066611C
:102A8000696C656420202020000000001E0000808A
:102A900070B50C4C2078002812D0607805F05AFCF4
:102AA000607805F051FD00256570042204F10801ED
:102AB000054803F077FB2570BDE87040FFF7FCB8D0
:102AC00070BD0000D84800108C49001070B5104A45
:102AD0000321002005F064FC0E4C00256070A0B1BD
:102AE000442105F08BFC04220B4904F1080003F09B
:102AF00059FB04220021084803F06FFB03202070DB
:102B000001F018FDA061658070BD257070BD0000EA
:102B10001D2B0000D84800108C4900102DE9F05FF3
:102B2000794F88460A9E79781C46814274D138785C
:102B3000062871D0432A6FD1EC2E6DD3207802285D
:102B40006AD16078012867D1A07806287ED1201D3F
:102B500003F0FAFFB969884278D106226B4904F183
:102B60001C0003F013FB002871D004F1EC0003F00B
:102B7000EBFF6749884269D139780025891E04F145
:102B8000100B07F1080A4FF00609082943D2DFE8C5
:102B900001F086B90444B986860404220021381D58
:102BA00003F01BFBF0210FE0605C342806D03528D1
:102BB00006D160188078022848D101E06018857835
:102BC000204604F0FBF80146B142EDD3E80706D0F9
:102BD0006C21204604F0F2F80146EC28F9D3A8074E
:102BE00006D52C21204604F0E9F801466C28F9D3DB
:102BF000381D03F0A9FF002829D0052038700422D1
:102C00005946504603F0CEFA032000F067F904203D
:102C1000B8830820F88375E018E041460422B846DE
:102C2000381D03F0B3FA30B104225946504603F080
:102C3000ADFA00280BD0F0271AE0E05D342810D060
:102C4000352810D1E0198078052802D00020BDE891
:102C5000F09F88F80090042251462E4803F0A2FA13
:102C600001E0E01985783946204604F037F8074638
:102C7000B742E2D3E80706D06C21204604F02EF8D4
:102C80000146EC28F9D3A80706D52C21204604F0EC
:102C900025F801466C28F9D3FFF70EF832E0F02151
:102CA0001CE0605C342813D0352813D1601880787C
:102CB000062802D0052808D00CE003203870042232
:102CC0000021144803F089FAC0E787F8009001E07A
:102CD00060188578204603F0CDFF0146B142E0D36D
:102CE000E80706D06C21204603F0C4FF0146EC281B
:102CF000F9D3A80706D52C21204603F0BBFF0146D7
:102D00006C28F9D30120A2E7D84800104900001030
:102D1000635382638C4900102DE9F0476C4F3A7879
:102D2000002A44D004250826012A24D0694800241A
:102D3000032A007B2FD0800739D578883B46401C7A
:102D40007880988B4FF6FF7C401E81B2D88B921E04
:102D50000CEA4008D3F814C003254FF0050A4FF0E1
:102D60000A09ACF1010C082A21D2DFE802F0222086
:102D700029778089A03C02203870BD83FE835648A5
:102D800003F0E2FE28B1524804225349083003F010
:102D900009FA03201DE0C00709D03D707C8001F0D6
:102DA000C9FBB861012000F099F8BD83FE83BDE83E
:102DB000F087B9830029FAD1202854D93D70F6E76D
:102DC000B9830029F3D1202807D8B883A7F81E803B
:102DD0000120BDE8F04700F081B83C735820B8836B
:102DE00009203870E3E7B98339B97820B88301F056
:102DF000A1FBB861012000F071F8354E387B0C362C
:102E000060B1F88B0028D2D0401E0004000CF8837B
:102E100015D03046BDE8F047FEF762BFFD8301F0F4
:102E200089FB010CA9203873FE207873080AB87357
:102E3000F97301D0FF28ECD1801CB873E9E70422B4
:102E40003146254803F0AEF92348FF210172417253
:102E50008472C472BDE8F047FEF72EBFB983002923
:102E6000A5D12028AAD2B883A7F81E8091E7C7F879
:102E700014C03869401E386199D10720387007E0C6
:102E8000C7F814C0BCF1000F08D0B98300298ED157
:102E9000032000F023F8A7F81C9088E73E70032079
:102EA00000F01CF8A7F81CA0A7F81E907FE7B983D4
:102EB000002984D1401E0004A7F81CA0000CF88350
:102EC000D4D13D70BDE8F0470422034803F085B932
:102ED000D8480010C84900108C4900102DE9F84F5F
:102EE000DFF8EC810746012698F80000062801D09B
:102EF000072800D1002677484FF4967500680078BF
:102F000008B14FF4AA75284605F03AFA04462A4655
:102F1000002103F062F94FF0010A84F800A084F860
:102F200001A00620A0700020E0704546201DD8F8C2
:102F3000181003F018FE698804F1080003F00FFE72
:102F400016B14FF4004100E0002104F10A0003F043
:102F500006FE2878A846062803D0072801D00828AE
:102F600005D104225C4904F10C0003F01BF9062290
:102F70005A4904F11C0003F015F9594904F1EC0019
:102F800003F0F1FD352004F8F00F3D2184F801A095
:102F9000A770E1700721217184F805A0F03C06229A
:102FA0004E4904F1F60003F0FDF8FC25012F31D065
:102FB000032F01D0042F74D198F800004FF00409BA
:102FC00007280FD008280DD0322084F8FC00404993
:102FD00084F8FD9004F1FE000422083103F0E2F8C9
:102FE0004FF4817598F80000012811D002280FD005
:102FF00007280DD008280BD0362060556019042210
:1030000080F80190801C08F1040103F0CBF8AD1D9D
:10301000042F46D033484FF00C0B04F805B0671965
:10302000C168B81C04F029F9C1B27970294FAD1CF0
:103030000D443868007868B13C20605504EB050900
:1030400009F10200396804F018F9C1B2AD1C89F821
:1030500001100D44372060556019032180F802A04B
:10306000C1700621017180F805B0332181713A21C8
:10307000C1713B2101723A790721D20706D005F1CF
:103080000701214443228A704FF008013A799207E0
:1030900004D56B182A222344491C9A700D444170B0
:1030A000AD1CFF2060556D1C4FF49670854200D218
:1030B0000546A8B200900EB10B4901E008F10401E9
:1030C00098F801002346432205F056FABDE8F88F30
:1030D000D8480010FC6F05008C4900104900001012
:1030E00063538263E06F05004C7005000020704759
:1030F0007047002070470020704700207047002074
:1031000070470120704701207047FF207047012061
:1031100070470120704770B50D460446016805F1FF
:103120001800FFF774FB6168012200EB11112846BB
:1031300005F02FFC08B1002070BD072070BDA9B1BB
:103140008A69521C026808D04B6A9A420ED14068C4
:10315000898D88420AD1022070478B6A9A4205D134
:103160004068C98D884201D1012070470020704716
:1031700038B51546044611B96068401C6060287F68
:1031800003281BD02068C8B96068B0F5007F19D14A
:10319000022038BD081A6060206800906946284601
:1031A00003F0CCFF30B1287F009902F05FFF18B127
:1031B000012038BD032038BD00982060A88F6168C9
:1031C0008142E7D2002038BD70B50E460446016842
:1031D000154602F11800FFF71AFB616800EB1111A8
:1031E000284603F0C3FE40B12179E86D01F00F01DC
:1031F00000EB41103060002070BD012070BD0178EF
:1032000061B1E5290CD0C07A00F03F010F2909D047
:10321000C0F3C100012807D0042070470020704788
:1032200001207047032070470220704706220249A0
:10323000001D02F0ABBF00004900001010B502F005
:103240005BFD02F09FFB074800210170417002F016
:103250005FFDFEF701FD0621034802F0AEFF0349C2
:10326000486010BDF848001049000010C84900101F
:1032700070B5AFF30080FEF775FC2E490A784878E8
:10328000824255D02C4B01229A7301EB8002401CE4
:10329000546800F01F004870208A00BA000CB0F596
:1032A000006F07D0A0F5006006383CD12046FEF73D
:1032B00065FD38E00021204602F036FD38B3201DC0
:1032C000054606221D4902F061FF68B9284603F051
:1032D0003BFC1B49B1EB102F06D004F10A0104F1AD
:1032E0001E00FEF799FB05E004F10A0104F11E003F
:1032F000FEF7F2FAE07E012806D0022808D0062860
:103300000ED011280FD107E0204602F0C3F90AE0E1
:10331000204602F09FFA06E0204605F0B9F802E0E8
:10332000204604F055FB2046BDE8704000F0DCBDAF
:1033300070BD0000F8480010C84900105071050029
:103340005E00010070B5044600F12205234E042200
:103350002349284602F01AFF50BB04F11E0003F077
:10336000F3FB002838D02A780E2300200121B3EB8C
:10337000121F0CD1217160715E20A071687800F07D
:103380007F00E071A8782072E878607215E0154837
:103390002968026880684A40024202D10843401C02
:1033A00006D001212846FEF783FB002814D0061D15
:1033B00006223146201D02F0F5FE06220A4904F1DC
:1033C0000A0002F0EFFE4FF4006000BA000C208209
:1033D000204603F083FE012070BD000050710500FF
:1033E0004C7005008C490010490000103EB50446A1
:1033F0000079C00664D425681421284600F0EEFD4B
:1034000050B1D4E90201814245D9491E204600F05D
:1034100095F9002854D104E0A08840F01000A08065
:103420004EE0287F00F04EFF02462846A16905F0D5
:103430003CFAE8B3E0690190208C02902A46694684
:1034400001A8FFF7C1FE98BB6069010C0098143019
:1034500003F0C5FEA08A81B200981A3003F0BFFEC7
:103460000098E1681C3003F0BEFE01F071F80146DF
:103470000098163003F0B3FE00F05CFF01460098A0
:10348000183003F0ACFE0098018B4182294601A858
:10349000FFF741FE60B9287F032803D1284600F0DA
:1034A0008DFE28B10021284605F0A8F900B100E002
:1034B00006E000212846FEF74BFE08B100203EBD85
:1034C00001203EBD30B50346094C0CE0585CA0F12C
:1034D0006105192D01D820F0200080EA126054F80F
:1034E000200080EA0222491EF0D2104630BD0000C2
:1034F00004720500F0B589B00C46050016461AD0D6
:10350000CCB1C6B12878C8B10421104600F066FDE0
:1035100040B3304600F090FDFFF7F7FD30673046CE
:10352000039503F055FE0190314601A803F04AFBD4
:10353000050005D055E0032009B0F0BD0520FBE7EC
:103540009DF811004FF00007000718D5019805906D
:10355000B4F80401069005A8324601210546FFF79C
:1035600007FE08B10120E7E702AB224608A928467A
:103570000897009600F030FC0500DDD108E09DF8CA
:10358000102020460399FDF707F99DF810002754F5
:1035900002981C3000F0F8FF04F580742060A088C9
:1035A00008990844A0800298C07AA071029E06F192
:1035B000160000F0E4FFC10A2172C0F34511C006F5
:1035C0006172800EA07206F1180000F0D8FF00F0C2
:1035D0001F01E172C0F34311400A217300F2BC7075
:1035E000E0812846A8E72DE9F0474FF0FF3600F1CB
:1035F000480486648068606000252572657200F565
:10360000007100F58060E660C4E9051025776577F4
:10361000483C204600F010FDFFF773FD02273021E3
:1036200004F11800E766FDF750F90021204603F089
:103630009DFC18B3E06D00F5FF7000F0A0FFA0F551
:103640002A4155391AD1E06D0178E92914D0EB29C6
:1036500002D1817890290FD000F5E37000F094FF3B
:10366000A0614FF001092046FEF71AFD48B1E18D37
:10367000B1F5007F46D106E0A561F2E70220BDE882
:10368000F0870320FBE7A27F102A0FD008DC012A75
:103690000CD0022A0AD0042A08D0082A32D105E028
:1036A000202A03D0402A01D0802A2BD1B4F822C08E
:1036B000BCF1000F26D0657F012D01D0022D21D154
:1036C000238C606A83421DD8B4F82C8005FB03C3A9
:1036D00006EB481606F5007696FBF1F15D18401BE7
:1036E000A062B0FBF2F02063A386E1865102A163E1
:1036F000C1F34F11A18740F6F571884204D284F8D6
:103700001C9015E00420BAE74FF6F571884201D20B
:1037100027770DE003202077204600F00FFD38B911
:103720002046FFF7A9F8A066204600F047FD08B143
:103730000020A4E70520A2E7012070472DE9F0470B
:103740000D46040010D0A088C10650D480074ED08A
:1037500026680421304600F041FC38B12169A942B5
:1037600009D10020BDE8F0870320FBE7A08840F0E6
:103770001000A0803BE0E068A84200D20546680A3D
:10378000B27FA942B0FBF2F302FB130084F82200DF
:103790000FD2B06BA769B1FBF0F200FB1212691AED
:1037A0005318834218D3821A891AB1FBF0F0401CD7
:1037B00004E0B06B6769B5FBF0F0A7615FEA000851
:1037C0000AD004F1180949463046A76903F0B6FC4F
:1037D00068B1B8F10108F6D1307FA16902F046FC6A
:1037E00018B1B07F84F82200A7612561B9E70120F4
:1037F000B8E72DE9F74F0446007984B09046C0063B
:1038000003D5002007B0BDE8F08F276814213846A3
:1038100000F0E4FB68B1A1884FF4007A0AEA811055
:10382000029004F1180061694FF0000B009029B17B
:103830000EE0A08840F01000A080E2E784F822B0FB
:103840003846009900F0DAFD0028DBD0A0696061FD
:10385000208A0025C0F3080652E094F82200B97FC0
:1038600088421AD12069E1682844884204D2384647
:10387000009903F063FC0CE0D4F8189038460099E6
:1038800000F0BCFD0028BDD049463846A26905F0CD
:103890000CF80028B6D084F822B007F11800A1690E
:1038A000FEF7B5FF94F82210A8EB05090844019033
:1038B00009EB0600504501D9C6F5007916B9029901
:1038C000894505D23846019903F050FB002899D06C
:1038D00005984A464119F86D3044FCF75DFF3846BB
:1038E000019904F08BFF00288CD006EB0900C60577
:1038F000F60D04D194F82200401C84F822004D44B7
:103900004545AAD3206928442061E168884200D94E
:10391000E060012076E700002DE9F05F04460D46E7
:103920006A48AFF30080002000F09CFB070057D0EE
:103930000146204600F0BAFB8246386800284FD086
:1039400000205146024604E0401C5C2B00D1024698
:10395000491C0B78002BF7D10AEB020083465CA1CF
:10396000FCF7DAFF00B32A21584600F0DBFB0446DF
:103970005846FCF7F2FE0646601C1AD04FF00109CB
:103980000BEB040053A1FCF7C7FFA8B1A6EB04069C
:10399000A6F101063879800610D5294650463A68C6
:1039A000FFF7A8FDE0B90EE000244FF0010926461C
:1039B000F0E74FF00009EDE70026EBE7394628462F
:1039C000FFF794FB60B1002085F8FF00B9F1000F0C
:1039D00008D054EA060021D0B4B35A46002149E089
:1039E00001242BE02B465A4612E05B1C12F8011B07
:1039F000A0F1610CBCF1190F01D820F02000A1F159
:103A0000610CBCF1190F01D821F020018842C1D10D
:103A100018780028E9D111780029E6D13879800694
:103A20000BD405F580750020A871F882A888B882AB
:103A30003846FFF75DFBB868286000242348AFF3E1
:103A400000802046BDE8F09F16E000BF12F8010B91
:103A50006B5CA0F1610CBCF1190F01D820F02000C3
:103A6000A3F1610CBCF1190F01D823F02003984297
:103A700090D1491CA142E9DB002ECFD02846FCF7AB
:103A80006CFE0246A119914284DC0BEB04035B1C23
:103A9000A2EB060C16E000BF13F8010B15F80C1092
:103AA000A0F16108B8F1190F01D820F02000A1F1B0
:103AB0006108B8F1190F01D821F020018842A6D180
:103AC0000CF1010C9445E7DBA8E7000000000000C2
:103AD0002A2E2A002E2A0000F0B5044689B01A4882
:103AE000AFF3008000F042FABCB10020ADF8040052
:103AF00000906946204600F0D9FA009808B3BDF856
:103B0000040000F02001009801F0D2FE04460E48A7
:103B1000AFF3008009B02046F0BD00240B4D2646CF
:103B20000B4F0AE0E87900F00401286801F0C0FEBC
:103B3000A04200DD0446761C083538888642F1DB59
:103B4000E5E70324E3E7000000000000188A000016
:103B5000F28900002DE9F04F99B0054600684FF05A
:103B6000000ACDE9030A4FF0FF3BCDF838A0CDF8AD
:103B700018A0CDE907AB8946CDF840A0CDF83CA010
:103B8000096F0220FFF7BBFA0446002703A821466D
:103B9000FFF7D5FA38B1022803D1A06A0390E08D6F
:103BA00004900126D3E056464A4605A903A8FFF72C
:103BB0000BFB00287ED10598FFF721FB00287AD067
:103BC000032802D00428EDD163E0DDF814E09EF86C
:103BD000000041060FD520F0400106919EF80D101F
:103BE000109100210E910121CDF820B00F91DDE957
:103BF00003120A9201919EF80D2010998A4245D134
:103C000000F01F00401E00EB800101EBC000297B8B
:103C1000C0B2091AC9B20D2900D90D21AB6872468C
:103C200003EB000800200AE0544B18F800C01B5CAE
:103C3000D35C83EA0C0333F020030DD1401C88428F
:103C4000F2D30D2904D24D49085C1EF8000018B9C2
:103C50000798401CC0B20790D9F87000FF2876D0B2
:103C6000DFF818C1DDF82020704600210DF154085E
:103C70001CF80130C35C23B108F80130491C0D2940
:103C8000F6D34046FFF71EFC089060E00020079046
:103C90005DE00F98A0B100200F90DDE90601884299
:103CA0000ED1059803F0DAFA1099884208D1012064
:103CB0000E9001E05DE05EE00A990198C5E904011B
:103CC000002007900698401CC0B22876012807D132
:103CD000DDE90301C5E904010020CDF820B00E9014
:103CE00011A8059903F087FA2A7B904206D111A802
:103CF000A968FCF719FD08B901200E900520D9F834
:103D00007010FFF7FCF9040017D00898A061E16972
:103D1000059803F094FAE061287E206201986062C1
:103D20000A98A0850398A0620498E08500212046A7
:103D3000D9F87020FFF7EBF901270E9828B1059804
:103D40006860002019B0BDE8F08F002006903E4367
:103D500005D00320D9F87010FFF7D1F904464A4680
:103D6000002103A8FFF704FA00283FF40EAF012852
:103D700001D00120E6E70C20E4E70000F471050023
:103D80003EB50446086F0D46FF2808D0217BA06889
:103D900002F0E9FD02A92A6FFFF7BBF908B10C2078
:103DA0003EBD029890F820102176012910D0416A7A
:103DB0002161818D6161816A0091C08D01902A46E7
:103DC000211D6846FFF700FA0028E9D001203EBD1A
:103DD000816A2161C18DEDE72DE9FF4F4FF0000BA6
:103DE00083B00F4682465C465D465E46D94602A9D0
:103DF0005046109AFFF7E8F9002871D13868401C46
:103E000038600298FFF7FBF920B1032806D0042898
:103E10005FD135E00C2007B0BDE8F08F029908783B
:103E2000420608D54E7BDAE9002320F040044FF02B
:103E30000109CDE900234A7BB2421FD16D1C00F07D
:103E40001F00401E00EB800202EBC000059AC0B2CA
:103E50000244DFF890C0EDB29646002088461CF878
:103E60000030CB5C1354401C0D28F7D398F80000A9
:103E700040062ED500218EF80D102AE0002528E0FE
:103E8000B9F1000F11D04FF00009AC420DD10298EA
:103E900003F0E4F9B04208D1DDE90001CAE900010C
:103EA000601C4FF0010B8AF80800641CE4B2012C7E
:103EB00007D0BBF1000F0CD00698029901600020DA
:103EC000A9E70299059803F096F901208AF80800FD
:103ED000F2E700215046109AFFF74AF9002886D0F1
:103EE000012098E7F47105002DE9F041002837D052
:103EF0001C4DA0F10807E87B08B1032025E0DFF89E
:103F000068800026D8F8004001F0F6FE0120E87332
:103F100000200AE0264624682178890704D0E87347
:103F200001F0F6FE022010E05CB1BC42F2D129683B
:103F30006268891A2960D8F80010A14209D160602E
:103F400009E0E87301F0E4FE0120BDE8F04103F070
:103F5000CFB921683160E873BDE8F04101F0D8BE07
:103F6000BDE8F0817C490010E06F050070B5164C8B
:103F70002078002827D100F049F8FFF7C4F8002284
:103F8000124811464025124B0BE0C67976070668A9
:103F9000316004D40679522E01D106683560521C76
:103FA00008301E88B242F0D300200A4A0A4B05E0CE
:103FB00000EBC00502EB8505401CA9801D88A842C6
:103FC000F6D30120207070BD4F000010188A000049
:103FD000F28900007C000010F089000010B5044652
:103FE0000068814301D0002010BD000706D460683E
:103FF0000021426908469047C00701D0012010BD4A
:10400000206820F006002060EDE700000748082146
:1040100000F17402C160A0F5A051816004494160C3
:104020000449916000214161018270479C15001094
:10403000008A0000208A000010B5024607480021CF
:10404000074B06E00468944201D1001D10BD491CD5
:1040500008301C88A142F5D3002010BD188A00004A
:10406000F289000070B5064600240A4D0A4804E0B3
:104070002979890706D02435641C01888C42F7DB36
:10408000002070BD24212846FCF71FFC06B13460D7
:10409000284670BD7C000010F08900000048704781
:1040A0000101DB074FF4402070470000F0B51B4AC8
:1040B0001B4CE8B10378DBB123F0200643783A2BA0
:1040C00003D085783A2D03D012E03023801C01E024
:1040D00073B1C01C002507E01779B74202D15779A8
:1040E0009F420AD06D1C08322788BD42F4DBF0BD28
:1040F00000230EE0D579ED0709D013680B60D27963
:104100005207F4D58A8842F020028A80F0BD5B1CF9
:1041100008322588AB42EDDBF0BD0000188A0000B4
:10412000F28900000246002003E08B4205D0521CB9
:10413000401C1378002BF8D1581E704710B5044668
:104140008069B4F844100144204602F00FFF0028B3
:1041500029D0E06D00F5FE7000F016FA144988428F
:1041600020D1E06D00F010FA124988421AD1E06DBA
:1041700000F5F27000F008FA0F49884212D1E06DA4
:1041800000F5F47000F000FA216B81420AD3A066BA
:10419000E06D00F5F67000F0F7F9022802D3216B0C
:1041A000814201D2002010BDE066012010BD000058
:1041B000000055AA525261417272416110B5044625
:1041C000C06D4FF40071FCF75EFB1349E06D03F026
:1041D0000AF8E06D114900F5F27003F004F8E06DA3
:1041E000A16E00F5F47002F0FEFFE06DE16E00F5E7
:1041F000F67002F0F8FFE06D4AF6552100F5FF7009
:1042000002F0EDFFB4F84410A06901442046BDE877
:10421000104004F0F3BA00005252614172724161E1
:104220000020704730B5C5B00020ADF80801FFF799
:1042300053FC054605B90CA4012D01D10FA40CE0D7
:1042400001E0BDF8084101A918A0FFF765FB0028AF
:10425000F7D0BDF8080100B916A43046FCF73EFAC5
:10426000204645B030BD00000A0D53442F4D4D434C
:1042700020496E6974206F6B000000000A0D5344E2
:104280002F4D4D4320496E6974204661696C656409
:104290000A0D496E73657274204D656D6F727920D9
:1042A00063617264202E2E2E0A0D00004D3A2A2ED4
:1042B0002A0000000A0D4E6F2066696C65732E2E71
:1042C0002E000000012805D0022806D0032807D0C0
:1042D0000020704740F6FF7070474FF6FF70704740
:1042E0006FF07040704700000748406D00F40060B8
:1042F00008B9002070470448406D00F4805008B9A8
:104300000120F7E700BFF5E700C0092010B5084C11
:1043100000224FEA006308464FEA4101584000D5A9
:1043200061405B00521C082AF5D3084610BD00000E
:10433000B71DC10410B5FFF7B1FE10F01F0100D189
:104340000121C0F303220C2A00D802B9012241EA5C
:104350004211442202EB104000F07F0041EA40206D
:1043600010BD027F012A04D0022A06D0032A0AD1F6
:1043700005E001EB4101890A02E0090A00E0C909F0
:10438000028C8A4201D8002070478269408C104418
:104390000844704770B5017809B1002405E0002099
:1043A00070BD401C2E2900D10446017831F0200256
:1043B000F7D19CB10E4E002505EB450006EB400100
:1043C0002046FEF736FA01280AD06D1C172DF3D3CC
:1043D00008A1201FFEF72DFA012807D00B2070BD81
:1043E00005EB450006EB4000407970BD132070BD21
:1043F000BE7005002E6A732E677A00002DE9F04129
:104400000E460546C46E5DE021462846FFF7A9FF2B
:10441000804601462846FDF79BFE002838D0287FBD
:10442000012804D0022823D0032830D127E004EB50
:104430004400C0F34800B0F5FF7F04D8E96C08449D
:1044400000F09DF80DE0E86C08F1010190F8FF71B3
:104450002846FDF77DFE00281AD0E86C007847EA70
:104460000020E10701D000090FE0C0F30B000CE0D1
:10447000E96C200601EBD05000F081F805E0E96C12
:10448000600601EBD05000F07FF818B119E0002071
:10449000BDE8F0810E480021222302880D4809E082
:1044A000878833EA070703D1D0F818C0A44508D09D
:1044B0002430491C9142F3D33460641C0120EC6623
:1044C000E6E7641C286B801CA0429DD8EC66DEE702
:1044D000F08900007C0000100246491E06E00378C7
:1044E0000D2B02D143780A2B02D0401C8842F6D310
:1044F000904201D0884201D100207047801C704753
:104500000246491E07E003783B2B0CD00D2B08D048
:104510000A2B06D0401C8842F5D3904201D0884235
:1045200005D1002070474378202BF6D0F2E7801C9D
:10453000704700000449054A4868504343F2390275
:104540001044486070470000C84900106D4EC641D5
:1045500010B5FFF7A7FDC0F344011D2900D90021C4
:10456000C0F305223B2A00D90022C0F3044041EAEF
:104570004211172800D9172041EAC02010BD417808
:10458000007840EA01207047C1788278090641EA44
:1045900002414278007841EA0221084370473928F5
:1045A00003D920F02000373800E03038C0B270471F
:1045B000012070472DE9F041064600790D46172885
:1045C00031D2DFE800F00C0C0E1018181A1C1E2057
:1045D00022301424260C282A2A10122C2E003AA449
:1045E00022E03CA420E03EA41EE044A41CE0FDF731
:1045F000DDFF040018D148A416E04AA414E04CA43E
:1046000012E04EA410E050A40EE052A40CE055A419
:104610000AE05CA408E061A406E063A404E066A4E8
:1046200002E06DA400E073A479A1284602F025FE03
:104630000746E819FDF7DAF80744E819224679A198
:10464000FBF7CEFD0744E81910F8040C0D2800D143
:10465000BF1E79A1204602F031FE01280AD100F0E8
:1046600029F9020006D0E819801E75A1FBF7B8FDF4
:104670000744BF1E3079012806D00C2804D0122828
:1046800008D0132806D00AE0E81971A102F0F5FD60
:10469000074410E0E81975A102F0EFFD0744306A05
:1046A00048B1E81978A102F0E8FDC4192919306A67
:1046B00003F0F0FF0719E81977A102F0DEFD384496
:1046C00080B2BDE8F0810000746578742F68746D65
:1046D0006C000000746578742F6373730000000031
:1046E0006170706C69636174696F6E2F782D6A6197
:1046F0007661736372697074000000006170706CA1
:1047000069636174696F6E2F6A6176612D6172638E
:104710006869766500000000746578742F786D6CA8
:1047200000000000696D6167652F67696600000021
:10473000696D6167652F6A7065670000696D616703
:10474000652F626D70000000696D6167652F706E86
:1047500067000000696D6167652F782D69636F6E72
:10476000000000006170706C69636174696F6E2F86
:10477000782D73696C7665726C696768742D6170E9
:10478000700000006170706C69636174696F6E2FF6
:1047900078616D6C2B786D6C000000007465787426
:1047A0002F706C61696E0000696D6167652F7376AB
:1047B000672B786D6C0000006170706C69636174C8
:1047C000696F6E2F782D7A69702D636F6D707265C9
:1047D00073736564000000006170706C69636174DC
:1047E000696F6E2F782D6D73646F776E6C6F616477
:1047F000000000006170706C69636174696F6E2FF6
:104800006F637465742D73747265616D00000000D0
:10481000485454502F312E3120323030204F4B0D20
:104820000A000000436F6E74656E742D54797065D4
:104830003A2025730D0A00007465787400000000AA
:104840003B20636861727365743D25730D0A000037
:1048500043616368652D436F6E74726F6C3A206EAE
:104860006F2D63616368650D0A000000436F6E740D
:10487000656E742D456E636F64696E673A20677A62
:1048800069700D0A000000004C6173742D4D6F6457
:1048900069666965643A2000436F6E6E656374698A
:1048A0006F6E3A20636C6F73650D0A0D0A0000008D
:1048B000002070470020704770B50E00054618D0E4
:1048C000012E18D0022E18D0032E18D023A229A111
:1048D000FBF786FC04462819FCF788FF0444002EE9
:1048E00016D0281926A102F0C8FC0444012E08D0D5
:1048F0000EE02AA2EBE72EA2E9E732A2E7E735A213
:10490000E5E7384838A1C2682819FBF769FC044478
:1049100028193FA102F0B1FC0444B6B1281942495C
:1049200002F0ABFC0444012E11D0022E11D0032E54
:1049300011D03E49281902F0A0FC044428193C4932
:1049400002F09BFC204480B270BDA0B270BD39491A
:10495000F0E73949EEE73949ECE70000353031201E
:104960004E6F7420496D706C656D656E7465640D75
:104970000A000000485454502F312E312025730076
:10498000436F6E74656E742D747970653A2074652A
:1049900078742F68746D6C0D0A0000003330342079
:1049A0004E6F74204D6F6469666965640D0A00007E
:1049B00034303120556E617574686F72697A656440
:1049C0000D0A000034303320466F726269646465FA
:1049D0006E0D0A00343034204E6F7420466F756EB1
:1049E000640D0A00247005005757572D41757468EF
:1049F000656E7469636174653A204261736963200E
:104A00007265616C6D3D20222573220D0A00000045
:104A1000436F6E6E656374696F6E3A20636C6F737B
:104A2000650D0A0D0A0000004A770500FF760500B3
:104A3000797705000A76050060760500B1760500F5
:104A40007047002070470120704700207047002009
:104A500070470020704700002DE9F0410126904684
:104A60000D46044600271BE015494968A14201D8BC
:104A70002F7020E0252803D02B280DD120200BE01B
:104A800014F8010FFFF78BFD0001287014F8010FD7
:104A9000FFF785FD29780843641C05F8010B761C97
:104AA0002078262803D0202801D94645DCD32F7052
:104AB0002078262802D00020BDE8F081601CFBE7AA
:104AC000680000102DE9F041104E012700253468E0
:104AD00017E02561656125836580656200220C4BC6
:104AE00011460520A56202F09BFC60700121217037
:104AF00028B1F18802F0D8FC012800D125703434A7
:104B00007F1C3079B842E4DABDE8F08124700500FA
:104B1000754B000070B500250446057080780006CE
:104B200002D5206BFFF78CFF6088C00502D5E06AD4
:104B3000FFF786FF6088800504D500221146032018
:104B4000FDF7C8FB6088C00404D50022114604208C
:104B5000FDF7C0FB606A10B1FFF7C6F96562A06A95
:104B600010B1FFF7C1F9A5622561656125836580F4
:104B700070BD00002DE9F0479C4603460020154615
:104B8000074601267C4A21E000EB800808EBC008BC
:104B9000146806EB880800F1010014F808409C42F4
:104BA00014D110F0FF0043D000EB8003126803EB38
:104BB000C0036FF0330404EB8303D4186F4A062953
:104BC00036D2DFE801F0071814141A201479844251
:104BD000DADC2DE0107061462846FFF7E9FC00287A
:104BE00027D02078002801D102202070BAE020468A
:104BF000FFF790FFB6E00320F7E7218B60690844D8
:104C000060612783AEE0BCF1060F02D2217809294A
:104C10000ED1107005EB0C00506020784FF00409A5
:104C20004FF00908032806D008287AD0092877D041
:104C30000020BDE8F08752A1284602F03FFB012882
:104C40000DD051A1284602F039FB012820D050A1F7
:104C5000284602F033FB012833D00A20C5E76088DC
:104C6000AD1D40F400606080284602F0C1F828467F
:104C7000FFF790FB20712946204600F01DF92078AF
:104C800007286FD02946204600F086F8266155E0B7
:104C90006D1D284602F0ACF806462846FFF77AFB61
:104CA00020712946204600F007F92078072859D0BE
:104CB00016B13046FDF7B0FB2946204600F06CF8EF
:104CC00030E0AD1DAA46284602F092F85046FFF7A4
:104CD00061FB20715146204600F0EEF8207807284D
:104CE00040D0677151462046FDF792FC05004FF019
:104CF000080607D06088400505D42946204600F004
:104D000043FA00B926705146204600F045F8207855
:104D1000082827D06088400504D584F800807DB13C
:104D20001AE00EE0A078C00708D07820FCF778FDE4
:104D30006062204602F0CAF8052056E784F8009029
:104D400010E029462046FDF763FC05000AD0608884
:104D5000400509D584F800802946204600F056F920
:104D60000028DFD1012064E72946204600F00CFA34
:104D70000028D7D15DE7000024700500680000100E
:104D800048454144202F0000474554202F00000093
:104D9000504F5354202F00002DE9F041044608786D
:104DA0000F46002608B93CA701263E4D217A31B1B5
:104DB000A078C00703D13846FFF745FE38B1384622
:104DC000FFF745FE40B36188CA0704D008E0608859
:104DD00040F0080058E02279012A18D00C2A16D099
:104DE00041F08001618020634FF000402061C807DE
:104DF0000BD13846FFF729FE30B1216A814203D139
:104E0000618841F0200161802062BDE8F08140F2BC
:104E100001121143618030E0384602F037FA014652
:104E2000002002E08A4205D0401C55F83020002ABC
:104E3000F8D124E01AB36188CA0704D12279012A83
:104E400015D00C2A13D005EBC00042682263C2685B
:104E50004068101A2061C807D7D11348226A036836
:104E60009A4202D141F0200161800068CCE741F014
:104E7000010105EBC00061804068E062C5E7012EDA
:104E800004D0608840F004006080BEE7012007A7DE
:104E9000207100268AE70000696E6465782E6874C8
:104EA0006D000000746F0500508A0000696E646533
:104EB000782E6367690000002DE9F04706464088B8
:104EC0000725000500D50125DFF8F89099F80500C1
:104ED00008B925F001050027376237720C464FF0FC
:104EE000070865E0E80705D037A12046FDF7B0FCCC
:104EF000012810D0A80705D539A12046FDF7A8FC48
:104F0000012836D068074DD53AA12046FDF7A0FC10
:104F1000012840D046E01534214625F00105084619
:104F2000FDF782F83A21204602F0BDF9B0F1000AFF
:104F30001CDB04F80A70D9F81010097869B1204612
:104F4000D9F81010FBF7E8FC38B904EB0A00401C54
:104F5000D9F81410FBF7E0FC20B304EB0A01491C5C
:104F60002046FFF7A5FC08B130721BE086F80080F0
:104F700018E0113425F0020500203118225C8A76F1
:104F8000215C2C2904D00D2902D0401C0528F4DB1B
:104F90003044877606E0133425F00405204600F0FF
:104FA0001DFB3062184841682046FFF795FA044619
:104FB0000CB1002D96D1E80701D086F80080BDE83D
:104FC000F087000024700500417574686F72697A7B
:104FD0006174696F6E3A204261736963200000005A
:104FE0004163636570742D4C616E67756167653AE6
:104FF0002000000049662D4D6F6469666965642D67
:1050000053696E63653A2000680000102DE9F04195
:10501000534F04460D46B888A0EB050080B2788057
:105020006179C9065CD4E188884270D9421A294660
:10503000A06A02F02DF800286AD0E188001D0D1842
:1050400065D04FF0000847A12846FDF701FC012874
:105050000FD115352E460AE048A1304602F02EF950
:1050600001280DD030467968FFF74AFA0646002E2F
:10507000F2D128467968FFF72FFA18B30546E2E720
:1050800006F10A0122220E460A2306E09842F0D0D9
:105090000D28EED00028ECD0761C30789042F5D167
:1050A000002EE6D0701A82B286F800800120FDF74B
:1050B00011F9608840F400706080607940F0200051
:1050C0006071D6E728780D2847D168780A2844D13E
:1050D0006079AD1C40F0100060717868A8423CD93E
:1050E0006179C1F30110032837D17888E268490655
:1050F000A2EB0002E26021D4E188884209D9421A79
:105100002946A06A01F0C4FF18B1801E0CE024E01B
:1051100021E07868E16859B1E28802F10803994218
:1051200006D2511A401A0838617941F04001617184
:10513000401B82B229460220FDF7CCF8E068042823
:105140000BD2002211460320FDF7C4F8608820F43A
:10515000007060800120BDE8F0810020FBE70000C6
:1051600068000010436F6E74656E742D446973702F
:105170006F736974696F6E3A2000000066696C6530
:105180006E616D653D2200002DE9F0413A4D044607
:105190000F46A8884FF00006A0EB070082B26A8095
:1051A0006088C10460791CD5010706D4E16891428A
:1051B0000ED940F00800607166616069104460615A
:1051C000E168884204D239460520FDF783F841E0C2
:1051D00039460420FDF77EF8608820F48050608016
:1051E00047E0000720D4E068904204D83946002008
:1051F000FDF770F83EE0214980B2E0804A68B0EBEC
:10520000920F02D9C2F38F00E08080B2FCF708FB56
:10521000A0626A88394600F0C5FF688860616079DD
:1052200040F00800607115E0E088616981420AD2AF
:10523000401A824200D21046A26A531802463946EA
:10524000184600F0AFFF6988606908446061E16852
:10525000884202D20020BDE8F081E288A16A881865
:1052600068600020FDF736F86E60A06AFEF73CFE2D
:10527000A66266610120EEE768000010E06F05009D
:105280002DE9F84F0025DFF828934FF00108AA46D2
:10529000DFF820B385E1C8480178491CC9B2017024
:1052A0003279914201D980F80080C3483168007892
:1052B00000EB800202EBC0006FF0330202EB8000D3
:1052C0000C1820780B2810D2DFE800F0060F060F2C
:1052D000108EF7F60F0FF600607802F0C7F802287C
:1052E000F1D2F188607802F0DFF859E1A07810F08F
:1052F0002C0F0FD00120FCF789FE0028F5D0608824
:10530000410701D5032539E1000701D5022535E123
:10531000002533E1208B0028E7D1D4E90401814244
:1053200013D36088C1070CD0010605D520F080009A
:105330006080206BFFF784FB204601F0C7FD05204D
:10534000E2E0607802F00EF85FE00120FCF75EFE1C
:105350000028CAD0607802F029F9064640F40040DF
:1053600002F04EF800900028BFD060880025810729
:105370000AD440F00200608020460099FFF71AF935
:105380000546608800057BD40098A6EB050600EB77
:105390000503A078000613D5B2B21946206BFFF7BB
:1053A00058FB0746B04217D2206BFFF749FB6088D5
:1053B00020F080016180C4F830A0C4F810800BE0B8
:1053C000D4E904100A1AB24200D93246216B0144D2
:1053D000184600F0E7FE87B22783781982B260781A
:1053E000009902F0B5FDBDE0606A0078632810D036
:1053F00004DC23287ED02E2804D1A2E769287AD0A5
:10540000742806D0607801F085FF2046FFF782FB04
:10541000A8E00120FCF7FAFD00286DD0607802F0CA
:10542000C5F8064640F4004001F0EAFF070063D0EB
:1054300060880025810717D440F00200608039465B
:105440002046FFF7B7F805460EE0701B616A82B28E
:10545000891C781900F0B2F8054405F17800B042D3
:1054600047D8204601F032FD606A00787428ECD0FD
:1054700063283AD104F10C00DFF83CB1009000E061
:1054800086E0A078C00601D4C4F80CA04A489BF876
:105490000010001D0170701B82B2606A7919801CB7
:1054A000009BFCF7A7FEC0F30D010D4401046188C9
:1054B00004D541F0100103E058E044E021F0100170
:1054C0006180400415D405F1F000B04211D8A078F5
:1054D000C006E0D4204601F0F9FC606A0078632839
:1054E000CDD0606A00787428AFD0608840F040006A
:1054F000608002E023E009E052E0AAB222836078F3
:10550000394602F025FD062020702BE06088C0059A
:105510000CD5606A801C04E0202905D00D2903D039
:10552000401C01780029F7D180F800A0616A20466C
:10553000891CFFF731FC0420C4F814A0E4E72046DE
:1055400001F0C4FC50E7208B50BB05202070A078F0
:1055500010F0500F02D1204601F0B8FC608820F016
:105560004000608089F80E80BDE8F88F0120FCF7CC
:105570004DFDA8B12078072810D00425607802F0EE
:1055800015F801F03DFF29460090FFF795F9054613
:105590002A466078009902F0DBFCD2E60125EDE7AF
:1055A0006D1C9BF804005E46A8423FF674AEDBE734
:1055B000C8490010247005006400001010B50023D5
:1055C00007E00C783CB15B1C04700A2C03D0401C33
:1055D000491C9342F5D398B210BD00002DE9F04765
:1055E00004460C30FAF776FEA0F2B275872D29D862
:1055F00040F26D106843691CDFF8848000EB91076E
:10560000002604F1080900BF08EB8601484601F0B6
:1056100055FE012802D0761C0C2EF5D30C2E11D08D
:1056200017484C30012E30F81600074404D9A8075B
:1056300010F1004000D17F1C601DFAF74BFE401EA8
:105640001E2802D90020BDE8F0873D1804F11100A2
:10565000FAF740FE05EB450100EBC10504F114002B
:10566000FAF738FEC5EB051100EB810504F11700D0
:10567000FAF730FEC5EB051100EB8100E3E700000F
:105680005A700500024800210170418070470000F7
:10569000C8480010F8B5044630F8261BFCF7A1FDF9
:1056A000002858D194F82600002704F11E0648B3BC
:1056B000082850D194F82700F0BB20882230FCF74E
:1056C000AFF880F8267080F8277007852288054695
:1056D000121F04F12A012A3000F064FD218805F12F
:1056E0002600FCF77EFD28852088288080200090F9
:1056F000002301223146284600F010FC2846FEF720
:10570000F3FB26E0154D2878C00723D094F8270036
:1057100090B9042205F10C01304600F037FD002855
:1057200018D0618DA88809BAB0EB114F13D1208829
:105730001A2810D1612000E00DE0211811F8331C67
:10574000814208D1401C7328F5DBA96800208847F6
:105750002F700120F8BD0020F8BD0000C8480010DF
:1057600010B50E4C2078C00710D0608828B10C49C5
:10577000097BC9070AD0401E07E0607838B1401E97
:10578000607000F011F80748007A608010BDA168D1
:10579000012088470020207010BD0000C84800107C
:1057A000C8490010E06F050038B51A4DE888401C64
:1057B000E8803C20FCF734F8082180F8261000210E
:1057C00080F8271004460185A88800BA010C61857D
:1057D000E88800BA010CA1856120211801F8330C7A
:1057E000401C7328F9DB1A2104F12600FCF7F9FCB0
:1057F00020851A2020808020064900900023012265
:105800000C31204600F08AFB05462046FEF76CFB73
:10581000284638BDC84800100B4910B5083809683B
:10582000002203E00A460968002909D08142F9D123
:1058300006484C6803681B1B036012B108681060BF
:1058400010BD0020486010BDE06F05007C490010CD
:10585000002070477047000010B500F0AFF900F06D
:105860000FF8064800680A21B0FBF1F0401E4FF027
:10587000E02148610520086110BD000034000010DF
:1058800010B500F0D9F9084801213C22016000213F
:1058900001814181017305493C3800F083FCBDE87A
:1058A000104000F0F9B90000C8490010A46F0500CD
:1058B00010B504460020B9B3616819B12178C90751
:1058C00002D00BE0032010BD20606068016800205A
:1058D000884750B3206840F001012160206820F023
:1058E0001E01216060680021426908469047010658
:1058F00003D5206840F0180106E0C1073AD08007C0
:1059000003D4206840F01001216060680168012024
:10591000884750B1206840F0020120462160FDF721
:1059200062FE18B1022010BD0AE023E0206840F0BA
:10593000040120462160FDF7FFFE00BB0420F2E7D2
:105940002084616869B12178C9070AD12060D4E94F
:105950000120E1691268904760B1206840F00100C1
:105960002060206840F004012160606820B18068F8
:1059700010B104E00120D6E741F0100020600020C3
:10598000D1E700002DE9FC41002081490870362054
:105990000090694668467F4A126890472521019821
:1059A000B1EB106F02D10120794908707A48006884
:1059B00040F080407849C439C1F8C400774878493C
:1059C00088607348007830B90846C06820F00F003E
:1059D000401DC8600BE07248006920F470207049D7
:1059E00008617048006C40F480706E4908644FF4A0
:1059F0004F404FF0A041086078206B490860642454
:105A000000E0641E002CFCD102204FF0A041086091
:105A1000302048604001486143F20F700861122055
:105A2000C8604001604908604FF400604FF0A04139
:105A30008861642400E0641E002CFCD100204FF03B
:105A4000A04188614FF4004102F094FE00BF08E0DD
:105A5000002001F0F5F9054605F4084000B903E01F
:105A6000641CB4F5801FF3D300BF022001F0E8F9F5
:105A70000746032001F0E4F906464FF6F070304087
:105A800040EA07404949884213D14FF44051002071
:105A900002F070FE002408E0012001F0D1F9054673
:105AA00005F0200000B103E0641CB4F5801FF3D3BF
:105AB00000BF002408E0102001F0C2F9054605F0FF
:105AC000010000B103E0641CB4F5803FF3D300BFD4
:105AD00005F0040080B14FF0A040406840F00100A4
